:100000000C944E020C946B020C946B020C946B02D9
:100010000C946B020C946B020C946B020C946B02AC
:100020000C946B020C946B020C9429220C94FC220D
:100030000C94D21C0C946B020C946B020C946B020B
:100040000C946B020C946B020C946B020C946B027C
:100050000C946B020C944A1D0C946B020C946B0272
:100060000C946B020C946B020C946B020C946B025C
:100070000C946B020C946B020C946B020C946B024C
:100080000C946B020C946B020C946B020C946B023C
:100090000C946B020C946B020C946B020C946B022C
:1000A0000C946B020C946B020C946B020102E00145
:1000B000043130307C01010601043130307C010311
:1000C000E0000102E001043130307C0102E1010472
:1000D0003130307C01011D01043130307C0103E1FD
:1000E0000103E0000102E001043130307C01011D18
:1000F00001043130307C0103E0000101E3010431EF
:1001000030307C427261766501043130307C01010F
:10011000280104313030307C636861746770742E5C
:10012000636F6D010128000101E301043130307C6F
:100130004F425301043130307C010128000101E3BA
:1001400001043130307C53686170723364010431D2
:1001500030307C010128000101E301043130307CA2
:1001600050686F746F73686F7001043130307C01B8
:100170000128000101E301043130307C7072656DAB
:10018000696572652070726F01043130307C010145
:1001900028000101E301043130307C536E69707036
:1001A000696E6720546F6F6C01043130307C01013F
:1001B0002800427E407E417E437E447E457EA600EE
:1001C00000002152655262526352645208000900D5
:1001D0000A00A500040014001A0006004C00487E26
:1001E0001900467E477E005200000000000000001B
:1001F0000000000000000000000029000F001000B7
:100200004C0012001600467E477E00523A003B002A
:100210003C003D003E003F00400041000052000015
:100220000000000000002A2B280000000000000051
:1002300000000000000000000029000000002C1E4B
:100240003420212224342627252E362D3738271E08
:100250001F202122232425263333362E37381F042E
:1002600005060708090A0B0C0D0E0F1011121314C6
:1002700015161718191A1B1C1D2F3130232D350484
:1002800005060708090A0B0C0D0E0F1011121314A6
:1002900015161718191A1B1C1D2F3130354C00006C
:1002A000000000000000000000000000000000004E
:1002B000000000000000000000000000000000003E
:1002C00000007E0F00D4FFFFFFC7000000781E0370
:1002D000700072006F006A006500630074005F00C8
:1002E0006B00650079005F007600320000001E039D
:1002F000530061006B007300680061006D005F00D7
:100300005400680061006B00750072000000040377
:10031000090409025B00030100A0FA0904000001BE
:100320000301010009211101000122440007058198
:100330000308000109040100020300000009211163
:1003400001000122220007058203200001070503A6
:10035000032000010904020001030000000921112B
:1003600001000122B60007058403200001120100EC
:1003700002000000084B534B50000101020001062F
:1003800060FF0961A1010962150026FF0095207533
:100390000881020963150026FF0095207508910267
:1003A000C005010902A10185020901A10005091981
:1003B000012908150025019508750181020501092B
:1003C0003009311581257F95027508810609381598
:1003D00081257F950175088106050C0A3802158173
:1003E000257F950175088106C0C005010980A1011E
:1003F000850319012AB700150126B700950175106C
:100400008100C0050C0901A101850419012AA0027F
:10041000150126A002950175108100C0050109068D
:10042000A1018506050719E029E7150025019508B2
:10043000750181020507190029EF1500250195F0C6
:1004400075018102050819012905950575019102BB
:10045000950175039101C005010906A10105071960
:10046000E029E715002501950875018102950175C0
:100470000881010507190029FF150026FF009506D0
:100480007508810005081901290515002501950544
:1004900075019102950175039101C00011241FBEE1
:1004A000CFEFDAE0DEBFCDBF11E0A0E0B1E0ECEDD0
:1004B000FBE402C005900D92AE39B107D9F722E0F6
:1004C000AEE9B1E001C01D92AE38B207E1F70E947B
:1004D00018120C947E250C940000DB01FC01E05402
:1004E000FE47E930F10568F4E058FA4D15969C9105
:1004F0000C94BE24911529F060E082E991E00E94FD
:100500003F1881E008959115E1F360E083E791E001
:10051000F6CF9115B1F360E087E591E0F0CF91154A
:1005200081F360E08DE391E0EACF911551F360E053
:1005300087E291E0E4CF911521F360E08AEF90E04B
:10054000DECF9115F1F260E084EE90E0D8CF911506
:10055000C1F260E082EC90E0D2CF911591F260E0C0
:100560008CEA90E0CCCF8630C0F46330B0F44330F6
:10057000A0F470E0FB01EE0FFF1FE60FF71FE40F82
:10058000F11D99E0899FE00DF11D1124EE0FFF1F71
:10059000EE54FE4F85919491089581E090E0089586
:1005A00081E0089581E008950E94D002089581E0DD
:1005B000089581E008950E946D02089508950895B8
:1005C0000E94DE02089508950895A6E0B0E0EBEEE3
:1005D000F2E00C94DA2449835A839E833091A5017A
:1005E00089819A8131111AC03E81311599F0211506
:1005F00089F00E94AE08182F682F89819A810E9485
:10060000850869817A81812F0E94CC0F2696E3E0CC
:100610000C94F6240E949908182FF3CF0E94AE087C
:1006200069817A81F1CFFC01262F4081518162815D
:100630007381848195810E94E5020895CF93DF93B1
:10064000D82FC92F61E00E9413036D2F7C2F0E94C9
:10065000D202811549F061E08D2F9C2F0E94130377
:100660006D2F7C2F0E94D402DF91CF9108950F93BC
:100670001F93CF93DF93D82FC92F60E00E941303FD
:100680008C016D2F7C2F0E94DF026D2F7C2FC80103
:100690000E94E002DF91CF911F910F91089591E0A8
:1006A00001C0990F8A95EAF7892F0E94C70708951C
:1006B000CF93C82F81E00C2E01C0880F0A94EAF76F
:1006C0000E94290D8C2F0E944F03CF91089581E045
:1006D000089581E008950E9467030895CF93C82F7D
:1006E0000E9473078C2F0E9469038C2F0E946B035A
:1006F0002FEF84E39CE0215080409040E1F700C060
:100700000000CF91089581E00E946E030E946E1D4B
:10071000089580E00E946E030E947F1D08950F934C
:100720001F93CF93DF938C0161E00E941303EC01D0
:10073000B8010E94D902811509F450C0B801CE0158
:100740000E94DB02811509F449C0B801CE010E9464
:100750009F19811509F442C0B801CE010E94B91851
:100760008115E1F1B801CE010E94D5138115B1F1D7
:10077000B801CE010E94AA13811581F1B801CE0102
:100780000E94FB18811551F1B801CE010E94CF10D3
:10079000811521F1F8018581811581F0CA35FCE7C9
:1007A000DF0739F178F4C130ECE7DE07F9F0C33048
:1007B000FCE7DF07C9F0C115DC4771F0C8010E94F2
:1007C000D7020DC0CB35ECE7DE07B1F0CC35DC4706
:1007D000A9F70E94FB0CF2CF0E94830380E0DF9117
:1007E000CF911F910F9108950E940C0D0E948903D3
:1007F000F5CF0E94040DE2CF0E94080DDFCF0E94CA
:10080000E3020E94A51C0E94230408950E9427046D
:100810000E94E4020E94AA1C089581E008950895B0
:10082000CF93DF93D82F0E940D04C82F811519F0A4
:100830008D2F0E940F048C2FDF91CF910895089582
:100840000E941004089580E00E94200408950E94F0
:100850008D1A0E9420040895CF930E948D1AC82FEC
:100860008091A0018C1779F0C093A0010E943E1DD9
:100870006093A1017093A2018093A3019093A401BE
:100880008C2F0E942004CF910895ADE0B0E0EBE4FE
:10089000F4E00C94DB24488759876A877B878C8730
:1008A0009D8791110E94070C1F8286E0FE013896F9
:1008B000DE01119601900D928A95E1F78D818111EB
:1008C0000DC029813A814B815C816D817E818F8150
:1008D0000E94510B2D96E2E00C94F724CE01019674
:1008E0000E941E038111EDCFF5CFFC018481813080
:1008F00021F4808191810E94D7080895611529F023
:100900000E943B150E94FC1508950E948415FACFA1
:10091000CF93C82F811599F08CEF8C0F813A88F412
:100920008C2F0E94311B811529F08C2F0E94DA1B1D
:100930000E949D0C8C2F0E94C01B0E949D0CCF9189
:10094000089580E28C0F883048F4C77081E001C0C0
:10095000880FCA95EAF70E94E80BEFCF8BE58C0F62
:10096000833038F42C2F2452330BC9010E94C31A50
:10097000E6CFE8E5EC0FEB3150F4F0E0EE0FFF1FAF
:10098000E35EFE4F808191810E94E91AD8CF83E314
:100990008C0F8331A0F661E08C2F0E947E04CFCFB4
:1009A000811581F19CEF980F913A28F40E94DA1B8F
:1009B0000E949D0C089590E2980F983050F4877033
:1009C00091E001C0990F8A95EAF7892F0E94EE0BFA
:1009D000EFCF9BE5980F933028F480E090E00E94E1
:1009E000C31A089598E5980F9B3128F480E090E0B1
:1009F0000E94E91A089593E3980F933118F460E088
:100A00000E947E0408950F931F93CF93C82F8B01EC
:100A10000E9488040115110539F48C2F0E94D0041E
:100A2000CF911F910F9108958FE99FE00197F1F702
:100A300000C0000001501109EDCF60E570E089337E
:100A400011F060E070E00E9403050895811521F027
:100A50000E94E80B0E949D0C0895811521F00E94D0
:100A6000EE0B0E949D0C0895A0E0B0E0EAE3F5E0F3
:100A70000C94D5246C01D62FC72FFC01158106815B
:100A800002950F700E94DD0BE82E8115F9F0E12E22
:100A90001115E1F08C2F807F803461F080E28D0FA2
:100AA0008830F0F08C2F807E803221F4D230C0F07C
:100AB0000115B1F08091760282FF12C082E00E949F
:100AC000CE0C0E94DD0B91E0E82EE926EC2FE2959A
:100AD000EF70C03CB0F5F0E0E757FA4D0C94BE243F
:100AE000E12CF4CF0C2F0F70C03110F00295007F75
:100AF000111599F0011559F080E28D0F883010F032
:100B0000D11107C0802F0E94E80B0E949D0C8D2FF1
:100B10004EC0802F0E94F90BF8CF8D2F0E94D00479
:100B2000011579F080E28D0F883010F0D11104C0EA
:100B3000802F0E94EE0B03C0802F0E94FF0B0E94AB
:100B40009D0CE11409F4C6C00E94D90B80FDC2C0FF
:100B5000F60115820E94D30B0E94F407C6010E9481
:100B60003A070E94D30B0E940008B4C0FC2FFF700C
:100B7000FF2EC07FC03219F0F29480EFF822D11519
:100B800041F0D130C9F1111509F443C00115E9F064
:100B9000BECF8091760282FD14C0111559F0F11478
:100BA00029F08F2D0E94E80B0E949D0C80E00E948E
:100BB0008804C7CF80E00E94D004F11411F28F2D79
:100BC000B8CF111569F0011104C08F2D0E942605C0
:100BD000B8CF013009F0B5CF8F2D0E941F0CB1CFD7
:100BE0000111AFCF8F2D0E942D058F2D0E942B0C50
:100BF0008F2D0E940E0CA5CF111521F0063008F0A4
:100C0000A0CFE3CF053008F09CCF8F2D0E942D059B
:100C100098CF0115D1F3D93349F42FEF87EE93E044
:100C2000215080409040E1F700C000008D2F0E94CD
:100C3000D00487CF8C2F869586958370811569F0B7
:100C4000813009F07ECF8D2F9C2F9370111102C03F
:100C500080E090E00E94E91A74CF8D2F9C2F937052
:100C6000111102C080E090E00E94C31A6ACF612F88
:100C70008D2F0E947E0465CF8C2F8370811138C028
:100C8000111124C04D2F429546954770440F440FD3
:100C90008D2F8F70042E01C0880F0A94EAF72D2F34
:100CA0002071D4FF07C02FE030E001C0220F4A9529
:100CB000EAF72095C695C695C370822BC23091F095
:100CC000C33099F0C13059F00E94D0070E948D1AAC
:100CD0000E942004CDB7DEB7E8E00C94F1240E9416
:100CE000CA07F4CF0E94D607F1CF0E94C707EECF04
:100CF000111539F1C0FFEACF4D2F42954695477047
:100D0000440F440F8D2F8F70042E01C0880F0A945A
:100D1000EAF72D2F2071D4FF07C02FE030E001C08B
:100D2000220F4A95EAF72095C695C695C370822B87
:100D3000C23069F0C33071F0C13031F00E94220836
:100D4000C5CF823018F2D8CF0E941C08BFCF0E94B6
:100D50002808BCCF0E94E207B9CFCF70111539F037
:100D60008C2F0E94F4078D2F0E942605AFCF8D2F68
:100D70000E942D058C2F0E940008A8CFD23F41F180
:100D800070F4D03FC9F0D13F91F0111509F446C07D
:100D9000011509F440C08D2F0E94880497CFD33FDE
:100DA000F1F0D43F91F78091760282FD22C08C2F22
:100DB0008F71111501F310C0111541F0053008F0C5
:100DC00085CF8C2F8F710E94100880CF0630F7CF0F
:100DD0008C2F8F711111CFCF0E94F40777CF11158F
:100DE00029F08C2F8F710E94EB0770CF0E94E707CC
:100DF0006DCF111531F063E08C2F8F710E94AF0C15
:100E000065CF81E00E94CE0C023008F45FCF82E013
:100E10000E94CE0C5BCF8C2F8F71DECF011579F045
:100E2000D93349F4EFEFF7EE23E0E150F0402040F2
:100E3000E1F700C000008D2F0E94D00447CF8C2F17
:100E40008F7199CF0F931F93CF93DF93EC0168813C
:100E500079818D810E94E4088C010E942E080E94F5
:100E6000C607B801CE010E943405DF91CF911F91D2
:100E70000F910895CF93DF93EC018C81811599F048
:100E8000CE010E948F03811111C00E94DD0B8115DC
:100E900051F08D81811539F08091760282FF03C077
:100EA00082E00E94CE0CDF91CF910895CE010E9486
:100EB0002207CE010E943703F6CF80E090E00E9427
:100EC000C31A80E090E00E94E91A0E94070C0E9479
:100ED0009D0C0E9419160E94FC1508950E94F41B97
:100EE0000E945D0708950E94F60B0E946E07089508
:100EF000282F92959F70963099F060F4925F9F70C2
:100F0000923030F4203FB1F038F481E0283E38F0E0
:100F100080E008959A5FF3CF81E0243FC9F70895F8
:100F200091E0813F09F090E081E0283E08F080E008
:100F3000892B089581E00895FC018481811539F0A1
:100F4000808191810E94D7080E947807089580E0EF
:100F50000895A6E0B0E0EFEAF7E00C94DB242696D3
:100F6000E2E00C94F724A7E0B0E0E9EBF7E00C94A2
:100F7000DB242796E2E00C94F72408950E94BD0735
:100F800008950E94BE078093AD01089508950E94C0
:100F9000C10708959091AD01892B0E94C107089562
:100FA0009091AD0189230E94C10708959091AD01F0
:100FB00089270E94C10708950E94BD0708950E94D5
:100FC000DC0708950E94DF078093AC01089580E05C
:100FD0000E94E207089591E001C0990F8A95EAF70F
:100FE000892F0E94E207089521E030E001C0220F1E
:100FF0008A95EAF78091AC01822B0E94E20708955E
:1010000021E030E0A90102C0440F551F8A95E2F7A4
:10101000CA0180959091AC0189230E94E20708954E
:1010200021E030E001C0220F8A95EAF78091AC01FF
:1010300082270E94E20708959091AC01892B0E94BB
:10104000E20708959091AC0189230E94E207089578
:101050009091AC0189270E94E207089508959B01B1
:10106000677091E001C0990F6A95EAF763E03695E1
:1010700027956A95E1F7B901660F771F260F371F8D
:10108000FA01E20FF31F40E050E0682F70E0819119
:10109000DF019B01042E02C0369527950A94E2F7E2
:1010A000217021952827292328272E934F5F5F4FF2
:1010B0004330510561F708959C01A82FA77083E084
:1010C000369527958A95E1F7C901880F991F820FF8
:1010D000931FFB01E80FF91F40E050E080E02191F1
:1010E00030E00A2E02C0369527950A94E2F7217067
:1010F0003327042E01C0220F0A94EAF7822B4F5F98
:101100005F4F4330510559F70895482F862F93308C
:1011100078F4433068F4292F30E0B901660F771F67
:10112000620F731F640F711D46EA51E00E942F0881
:101130000895482F933080F4833070F4292F30E0E5
:10114000C901880F991F820F931F66EA71E0840F0F
:10115000911D0E945C08089580E00895A0E0B0E031
:10116000E4EBF8E00C94D6247C010091AC01809172
:10117000AD01082BC5E0D0E010E0C8010C2E02C084
:10118000959587950A94E2F780FD09C02197A8F705
:10119000D12C8D2DCDB7DEB7E7E00C94F224DC2EF8
:1011A000B7018C2F0E94D80F019781F3F2CFCF9314
:1011B000DF93D82FC92F0E94AE086D2F7C2F0E947D
:1011C000D80FDF91CF9108951F93CF93DF93162F00
:1011D000D72F9091A501911541F0862F972F0E944E
:1011E000D708DF91CF911F910895811581F0862F47
:1011F000972F0E94AE08C82F682F812F9D2F0E9425
:101200008508612F7D2F8C2F0E94D80FEACF862F63
:10121000972F0E949908C82FF4CFE1E0F0E0DF019A
:1012200002C0AA0FBB1F6A95E2F7BD01DF0102C031
:10123000AA0FBB1F4A95E2F76A2B01C0EE0F2A9551
:10124000EAF7962F9823961302C08E2B0895E09507
:101250008E230895242F462F682F8091AC010E9481
:101260000D090E94E20708950F931F93CF93E09119
:10127000AE01C7E08091AF018E1304C0CF911F91E2
:101280000F9108950E2F10E0CE9FF0011124E0552C
:10129000FE4F208131814281538164817581868135
:1012A0000E94B307F8013196E770E4CF2091E8017E
:1012B0003091E9014091EA015091EB016091EC011C
:1012C0007091ED018091EE010E94B3070895809125
:1012D000EE01803178F48091ED01811559F0E091B3
:1012E000AE012091AF013091E9014091E80157E052
:1012F0002E1301C008956E2F70E05E9FF00111243F
:10130000DF01A055BE4F14968C911497811561F1A1
:1013100011968C911197831327C08C91841324C04C
:1013200015968C91159781111FC012968D919C91E5
:10133000A091EA01B091EB018A1B9B0B883C9105BF
:1013400098F48091EE018F7080618093EE01EA54F1
:10135000FE4F80818F708061808388EE91E00E94D3
:101360003A070E9434090895FB013196E770C0CF17
:10137000E091AE019091AF0127E0E91302C080E057
:101380000895AE2FB0E02E9FF0011124E055FE4FDE
:101390003181361306C03081381303C035813413D0
:1013A00004C0FD013196E770E8CF81E008958F9287
:1013B0009F92AF92BF92DF92EF92FF920F931F9393
:1013C000CF93DF93CDB7DEB72D970FB6F894DEBF7E
:1013D0000FBECDBF8C0186E0F801DE0118960190AA
:1013E0000D928A95E1F7F801F580848198EE892EB7
:1013F00091E0992E9091EC0191111BC0811509F497
:10140000FFC0F11409F440C1C8010E949C07811576
:1014100009F43AC187E0F801D40101900D928A9550
:10142000E1F7C4010E9475040E9467090E945609F1
:10143000E7C0E080A280B380D090ED012091EA0166
:101440003091EB01A501421B530BD11409F4DBC011
:10145000483C510508F0A6C0811509F4D1C090910F
:10146000E90191808091EE01803108F06BC0991202
:1014700028C09091E8019E1124C0F1105DC08F70CA
:1014800080618093EE010E94560988EE91E00E94EF
:101490003A078091EE01F8018683F12C8F2D2D966D
:1014A0000FB6F894DEBF0FBECDBFDF91CF911F9175
:1014B0000F91FF90EF90DF90BF90AF909F908F9033
:1014C0000895F11039C040E0692D8E2D0E94B809B1
:1014D00040E0692D8E2D0E94B809F82E8111DDCFD4
:1014E000888599850E94D708292F22952F709034DE
:1014F00050F49F70223080F0911599F0F801968198
:10150000903178F4CBCF2A5F2F70223078F0C80169
:101510000E943A07FD2CC2CF911519F0811509F4EC
:10152000BDCF805E883008F4B9CFF1CF803F08F49A
:10153000B5CF815F8330F7CF8091EE0181608093DA
:10154000EE01ABCF991207C09091E8019E1103C044
:10155000F11409F479C0C8010E949C07811509F4AF
:1015600093C0F11409F490C08091EE01803288F0AC
:101570002091E8013091E9013A832983BC82AB8252
:101580009091EC019D831E828F83CE0101960E9473
:101590003A0787E0F801A8EEB1E001900D928A9534
:1015A000E1F742CF9091EE019031A0F44885598542
:1015B0006A857B858C859D850E94A90788EE91E0D0
:1015C0000E943A0787E0F40111928A95E9F70E9498
:1015D000560963CF8115A1F02091E901818128137B
:1015E000BACF8091E8018E11B6CFF110B4CF9683B7
:1015F000C8010E943A0787E0F40111928A95E9F741
:10160000FF24F3944BCF483C510508F041C08115AD
:10161000B9F3F114C9F19091E901818198132AC0BD
:101620008091E8018E1126C08091EE0180FD19C0E5
:101630008031B8F08683807F803F39F08681982F93
:10164000907F905F8F70892B8683C8010E943A0734
:1016500087E0F801A8EEB1E001900D928A95E1F7DC
:10166000E5CE87E0F801A8EEB1E001900D928A95F1
:10167000E1F7C6CFC8010E949C0781118ACF8091F3
:10168000EE0181608093EE01C8010E943A07B8CF55
:10169000488559856A857B858C859D850E94A9072B
:1016A00091CFAEE0B0E0E7E5FBE00C94DA242887C8
:1016B00039874A875B876C877D878E87CE0108963E
:1016C0000E94D7096C858115A9F0611541F0288524
:1016D00039854A855B857D858E850E94B30717E035
:1016E0008091AE019091AF0189133AC02E96E3E04C
:1016F0000C94F62487E0FE013896DE0111960190E5
:101700000D928A95E1F7611551F3A091AF018A2FEF
:1017100090E00196877099272091AE01281719064D
:1017200089F097E09A9FD0011124A055BE4FFE0189
:10173000319601900D929A95E1F78093AF010E9446
:101740003409CDCF0E9473071092AF011092AE0101
:1017500087E0E8EEF1E0DF011D928A95E9F7BFCF5F
:10176000189FC001112480559E4F0E94D7098115F2
:1017700009F4BCCFE091AE011E9FF0011124E055A9
:10178000FE4F208131814281538164817581868140
:101790000E94B3078091AE0190E00196877099276F
:1017A0008093AE019DCF8091170286958695869590
:1017B000089580911702877008959091170297708D
:1017C00081E0911101C080E0089580914302089565
:1017D00090914302982B909343020895982F9095EF
:1017E000809143028923809343020895109243021B
:1017F000089590914202982B909342020895982F59
:10180000909580914202892380934202089510921C
:101810004202089508950E940A0C089590911802BA
:10182000292F2823211531F08095892380931802D0
:101830000E940B0C089508950E941B0C089590912E
:101840001902292F2823281729F0982B9093190281
:101850000E941C0C089590911902292F282321150C
:1018600031F080958923809319020E941C0C089501
:1018700080911902811529F01092190280E00E94CE
:101880001C0C0895CF93C091430280914202C82B53
:1018900080911902811531F0C82B0E940F1B811114
:1018A0000E94380C8C2FCF910895CF93DF93C09175
:1018B0000201D09103010E94420C8883C091020171
:1018C000D091030148E050E06FE072E0CE010E9449
:1018D0001625892B59F088E0FE01AFE0B2E00190B7
:1018E0000D928A95E1F7CE010E949A1ADF91CF916D
:1018F0000895CF93DF93C0910001D09101010E9420
:10190000420C8983C0910001D091010140E250E076
:101910006FEE71E0CE010E941625892B59F080E20E
:10192000FE01AFEEB1E001900D928A95E1F7CE0194
:101930000E94A51ADF91CF9108950E94801C8130EA
:1019400039F48091750287FF03C00E94790C0895D5
:101950000E94550C089508950E94AB0C0895962F8F
:101960002091760222FF11C0682F660F660F660F66
:10197000692B609317020E94F407809117028695E5
:10198000869586950E94AC0C08950E94F4070895F0
:101990001092170280E00E94AC0C089590911702FB
:1019A0008095892380931702282F277021110DC05D
:1019B000891759F09091760292FF07C08695869517
:1019C00086950E9400080E94C80C089590917602A6
:1019D00092FB222720F9281769F080FB92F9909357
:1019E000760280917502909176020E94340D82E019
:1019F0000E94CE0C089580917602002482FF039409
:101A0000802D0E94E60C089581E00E94E60C089566
:101A100080E00E94E60C08956FEF7FEF80E090E099
:101A20000E946825089580E090E00E943425853E5C
:101A30009E4F19F40E943619089580E0089582E0BF
:101A400090E00E942C25089583E090E00E942C25D0
:101A50000895682F83E090E00E944A25089584E06D
:101A600090E00E9434250895BC0184E090E00E943B
:101A700068250895AB01BC018FE090E00E945C25D1
:101A80000895AB01BC0183E190E00E945C250895BC
:101A900060E070E0CB010E94410D089560E070E0CD
:101AA000CB010E943A0D0E94480D0895A8E0B0E0D5
:101AB000ECE5FDE00C94DB2465EE7EEF80E090E049
:101AC0000E94682560E082E090E00E944A2581E063
:101AD0008093AD010E94290D60E074E184E090E004
:101AE0000E94682560E086E090E00E944A2560E060
:101AF00087E090E00E944A2540E050E0BA0188E08B
:101B000090E00E945C2560E083E290E00E944A251C
:101B100060E08CE090E00E944A2560E08DE090E07B
:101B20000E944A2519821A821B821C821D821E82F3
:101B30001F82188648E050E067E170E0CE01019610
:101B40000E943A2540E050E0BA018FE190E00E9407
:101B50005C2580E00E944F190E9481190E944E0D61
:101B60002896E2E00C94F7240E94560D0895682F01
:101B70008EE090E00E944A250895A6E0B0E0E3ECF4
:101B8000FDE00C94D9240E94321D8C018091440206
:101B9000909145028017910779F019821A820E946C
:101BA000321DBC0149815A8180E090E00E944504C9
:101BB00010934502009344022696E4E00C94F52429
:101BC0000E943E1D60934D0270934E0280934F021F
:101BD000909350026093490270934A0280934B02A3
:101BE00090934C020895089508950E94F30D08956E
:101BF00008950E94F80D0E94F50D089508950E9421
:101C0000FE0D089508950E94020E0E94FF0D089592
:101C10008DEC90E10E942F120E94F40D0E94F90DAC
:101C2000089581E0089581E008950E94110E0895BD
:101C30000895089508950E94180E0E94190E0E949A
:101C40001A0E08950E94130D811102C00E94B40D56
:101C50000E941F0D809351020E942F0D90937602D7
:101C6000809375020E9452120E94240D0E94C707A1
:101C70008091AC010E94DF0708950E94291D0E94F7
:101C800091190E9481110E94220E0E941F040E943D
:101C9000030E0895A6E0B0E0E0E5FEE00C94D32446
:101CA0000E94130E81110AC00E94BD0D0E943A16B7
:101CB0000E942C042696EAE00C94EF240E949711CF
:101CC0001091460280E00E94E91018130EC0109196
:101CD000470281E00E94E910181307C010914802E2
:101CE00082E00E94E9101817F9F28091510281FDFB
:101CF0000E94EF100E94150EC82E86E4A82E82E0E6
:101D0000B82E00E0802F0E94E910182FF501919164
:101D10005F01891739F1D82ED926F12CEE24E394EE
:101D20008D2D8E218115B9F0C114A9F0F9820A8395
:101D30000E94321D9C838B8381E08D8391E0812FF3
:101D40008E21811101C090E049815A816B817C8193
:101D50008D810E944504F394EE0CF3E0FF12E0CF76
:101D6000F50112930F5F033069F60E94E00D9ECFDC
:101D70001F93CF93DF930E94DD0FEC01811522E5C5
:101D8000920708F05DC0811540E5940708F0DBC0BC
:101D9000803E910528F58D3C910508F0ACC0883A4D
:101DA000910578F4853A910508F0A2C0813091053B
:101DB00009F441C00497813A9105E8F1C0E0D0E010
:101DC0003AC0885A91094B97C8F7C85AD0E0CC0F4F
:101DD000DD1FCD5ADE4F0990D881C02DD4642BC0B1
:101DE000811550E49507F8F4C11580E2D80708F092
:101DF000C0C0C83ED105F8F0CE019A9581159F412B
:101E0000E8F68D2F0E947E10182FCE0199270E9490
:101E1000DD0F212F30E0322F2227E901CC27DF719F
:101E2000C82BD92B08C099270E94DD0FCC27DF7063
:101E3000C82BD92BD06ACE01DF91CF911F91089585
:101E4000803842E59407C8F5803652E5950708F0DA
:101E50005BC0C03482E5D807D0F4C03292E5D90720
:101E600008F04BC08C2F8695869520E2829FC0019A
:101E70001124C37021E030E0A90102C0440F551FB6
:101E8000CA95E2F7EA01C82BD92BDD68D4CF8C2F95
:101E900086958695877050E2859FC0011124C37096
:101EA00021E030E0A90102C0440F551FCA95E2F7B6
:101EB000EA01C82BD92BDC68BECF803C52E59507E0
:101EC00058F48F71C03AD245A0F590E0982F88273A
:101ED000EC01C46FD06AAFCF805C9245809708F068
:101EE0006DCFDC2FCC27CC27DF71C06FD06AA3CF9A
:101EF000A497D064A0CFD0659ECFCF71D0E0DC2F67
:101F0000CC27C16FD06A97CF86958695877020E2DF
:101F1000829FC0011124C37021E030E0A90102C0FA
:101F2000440F551FCA95E2F7EA01C82BD92BDA688E
:101F300082CF0E947E10C82FD0E0DC2FCC27CC2788
:101F4000DF71D06278CF8F710E947E1053E0CC0F8A
:101F5000DD1F5A95E1F7CC27DF70282F30E084FF92
:101F600004C050E1859F90011124C22BD32BD0696E
:101F700062CF8D2F8F710E947E10182FCE0199276E
:101F80000E94DD0F212F30E0322F222722273F71C0
:101F9000282B392BE901D5CF462F672F733028F432
:101FA000433018F40E941713089580E090E00895DC
:101FB0000E94CC0F0E94B80E08959C01803E9105AE
:101FC00009F448C0D8F48133910509F47DC048F480
:101FD0008932910509F46DC08A9709F47CC0C90162
:101FE00008958933910551F18238910539F1C597EA
:101FF000B1F78091750285FFF2CF29C0843E91052B
:1020000009F447C048F4823E910599F1833E910559
:10201000A9F121EE30E0E3CF863E910509F444C0FA
:10202000873E9105E1F68091750283FD61C0909134
:10203000760291FF2BC024EE30E0D1CF8091750263
:102040008370811152C08091760283FFC8CF29E24C
:1020500030E0C5CF8091750280FD33C0909176024B
:1020600090FFBDCF23EE30E084FFB9CF20E030E019
:10207000B6CF8091750282FDF5CFB1CF8091750208
:1020800082FD30C09091760290FD2FC084FFA7CFD3
:10209000EDCF8091760281FFA2CF8091750227EE6D
:1020A00030E084FDE3CF9BCF8091750283FDF7CFB5
:1020B00096CF8091750285FD1EC08091760283FFC8
:1020C0008ECF29E330E08BCF8091750286FF87CFDA
:1020D0002AE230E084CF8091750286FF80CF21E331
:1020E00030E07DCF22EE30E07ACF20EE30E077CFC7
:1020F00026EE30E074CF25E330E071CF9091750289
:1021000092FF10C041E0282F2471243009F040E0F4
:1021100031E0282F2871283009F030E0431711F002
:102120002CE0822793FF10C041E0282F2471243136
:1021300009F040E031E0282F2871283109F030E023
:10214000431711F02CE082273091760230FF10C047
:1021500051E0282F2171213009F050E041E0282F73
:102160002871283009F040E0541711F029E0822747
:1021700031FF10C041E0282F2171213109F040E0EA
:1021800031E0282F2871283109F030E0431711F091
:1021900029E0822794FD877E089580E00895CF93FB
:1021A0009C01FB01805E9245C1E0809738F4C581B7
:1021B000C11104C0822F8F710E9458038C2FCF91C0
:1021C000089508950E94E110089508950E94E51071
:1021D0000895E82FF0E0E658FD4F808108950895B6
:1021E00080EA8A95F1F7089500C008950E94F010E2
:1021F0000895F894E82FE295EF70F0E041A18F7018
:1022000021E030E0B90102C0660F771F8A95E2F73E
:10221000CB01962F9095942391A392A1892B82A311
:102220007894089586E60E94F91087E90E94F910D3
:1022300086EC0E94F91081E90E94F91080E90E9461
:10224000F91084E90E94F9100895A0E0B0E0EBE2F3
:10225000F1E10C94D524EC01D62E062F10E0C80134
:1022600084579E4F7C01FC0180818F3F09F444C05C
:10227000F894E82FE295EF70F0E091A18F7021E0E3
:1022800030E001C0220F8A95EAF7892F822B81A3C3
:1022900082A12095282322A378940E94F410A9E813
:1022A000B1E091E0C12C8D918F3F79F0E82FE2955C
:1022B000EF70E05EF0E0208130E08F7002C0359575
:1022C00027958A95E2F7892F20FD80E0C82A990F8B
:1022D000F1E0AC38BF0739F7F70180818F3F11F08B
:1022E0000E94F91061E0C11001C060E08D2D0E94D4
:1022F000F610C00FD11FC882CDB7DEB7E8E00C944E
:10230000F1240E94121183E0EAE7F2E0DF01982F46
:102310001D929A95E9F7E7E7F2E0DF011D928A95B1
:10232000E9F783E00E94D5110E94E2100895A3E02E
:10233000B0E0EDE9F1E10C94D9248E010F5F1F4F5D
:1023400083E0F80111928A95E9F760E0C8010E94E4
:10235000251161E0C8010E94251162E0C8010E94B8
:10236000251143E050E0B80187E792E00E9416256E
:1023700021E0892B81F420E043E06AE772E087E7FF
:1023800092E00E94D611182F0E94E610812F23960A
:10239000E4E00C94F52489819A81AB8180937702E3
:1023A00090937802A0937902E7CF0895A0E0B0E07F
:1023B000ECEDF1E10C94D524D82EE92EF62ED72F92
:1023C000042FC22F211579F081E0809354020E94DE
:1023D000321D909353028093520280E0CDB7DEB756
:1023E000E8E00C94F124C0905402C114B1F3809140
:1023F0005202909153020E94C11C059770F310E0A5
:10240000A8016D2D7E2D8F2D9D2F0E941625892BC5
:1024100041F0A8016D2D7E2D8F2D9D2F0E9423252B
:10242000CC2D109254028C2FD9CF0E944A0E0895C1
:102430000E94CB1C0E94181F0E94080E0E94321F8F
:102440000E943D0E0E943F1F0E94441F0E941512D1
:102450000E945E1F0E94E51D0E941B0EF5CF909307
:102460009F0180939E0108950E940C0D089580E0C5
:102470000E94E910817008950E9497112FEF86E75E
:1024800091E0215080409040E1F700C000000E94A0
:1024900097110E943712811521F00E9434120E9478
:1024A0006E1D08950E943C1208950F931F93CF93C1
:1024B000DF938C01FC01C081D181CE010E942C25CB
:1024C0002196F801D183C083DF91CF911F910F91A5
:1024D000089586E0089550E0440F551F96E0699FE7
:1024E000400D511D112492E1899F400D511D112471
:1024F000CA01889608950F931F93CF93DF93863078
:10250000C8F46330B8F44330A8F40E946B128C0115
:102510000E942C25C82FD0E0DC2FCC27C8010196C3
:102520000E942C259E01282BC901DF91CF911F917C
:102530000F91089580E090E0F8CF0F931F93CF9311
:10254000DF93122F032F863078F4633068F4433022
:1025500058F40E946B12EC01602F0E944A25612FF3
:10256000CE0101960E944A25DF91CF911F910F91D4
:1025700008951F93CF93DF93D0E0C0E011C0412FA7
:102580006C2F8D2F0E94B3029C01412F6C2F8D2F39
:102590000E949D121F5F133091F7CF5FC33011F07F
:1025A00010E0EDCFDF5FD63041F7DF91CF911F9183
:1025B0000895EF92FF920F931F93CF93DF938C01B7
:1025C000EA017A01E60EF71ECE15DF0529F4CDB734
:1025D000DEB7E6E00C94F32480E00C36110520F41D
:1025E000C80188960E942C2589930F5F1F4FECCF5E
:1025F000EF92FF920F931F93CF93DF938C01EA0129
:102600007A01E60EF71ECE15DF0529F4CDB7DEB749
:10261000E6E00C94F3240C36110528F46881C80117
:1026200088960E944A2521960F5F1F4FECCF863077
:1026300038F4633028F4433018F40E947B12089574
:1026400080E090E0089580E108958CE693E008959D
:10265000EF92FF920F931F93CF93DF938C01EA01C8
:102660007A01E60EF71ECE15DF0529F4CDB7DEB7E9
:10267000E6E00C94F3240C3683E0180748F4C80114
:102680008C569F4F0E942C2589930F5F1F4FEBCFD5
:1026900080E0FACFEF92FF920F931F93CF93DF93D7
:1026A0008C01EA017A01E60EF71ECE15DF0529F44A
:1026B000CDB7DEB7E6E00C94F3240C3683E01807C0
:1026C00030F46881C8018C569F4F0E944A2521969C
:1026D0000F5F1F4FEACFCF93DF93C4E9D0E060E0F4
:1026E000CE010E944A252196C11584E0D807B9F78A
:1026F000DF91CF910895A2E0B0E0E1E8F3E10C941E
:10270000D824F82E80E1F816A0F48FEF93E00E9411
:102710002C2581110EC004E910E0F1100EC01A83BF
:10272000098340E0BE016F5F7F4F85E592E10E9423
:10273000C8172296E5E00C94F424011584E01807EC
:10274000C1F3C8010E942C250F5F1F4F8111F5CFE7
:10275000FA94E3CFCF93DF93EB0186319C4719F5D1
:102760000E94E50B9D819115A1F08A7A91E081117B
:1027700001C090E090935502811549F085E30E94D5
:10278000C01B0E949D0C80E0DF91CF91089589E2EB
:10279000F6CF80915502811521F085E30E94DA1B66
:1027A000F0CF89E2FBCF81E0EFCFCF93DF93EC0155
:1027B000FB018581811509F4CFC09E01305723327A
:1027C000310508F0AFC00E942F0D909376028093E0
:1027D0007502FE01E150F047E232F10520F4EB56BC
:1027E000FA4D0C94BE24809175028160809375022D
:1027F00090C0809176028860809376028AC0809132
:1028000075028260F3CF809175028460EFCF809172
:1028100075028860EBCF809176028160EDCF809168
:1028200076028260E9CF809175028061DFCF80916E
:1028300075028062DBCF809175028064D7CF0E94E1
:102840007307809175028068D1CF809175028C608A
:10285000CDCF809176028360CFCF809175028E7F3D
:10286000C5CF80917602877FC7CF809175028D7F1B
:10287000BDCF809175028B7FB9CF80917502877F24
:10288000B5CF809176028E7FB7CF809176028D7F13
:10289000B3CF809175028F7EA9CF809175028F7D15
:1028A000A5CF809175028F7BA1CF0E947307809185
:1028B00075028F779BCF80917502837F97CF809130
:1028C00076028C7F99CF80917502992782FF93952C
:1028D00090FB82F990FB83F989CF80917602982F43
:1028E000909590FB80F990FB81F986CF90917502CD
:1028F000892F8F7B96FF806479CF0E947307909118
:102900007502892F97FB87F9805870CF81E00E946C
:10291000B70D80917502909176020E94340D0E944D
:10292000730780E0DF91CF91089580E0F0CF909120
:102930007502892F8F7E94FF806158CF9091750228
:10294000892F8E7F90FF816051CF90917602892FE1
:10295000877F93FF886050CF81E0E4CF282F35EB4D
:102960002303C001112497FF04C080589109892FC7
:10297000089580589F4FFBCF80915C0280FF0DC06F
:102980006091090170E0660F771F60387105B0F53E
:1029900061157105A9F1862F089581FF07C0609127
:1029A000090184E0689FB0011124EFCF82FF04C0C9
:1029B0006091090188E0F6CF90915B029115D9F002
:1029C0002091080180910901682F70E0921730F082
:1029D00043E0660F771F4A95E1F7D7CF899FC00183
:1029E000112433E0880F991F3A95E1F7622F70E0C8
:1029F0000E94AA24CACF68E070E0CDCF8FE7089587
:102A000081E0089580915C0280FF0CC06091050117
:102A100070E075956795759567956115710549F134
:102A2000862F089581FF06C06091050170E07595BD
:102A30006795F3CF6091050182FD0BC090915A021A
:102A40009115A1F06091040180910501961738F06D
:102A5000682F70E06038710500F38FE70895899F53
:102A6000C001112470E00E94AA24F4CF61E070E05C
:102A7000D7CF81E00895E3E3E80FE331E0F5F0E03C
:102A8000E954FA4D0C94BE240E94BC1481958093A5
:102A9000600208950E94BC14FACF0E94BC14819574
:102AA00080935F0208950E94BC14FACF0E94021521
:102AB0008093610208950E9402158195F9CF0E94CA
:102AC000021581958093620208950E940215FACF43
:102AD000815D990B21E030E001C0220F8A95EAF771
:102AE00080915E02822B80935E02089580915C0249
:102AF000816080935C02089580915C028260F9CFCE
:102B000080915C028460F5CF40915F028D3C59F466
:102B10008091600287FF0DC010926002411559F448
:102B200010925B0208C08E3C81F4809160021816FE
:102B30009CF3411581F08091610290916202892B92
:102B4000811159C010925A0208958F3C41F447FFF9
:102B5000F0CF10925F02809160028115E0CF803D3E
:102B600019F41416B4F3E5CF90916102893D29F46C
:102B70001916FCF610926102DCCF8A3D19F497FF1A
:102B8000D8CFF8CF909162028B3D29F497FFD1CF37
:102B900010926202CECF8C3D19F41916CCF3C9CF36
:102BA0009FE2980F983090F4815D990B21E030E01E
:102BB000B90102C0660F771F8A95E2F7CB018095B5
:102BC00090915E02892380935E02B3CF8D3D31F4F4
:102BD00080915C028E7F80935C02ABCF8E3D21F4AE
:102BE00080915C028D7FF7CF8F3D09F0A2CF80915D
:102BF0005C028B7FF0CF08950E94321D20915F020E
:102C000030916002232B211521F08093580290937C
:102C100059022091610230916202232B211521F08B
:102C200080935602909357028DE592E00E94B41A69
:102C3000089586E0EDE5F2E0DF011D928A95E9F75F
:102C400010925B0210925A0210925C020895FC01ED
:102C5000828181110DC0838181110AC0848181111B
:102C600007C081E09581911101C080E081700895D5
:102C700081E0FCCFA6E0B0E0E0E4F6E10C94D524DE
:102C800086E0EDE5F2E09E012F5F3F4FD901019014
:102C90000D928A95E1F710925F02109260021092F5
:102CA0006102109262028B819C81892B79018115CE
:102CB00089F080915802909159020E94C11C6C01C8
:102CC00080915B028115B9F190910A019C151D0458
:102CD00008F43EC08D819E81892B811591F08091F1
:102CE0005602909157020E94C11C8C0180915A0299
:102CF000811509F45FC0909106019017110608F440
:102D000067C0B7018DE592E00E940E1C811105C0DD
:102D10008DE592E00E94271681110E94FC1586E045
:102D2000F701ADE5B2E001900D928A95E1F72696A4
:102D3000E8E00C94F12420910B019AE0299F900186
:102D400011242C153D0530F68F5F80935B0202C085
:102D50008F3FD1F7DB80D11459F00E94BC1491E071
:102D60001D140CF09FEF899F802D112480935F022A
:102D7000DC80D11459F00E94BC1491E01D140CF0B9
:102D80009FEF899F802D11248093600280915F02C4
:102D9000811509F49FCFD0906002D11409F49ACF25
:102DA0000E94AE1480935F028D2D0E94AE1480931A
:102DB000600290CF209107019AE0299F9001112491
:102DC0002017310708F09DCF8F5F80935A0202C011
:102DD0008F3FD1F71D81111559F00E94021591E026
:102DE00011160CF09FEF899F802D112480936102B2
:102DF0001E81111559F00E94021591E011160CF078
:102E00009FEF899F802D112480936202809161023F
:102E1000811509F476CF10916202111509F471CF72
:102E20000E94AE1480936102812F0E94AE148093A1
:102E3000620267CFDC01ED91FC911197849131968C
:102E4000ED93FC930895A0E0B0E0E9E2F7E10C9483
:102E5000D424E82FF0E0E25EFD4FB490282F2695B1
:102E60002695269530E0F901E254FD4F04918770D4
:102E700010E0082E02C0159507950A94E2F701703C
:102E80001127F901E255FD4FE490F12C082E02C004
:102E9000F594E7940A94E2F7E0FAEE24FF24E0F8D0
:102EA000F901E256FD4FC491D0E002C0D595C79517
:102EB0008A95E2F7C170DD27C62ED12C01151105C8
:102EC00049F5E114F10431F086EE0E948804C60150
:102ED000009771F5B6018B2D0E940305C60100977E
:102EE00079F5E114F104A1F50115110531F081EE38
:102EF0000E94D004C6010097C9F5CD2B31F08CE2B9
:102F00000E941D05C114D104C9F5CDB7DEB7E9E0B3
:102F10000C94F02481EE0E948804C601009789F287
:102F2000EFE9FFE03197F1F700C000000197F6CF1D
:102F3000EFE9FFE03197F1F700C000000197C8CF3B
:102F4000EFE9FFE03197F1F700C000000197C7CF2C
:102F500086EE0E94D004C601009731F2EFE9FFE04F
:102F60003197F1F700C000000197F6CFEFE9FFE0DD
:102F70003197F1F700C000000197BDCF8FE99FE0C6
:102F80000197F1F700C0000091E0C91AD108BACF4B
:102F9000A0E0B0E0EEECF7E10C94D4247C01D62F55
:102FA000172F042F8D2F912FF70109958115B9F057
:102FB000813009F060C08D2F912FF7010995C82F3E
:102FC000813091F48D2F912FF70109950E941D05F5
:102FD000802F90E0009709F046C0C111E3CFCDB734
:102FE000DEB7E9E00C94F024823039F48D2F912F74
:102FF000F70109950E948804EBCF833039F48D2FB7
:10300000912FF70109950E94D004E2CF843001F797
:103010008D2F912FF7010995C82FC12CD12C8AE053
:10302000B82E2C2F2053330BC9012A30310568F0FC
:10303000C114D10469F28FE99FE00197F1F700C054
:10304000000091E0C91AD108F3CFBC9C9001BD9C4F
:10305000300D11246C01C20ED31E8D2F912FF7015C
:103060000995C82FDECFEFE9FFE03197F1F700C0F7
:1030700000000197AFCF602F0E94231793CFA2E0EB
:10308000B0E0E5E4F8E10C94DB24462F9A838983D1
:10309000BE016F5F7F4F8AE197E10E94C8172296B9
:1030A000E2E00C94F7240F931F93CF93DF93C42F88
:1030B000D22FFC0185818115C9F0409365020E94E1
:1030C000321D909364028093630280E28C0F8830FB
:1030D00040F4C77081E001C0880FCA95EAF70E94EA
:1030E0002605DF91CF911F910F91089510916502F0
:1030F000141333C080916302909164020E94C11C3A
:10310000883C910550F5C0E2CD0F1D17C1F080E25B
:10311000810F883040F4177081E001C0880F1A9544
:10312000EAF70E942D05C83050F491E08D2F87708A
:1031300001C0990F8A95EAF7892F0E942605802FF2
:103140000E941D05C83068F6D77081E001C0880F65
:10315000DA95EAF70E942D05C4CF80E28C0F883003
:1031600008F0BFCFC77081E001C0880FCA95EAF7A9
:10317000F1CF0F93DB01FC01E851FC47E730F1058B
:1031800098F5E653FA4D0C94BE2406E221EE41EE8A
:103190006AE17CE7CD010E94531880E00F91089509
:1031A00007E225EE45EE6BE17CE7F4CF06E221EE87
:1031B00040EE68E17CE7EECF07E225EE44EE69E100
:1031C0007CE7E8CF06E221EE42EE6CE17CE7E2CF5D
:1031D00007E225EE46EE6DE17CE7DCCF08E221E078
:1031E00045EE6EE17CE7D6CF15968C918111109259
:1031F000650281E0D3CFCF93DF939C01FB0127379A
:103200008CE7380739F028373C47F1F081E0DF914F
:10321000CF9108958581811591F00E942D190E940A
:10322000F4070E943319D82F0E943019C82F0E942A
:103230002D194D2F6C2F0E942A0980E0E8CF0E94A3
:103240002D190E940008EDCF8581811519F00E948B
:103250003019E5CF0E943019F4CF80910E01089506
:1032600080910D01089580910C01089584E290E011
:103270000E942C25853289F485E290E00E942C255D
:10328000853059F486E290E00E942C2591E082314D
:1032900009F090E0892F8170089580E0FCCFCF93F2
:1032A000C82F65E2811101C06FEF84E290E00E94B7
:1032B0004A2565E0C11101C06FEF85E290E00E94F0
:1032C0004A2562E1C11101C06FEF86E290E00E94E1
:1032D0004A25CF910895089587E290E00E942C2519
:1032E000682F70E080E090E008950895CF93C62F96
:1032F0000E9475196C2F87E290E00E944A25CF91B9
:10330000089580E00E944F1960E070E0CB010E94B8
:1033100076190E94B9120E946B1381E00E944F1926
:1033200008950E946B190E946C190E9475190E94E1
:103330003619811102C00E948119089508959C01D7
:10334000FB018581811551F0A9015757403851057E
:1033500030F4822F0E947B1380E0089581E008956D
:103360002FEFFC01208308950E94B019089580E09A
:103370000895CF92DF92FF920F931F93CF93DF9325
:10338000EC01F62E0E94B719811110C0E881E150BE
:10339000E331E0F4F0E0EF52FA4D0C94BE241982D0
:1033A0008CE08A836F2DCE010E94DB1DDF91CF91CF
:1033B0001F910F91FF90DF90CF9008958981833006
:1033C000F9F038F4813061F0823099F08FEF888322
:1033D000E9CF8430D9F71A821B821C821D82E2CF8A
:1033E0000E943E1D0E94C4246A837B838C839D833C
:1033F000D9CF0E946C191A821B821C826D83D2CF96
:103400000A8110E06E0183E0C80ED11C0330110563
:103410004CF6802F0E94E910F60181936F010F5F37
:103420001F4FF4CF8981823031F0853079F68A815F
:103430000E949E19B7CF6A817B818C819D810E94F9
:10344000C4240E947619AECF4B816A8189810E9483
:103450007B129827892798279D838C83A3CF2C8163
:103460003D813227232732274B816A8189810E943F
:103470009D1298CF0E94B91295CF6F2DCE010E9458
:10348000B41990CF0E94231389838CCF0E942513F7
:103490009827892798279A83898384CF6B8170E046
:1034A00089819A81AE014C5F5F4F982789279827C1
:1034B0000E94281377CF6B8170E089819A81AE01D9
:1034C0004C5F5F4F9827892798270E944A136ACF3D
:1034D0000E946B1367CF0E946912D6CF6B8170E098
:1034E00089819A81AE014C5F5F4F98278927982781
:1034F0000E94D91257CF6B8170E089819A81AE0109
:103500004C5F5F4F9827892798270E94F8124ACF6F
:1035100090936B0280936A020895E0916A02F091A1
:103520006B02309729F00190F081E02D0995089504
:1035300080E00895E0916A02F0916B02309721F0EB
:103540000280F381E02D09950895DC01E0916A0283
:10355000F0916B02309739F086E08C930480F5810E
:10356000E02DCD0109950895DC01E0916A02F0910A
:103570006B02309739F082E08C930680F781E02D62
:10358000CD0109950895A3E0B0E0E9ECFAE10C94CF
:10359000DB249C0180916802909169028217930755
:1035A000A1F03093690220936802E0916A02F091E1
:1035B0006B02309751F083E089833B832A83008438
:1035C000F185E02DCE01019609952396E2E00C9459
:1035D000F724A3E0B0E0EFEEFAE10C94DB249C01C9
:1035E000809166029091670282179307A1F0309351
:1035F000670220936602E0916A02F0916B023097B5
:1036000051F084E089833B832A830084F185E02D97
:10361000CE01019609952396E2E00C94F724CF930E
:10362000DF93C0910201D091030122960E94801C79
:10363000813081F48091750287FF0CC0C091000138
:10364000D091010122969EE180E0915028F4DF9113
:10365000CF91089596E0F8CF29912115B1F38F5FAE
:10366000F4CFCF93C82F811102C080E031C00E94F7
:10367000801C813021F48091750287FD0EC08091FD
:10368000020190910301FC013296089621912C17BA
:1036900009F1E817F907D1F7E8CF8C2F86958695C1
:1036A0008695C03F10F7E0910001F0910101E80F0D
:1036B000F11D228130E0C77081E090E002C0880FE8
:1036C000991FCA95E2F72823392381E0232B69F259
:1036D000CF91089581E0FCCF9C01FC0132968FEFE1
:1036E00090E04191461751F08F3F19F4411101C00C
:1036F000892F9F5F9630A9F78F3F09F40895280F0F
:10370000311D87FD3A95F901628308959C01FC0102
:103710003296285F3F4F8191861302C0DF011E92CF
:10372000E217F307C1F70895FC01862F8695869569
:103730008695603F60F4E80FF11D677021E030E08E
:1037400001C0220F6A95EAF78281822B8283089555
:10375000FC01862F869586958695603F80F4E80F5C
:10376000F11D677081E090E09C0102C0220F331FC1
:103770006A95E2F7B90160958281682362830895B2
:10378000CF93C82F0E94801C6C2F813061F48091F0
:10379000750287FF08C080910001909101010E948D
:1037A000941BCF91089580910201909103010E9492
:1037B0006C1BF7CFCF93C82F0E94801C6C2F8130D9
:1037C00061F48091750287FF08C08091000190919B
:1037D00001010E94A81BCF91089580910201909150
:1037E00003010E94861BF7CF0E94801C813079F470
:1037F0008091750287FF0BC0E0910001F0910101FB
:1038000032968EE1DF011D928A95E9F70895E091E5
:103810000201F0910301329686E0F4CFDC01FB0156
:1038200011969C9111978181981322C012968C91C8
:103830001297811519F0928189131AC013968C91F1
:103840001397811519F09381891312C015968C91E5
:103850001597811519F0958189130AC014969C91CA
:10386000911521F081E02481291303C080E001C07B
:1038700081E08170089508950E943B1C08958F5F38
:103880008093120160910F017091100180911101DC
:10389000909112010E943C1C089583E080931201D4
:1038A00060910F01709110018091110190911201AE
:1038B0000E943C1C08950E943F1C089581E0809363
:1038C000120160910F01709110018091110190918E
:1038D00012010E943C1C08950E945E1C089591E014
:1038E000811101C090E09093110160910F017091DE
:1038F000100180911101909112010E943C1C0895C9
:103900008091110108958093100160910F017091D1
:10391000100180911101909112010E943C1C0895A8
:1039200080911001089580930F0160910F017091B3
:10393000100180911101909112010E943C1C089588
:1039400080910F010895089508950E94A41C089580
:10395000089508950E94A31C0895CF930E94A81C67
:103960000E9497110E94A91CC0E08C2F0E94E910B0
:10397000811105C0CF5FC330C1F7CF91089581E0B9
:10398000FCCFCF93DF93EC010E94321D8C1B9D0B6B
:10399000DF91CF91089585B7806885BF85B780682E
:1039A00085BF08951F921FB61F9211248F939F9376
:1039B000AF93BF9380916C02811113C080917D02FF
:1039C00090917E02A0917F02B09180024196A11D4C
:1039D000B11D80937D0290937E02A0937F02B093ED
:1039E0008002BF91AF919F918F911F901FBE1F903A
:1039F000189580918502843031F10E94FF03109266
:103A00006C0288E190E020E40FB6F894A8958093CA
:103A100060000FBE2093600083B7817F846083BF06
:103A200083B7816083BF7894889583B78E7F83BF87
:103A30000FB6F894A895809160008861809360002B
:103A4000109260000FBE08950E9473070E94060442
:103A5000089582E084BD93E095BD9AEF97BD809371
:103A60006E0008952FB7F89480917D0290917E02A8
:103A7000A0917F02B09180022FBF08952FB7F894D4
:103A800060917D0270917E0280917F029091800210
:103A90002FBF089578941F921FB61F9211248F9301
:103AA0009F93AF93BF9380917D0290917E02A091EE
:103AB0007F02B09180020196A11DB11D80937D020D
:103AC00090937E02A0937F02B0938002BF91AF914A
:103AD0009F918F911F901FBE1F90189587E797E7C2
:103AE000909301088093000888E19AE00FB6F8945B
:103AF000A895809360000FBE90936000FFCF88E18F
:103B00009AE00FB6F894A895809360000FBE90934A
:103B10006000FFCF282FCB01BA01309185023430ED
:103B2000D9F42F702093E9002FEF3091E80035FD94
:103B300006C035ED3A95F1F700002A95B1F72091CE
:103B4000E80025FF09C040E050E00E94D41F8091AA
:103B5000E8008E778093E8000895BC0143E050E0D0
:103B600084E00E948A1D0895BC0146E050E084E094
:103B70000E948A1D0895BC0140E250E084E00E944A
:103B80008A1D0895CF93DF93D82FC92F0E94801CE0
:103B900048E050E06D2F7C2F81E00E948A1D88E074
:103BA000ED2FFC2FADE6B2E001900D928A95E1F782
:103BB000DF91CF910895792F603231F440E250E0E7
:103BC000682F82E00E948A1D0895A0E2B0E0EBEE2B
:103BD000FDE10C94DB2480918502843009F583E0BB
:103BE0008093E9008091E80082FF1AC08091E8008C
:103BF00090E085FF09C040E050E060E270E0CE0157
:103C000001960E94242091E08091E8008B778093B8
:103C1000E800911529F060E2CE0101960E94B919E1
:103C2000A096E2E00C94F72480918402811109C0EF
:103C30000E94AD210E940A228091E200846080935C
:103C4000E20008951092840208950E945E1C81E0B3
:103C50000E946F1C08956091810281E0611101C092
:103C600080E00E944D1C08959091850281E094307F
:103C700009F080E0609181020E945B1C089542E09F
:103C800061EC81E00E94292142E261EC84E00E9423
:103C9000292142E261EC82E00E94292142E260ECAB
:103CA00083E00E9429219091850281E0943009F0FF
:103CB00080E0609181020E943F1C089580918702FC
:103CC000893089F148F4823009F4A1C0833009F4C5
:103CD0005BC0813041F008958A3009F488C08B3090
:103CE00009F46DC0089580918602813A09F04BC0B5
:103CF0008091E800877F8093E80080918A0290910C
:103D00008B02892B61F060E080E090E070E00E941F
:103D100074208091E8008B778093E800089568E034
:103D20008DE692E0F3CF80918602813261F5809139
:103D30008A0290918B028D7F892B29F58091E80072
:103D4000877F8093E8008091E80082FF18C09091FF
:103D5000F3008091F200029731F48091F1008130FC
:103D600011F0863021F48091F1000E94831C809133
:103D7000E8008B778093E8000E945D210895809190
:103D800085028111E0CF089580918602813AD9F7AA
:103D900080918A0290918B02892BA9F78091E8008B
:103DA000877F8093E8008091E80080FFFCCF0E942D
:103DB000801C8093F1008091E8008E77DBCF8091AA
:103DC0008602813201F780918A0290918B02892BC1
:103DD000D1F68091E800877F8093E8000E945D2102
:103DE000809188020E946F1C0E9473070895809141
:103DF0008602813241F68091E800877F8093E80057
:103E00000E945D21809189020E94931C08958091F7
:103E10008602813A09F0B7CF8091E800877F8093CE
:103E2000E8008091E80080FFFCCF0E94A01CC1CF79
:103E300084B7877F84BF0FB6F894A89580916000FF
:103E4000886180936000109260000FBE80E890E06F
:103E50000FB6F89480936100909361000FBE0E94AA
:103E60006C1C08950E94AD210E940A22E2EEF0E04F
:103E700080818460808378940E949024089583E1F7
:103E800091E00E94881A089580918502853031F46E
:103E900080918502853019F00E94241D08950E94AA
:103EA000F91C0E94AD1C811599F380918302811544
:103EB00079F30E94BE1F0E947307EACF08959A010A
:103EC00040918C0250918D020E94671F0895FC0161
:103ED000AB01D901892F992783309105C1F068F48E
:103EE0008130910509F445C0029761F48BE590E0BB
:103EF00022E133E02D933C93089581329105E1F066
:103F0000829739F180E090E020E030E0F3CFCF01FC
:103F10009927E13059F08230910559F0EEE0F3E055
:103F2000892B81F7849190E09F01E4CFEEEEF2E0DF
:103F3000F9CFEEECF2E0F6CF6330710518F7FB0134
:103F4000EE0FFF1FE856FE4F2081318189E090E09F
:103F5000D1CF63307105B0F6FB01EE0FFF1FEE56B7
:103F6000FE4F2081318141575E4FFA01808190E000
:103F7000C1CF82E190E02DE633E0BCCF80E189BD86
:103F800082E189BD09B400FEFDCF8091D8008F7D0C
:103F90008093D8008091E00082608093E00080915F
:103FA000E00081FDFCCF0895AF92BF92CF92DF92E7
:103FB000EF92FF920F931F93CF936C018B017A01C5
:103FC0000E947C21C82F811123C0E114F10439F033
:103FD000F70180819181081B190BC80ED91EA12CF5
:103FE000B12C01151105A1F08091E80085FD21C0DB
:103FF0008091E8008E778093E800E114F10499F055
:10400000F701808191818A0D9B1D91838083C5E09A
:104010008C2FCF911F910F91FF90EF90DF90CF9059
:10402000BF90AF9008950E947C218115E9F2C82FBE
:10403000EFCFF60181916F018093F10001501109DA
:10404000FFEFAF1ABF0ACDCFAF92BF92CF92DF92F0
:10405000EF92FF920F931F93CF936C018B017A0124
:104060000E947C21C82F811123C0E114F10439F092
:10407000F70180819181081B190BC80ED91EA12C54
:10408000B12C01151105A1F08091E80085FD21C03A
:104090008091E8008B778093E800E114F10499F0B7
:1040A000F701808191818A0D9B1D91838083C5E0FA
:1040B0008C2FCF911F910F91FF90EF90DF90CF90B9
:1040C000BF90AF9008950E947C218115E9F2C82F1E
:1040D000EFCF8091F100F60181936F01015011093A
:1040E000FFEFAF1ABF0ACDCFFC019B0180918C027C
:1040F00090918D028617970718F0672B61F0C90120
:1041000040E0009771F441110CC08091E80082FFFB
:1041100035C080E008958091E8008E778093E800B4
:10412000EECF209185022115A9F12530A9F120912A
:10413000E80023FD2DC02091E80022FDE6CF20916C
:10414000E80020FFDECF3091F3002091F2000097CD
:1041500019F02830310558F041E02830310509F0D8
:1041600040E02091E8002E772093E800CACF4191EB
:104170004093F10001972F5F3F4FE9CF8091850277
:10418000811541F0853041F08091E80083FFBDCF7B
:1041900081E0089582E0089583E00895FC019B0189
:1041A00080918C0290918D028617970718F0672BEB
:1041B00061F0C90140E0009771F441110CC0809199
:1041C000E80082FF36C080E008958091E8008E7795
:1041D0008093E800EECF209185022115B1F12530C2
:1041E000B1F12091E80023FD2EC02091E80022FDCE
:1041F000E6CF2091E80020FFDECF3091F300209140
:10420000F200009719F02830310558F041E02830CD
:10421000310509F040E02091E8002E772093E80076
:10422000CACF44914093F100319601972F5F3F4FE1
:10423000E8CF80918502811541F0853041F0809171
:10424000E80083FFBCCF81E0089582E0089583E019
:104250000895982F973028F08F708093E90081E0BF
:1042600008959093E900242F762F50E0981731F0AD
:104270007091EC002091ED005091F00021FD02C002
:104280009F5FE8CF3091EB003E7F3093EB003091A1
:10429000ED003D7F3093ED003091EB0031603093C5
:1042A000EB007093EC002093ED005093F000209110
:1042B000EE0027FDE5CF80E008958091860287FF1C
:1042C00013C08091E80082FF06C08091E8008B77E0
:1042D0008093E8000895809185028111F2CF0895BE
:1042E000809185028115D9F38091E80080FFF8CF95
:1042F0008091E8008E77ECCF2091E4003091E500CA
:1043000095E6A9012091EC00822F817020FF06C064
:104310008091E80080FF06C080E008952091E800C9
:1043200022FD1AC080918502811589F0853089F0BF
:104330008091EB0085FD0FC02091E4003091E500F5
:1043400042175307F9F29A95E1F684E0089582E066
:10435000089583E0089581E008950E941C220E9440
:104360002422E0EEF0E0808181608083E8EDF0E0DF
:1043700080818F77808319BCA7EDB0E08C918E7F10
:104380008C9380818F7E80831092840208950F9396
:104390001F93CF93DF930E941C220E942422C8ED1A
:1043A000D0E088818F77888388818068888388813E
:1043B0008F7D888319BC1092850210928102109221
:1043C00083021092820200EE10E0F80180818B7F60
:1043D000808388818160888342E060E080E00E9481
:1043E0002921E1EEF0E080818E7F8083E2EEF0E033
:1043F000808181608083808188608083F8018081F2
:104400008E7F8083888180618883DF91CF911F9127
:104410000F910895E8EDF0E080818F7E8083E7EDD5
:10442000F0E080818160808384E082BF81E08093BE
:1044300084020E94C7210895E8EDF0E080818E7F1C
:1044400080831092E20008951092DA001092E10049
:1044500008951F920F920FB60F9211242F933F933E
:104460004F935F936F937F938F939F93AF93BF937C
:10447000EF93FF938091E10082FF0BC08091E200F7
:1044800082FF07C08091E1008B7F8093E1000E9452
:104490008F248091DA0080FF19C08091D80080FFBE
:1044A00015C08091DA008E7F8093DA008091D90068
:1044B00080FF94C080E189BD82E189BD09B400FE1E
:1044C000FDCF81E0809385020E94141E8091E1005F
:1044D00080FF19C08091E20080FF15C08091E2004A
:1044E0008E7F8093E2008091E20080618093E20001
:1044F0008091D80080628093D80019BC85E08093B9
:1045000085020E942B1E8091E10084FF29C08091CA
:10451000E20084FF25C080E189BD82E189BD09B444
:1045200000FEFDCF8091D8008F7D8093D8008091D0
:10453000E1008F7E8093E1008091E2008F7E809386
:10454000E2008091E20081608093E200809181022C
:10455000811509F449C084E0809385020E94341ECD
:104560008091E10083FF29C08091E20083FF25C094
:104570008091E100877F8093E10082E08093850253
:10458000109281028091E1008E7F8093E100809102
:10459000E2008E7F8093E2008091E2008061809350
:1045A000E20042E060E080E00E9429218091F0007A
:1045B00088608093F0000E94251EFF91EF91BF91CB
:1045C000AF919F918F917F916F915F914F913F91AB
:1045D0002F910F900FBE0F901F90189519BC10923D
:1045E00085020E94221E72CF8091E30087FF02C0E5
:1045F00083E0B2CF81E0B0CF1F920F920FB60F923F
:104600001124EF92FF920F931F932F933F934F9399
:104610005F936F937F938F939F93AF93BF93CF934A
:10462000EF93FF9309EE10E0F8018081C091EC0058
:104630008F70C795CC27C795C82B108280EFE82EC6
:10464000F12CF7018081877F808378940E94472333
:10465000F8011082F701808188608083CF70F801B3
:10466000C083FF91EF91CF91BF91AF919F918F91B7
:104670007F916F915F914F913F912F911F910F917A
:10468000FF90EF900F900FBE0F901F901895AAE229
:10469000B0E0EDE4F3E20C94D92486E892E0FC016A
:1046A00001962091F100208322E08E389207B9F71D
:1046B0000E945E1E8091E80083FF38C080918602D0
:1046C000909187029A3090F5E92FF0E0EC51FA4D85
:1046D0000C94BE24803889F0823841F580918A029A
:1046E0008F70873018F58093E9008091EB0085FB8F
:1046F000882780F91092E90006C080918302880F14
:1047000090918202892B9091E800977F9093E80026
:104710008093F1001092F1008091E8008E7723C021
:10472000811116C080918802813011F18091E800DA
:1047300083FF0AC08091E800877F8093E800809122
:10474000EB0080628093EB00AA96E4E00C94F524E1
:10475000823061F780918802811589F01092E9001A
:104760008091E800877F8093E8000E945D21DECF82
:1047700081E0933009F080E080938302EFCF809155
:104780008A028F702FEF280F263080F68093E90081
:104790002091EB0020FFE2CF933031F48091EB00C9
:1047A00080628093EB00DACF9091EB009061909360
:1047B000EB0021E030E0A90102C0440F551F8A95AB
:1047C000E2F74093EA001092EA008091EB008860E3
:1047D000E8CF8111ABCF109188021F778091E30061
:1047E0008078812B8093E3008091E800877F80931D
:1047F000E8000E945D218091E80080FFFCCF80915D
:10480000E30080688093E30083E0111101C082E03F
:10481000809385028BCF8058823008F087CF8091BB
:104820008802909189028C3D53E0950799F583E0C9
:104830008A838AE289834FB7F894DE01139620E0D9
:104840003EE051E2E32FF0E050935700849120FFC7
:1048500003C082958F703F5F8F708A30C8F0895C8B
:1048600090E08D939D932F5F243161F74FBF80912E
:10487000E800877F8093E8006AE270E0CE0101964D
:104880000E9474208091E8008B778093E8004ECFDF
:10489000805DE6CF60918A0270918B02AE014F5F1E
:1048A0005F4F0E945F1F8C01892B09F43FCF8091DD
:1048B000E800877F8093E800B80189819A810E948F
:1048C000CE20E0CF803809F031CF8091E800877F9B
:1048D0008093E800809181028093F1001DCF8111C7
:1048E00025CF90918802923008F020CF8091E80087
:1048F000877F8093E800909381020E945D218091E0
:104900008102811531F084E0809385020E943F1E70
:104910000DCF8091E30087FDF6CF81E0F5CF0895BC
:10492000CF9380918502811599F08091E900C09123
:10493000EC008F70C795CC27C795C82B1092E90063
:104940008091E80083FD0E944723CF70C093E90067
:10495000CF91089597FB072E16F4009407D077FDAA
:1049600009D00E94022507FC05D03EF49095819560
:104970009F4F0895709561957F4F0895EE0FFF1F2B
:104980000590F491E02D09946927962769277827E7
:104990008727782708952F923F924F925F926F92C8
:1049A0007F928F929F92AF92BF92CF92DF92EF92BF
:1049B000FF920F931F93CF93DF93CDB7DEB7CA1B40
:1049C000DB0B0FB6F894DEBF0FBECDBF09942A886B
:1049D000398848885F846E847D848C849B84AA8413
:1049E000B984C884DF80EE80FD800C811B81AA81A0
:1049F000B981CE0FD11D0FB6F894DEBF0FBECDBF6B
:104A0000ED010895AA1BBB1B51E107C0AA1FBB1FE4
:104A1000A617B70710F0A61BB70B881F991F5A954A
:104A2000A9F780959095BC01CD010895FB01DC01AB
:104A300004C08D910190801921F441505040C8F775
:104A4000881B990B0895FB01DC0102C001900D92B7
:104A500041505040D8F70895F999FECF92BD81BDDD
:104A6000F89A992780B50895A8E1B0E042E050E0B7
:104A70000C947025DC01A40FB51F4150504048F044
:104A8000CB01840F951F2E910E944B254150504021
:104A9000D0F70895262FF999FECF92BD81BDF89ADF
:104AA000019700B4021639F01FBA20BD0FB6F89472
:104AB000FA9AF99A0FBE08950396272F0E944B2564
:104AC0000E944A25252F0E944B25242F0C944B250C
:104AD0000196272F0E944B250C944A25DC01CB011F
:104AE000FC01F999FECF06C0F2BDE1BDF89A3196FE
:104AF00000B40D9241505040B8F70895F894FFCF9C
:104B00008302890295028F027A029B02A102A70208
:104B1000AD0272057205B605B6051A063706A1057F
:104B2000A1053C06AD06BE06BE062D149E14351426
:104B3000FF130314391407143D1449141314971464
:104B400017144D141B14511476141F1455147D148E
:104B500025145B1463140B1441140F144514291409
:104B60005F146D1486149514F9133114A5144415AB
:104B70004A154D155315681568156815681568159B
:104B800068156815681556155B155F15651576155A
:104B90007C158015D618DC18C518D018E218E8184E
:104BA000EE18CF19DE19121A241A2F1A3A1A3D1AC2
:104BB0003D1A3D1AE619E619421A461A4E1A5B1AB0
:104BC000681A6B1A6E1A7B1A6A2390239623902315
:0C4BD0009623E9230B24962362246F2413
:104BDC001A023A02280850011E0A140103020100AD
:104BEC00000100901CC21DBB1DB41DAD1DE200E9EF
:104BFC0000EA00B500B600B700CD008301CC008AF6
:104C0C00019201940121022302240225022602278B
:104C1C00022A02B300B4006F0070009F01CB019F09
:104C2C0002A002E200E900EA00B500B600B700CD30
:104C3C00008301CC008A01920194012102230224F9
:104C4C00022502260227022A02B300B4006F00706C
:104C5C00009F01CB019F02A0029190946697C644DD
:0E4C6C0022B657047F03A10324033D035D031A
:00000001FF
