:100000000C948D010C94AA010C94AA010C94AA01E1
:100010000C94AA010C94AA010C94AA010C94AA01B4
:100020000C94AA010C94AA010C94C41D0C94971E64
:100030000C9400190C94AA010C94AA010C94AA0126
:100040000C94AA010C94AA010C94AA010C94AA0184
:100050000C94AA010C9478190C94AA010C94AA018E
:100060000C94AA010C94AA010C94AA010C94AA0164
:100070000C94AA010C94AA010C94AA010C94AA0154
:100080000C94AA010C94AA010C94AA010C94AA0144
:100090000C94AA010C94AA010C94AA010C94AA0134
:1000A0000C94AA010C94AA010C94AA010102E0018B
:1000B000011901043130307C0103E0000102E0014C
:1000C000010601043130307C0103E0000000010032
:1000D000200021002200230024002500260000002B
:1000E0000000000000002A2B280000000000000093
:1000F00000000000000000000029000000002C1E8D
:100100003420212224342627252E362D3738271E49
:100110001F202122232425263333362E37381F046F
:1001200005060708090A0B0C0D0E0F101112131407
:1001300015161718191A1B1C1D2F3130232D3504C5
:1001400005060708090A0B0C0D0E0F1011121314E7
:1001500015161718191A1B1C1D2F3130354C0000AD
:10016000000000000000000000000000000000008F
:10017000000000000000000000000000000000007F
:1001800000007E0F00D4FFFFFFC7000000781E03B1
:10019000700072006F006A006500630074005F0009
:1001A0006B00650079005F007600320000001E03DE
:1001B000530061006B007300680061006D005F0018
:1001C0005400680061006B007500720000000403B9
:1001D000090409023B00020100A0FA090400000121
:1001E00003010100092111010001224400070581DA
:1001F00003080001090401000103000000092111A6
:1002000001000122B600070582032000011201004F
:1002100002000000084B534B500001010200010591
:10022000010902A10185020901A10005091901299D
:10023000081500250195087501810205010930099D
:10024000311581257F9502750881060938158125AC
:100250007F950175088106050C0A38021581257FF6
:10026000950175088106C0C005010980A1018503BB
:1002700019012AB700150126B700950175108100F4
:10028000C0050C0901A101850419012AA00215016C
:1002900026A002950175108100C005010906A10183
:1002A0008506050719E029E7150025019508750160
:1002B00081020507190029EF1500250195F0750148
:1002C000810205081901290595057501910295011D
:1002D00075039101C005010906A101050719E0296F
:1002E000E7150025019508750181029501750881C2
:1002F000010507190029FF150026FF00950675085E
:1003000081000508190129051500250195057501CC
:100310009102950175039101C00011241FBECFEF1A
:10032000DAE0DEBFCDBF11E0A0E0B1E0ECECF2E43A
:1003300002C005900D92AC38B107D9F722E0ACE8C5
:10034000B1E001C01D92A038B207E1F70E942A1166
:100350000C9412210C940000FB01009721F00197EE
:1003600059F081E0089585818115D9F360E08CEB27
:1003700090E00E94FA15F5CF8581811591F360E038
:100380008CEA90E0F6CF811113C0633088F44330DB
:1003900078F470E0FB01EE0FFF1FE60FF71FE40F8C
:1003A000F11DEE0FFF1FE453FF4F859194910895C7
:1003B00081E090E008950E94C301089581E00895CE
:1003C00081E008950E94DE01089581E0089581E0B2
:1003D00008950E94AC010895089508950E94EC01CB
:1003E000089508950895A6E0B0E0E9EFF1E00C94D7
:1003F0006E2049835A839E833091930189819A812B
:1004000031111AC03E81311599F0211589F00E94F1
:10041000E007182F682F89819A810E94B7076981A8
:100420007A81812F0E94DE0E2696E3E00C948A20CA
:100430000E94CB07182FF3CF0E94E00769817A81D1
:10044000F1CFFC01262F408151816281738184812B
:1004500095810E94F3010895CF93DF93D82FC92F80
:1004600061E00E9421026D2F7C2F0E94E001811526
:1004700049F061E08D2F9C2F0E9421026D2F7C2F6F
:100480000E94E201DF91CF9108950F931F93CF93C4
:10049000DF93D82FC92F60E00E9421028C016D2FBD
:1004A0007C2F0E94ED016D2F7C2FC8010E94EE0170
:1004B000DF91CF911F910F91089521E030E0A901C4
:1004C00002C0440F551F8A95E2F7CA010E94D9065F
:1004D0000895CF93C82F81E090E00C2E02C0880FC2
:1004E000991F0A94E2F70E943D0C8C2F0E945D0236
:1004F000CF91089581E0089581E008950E947A02E5
:100500000895CF93C82F0E9483068C2F0E947C02EF
:100510008C2F0E947E022FEF84E39CE021508040CC
:100520009040E1F700C00000CF91089581E00E9463
:1005300081020E949C19089580E00E9481020E941D
:10054000AD1908950F931F93CF93DF938C0161E052
:100550000E942102EC01B8010E94E701811509F413
:1005600042C0B801CE010E94E9018115E1F1B80154
:10057000CE010E9474168115B1F1B801CE010E941E
:100580009011811581F1B801CE010E94651181158C
:1005900051F1B801CE010E94E10F811521F1F8015E
:1005A0008581811581F0CA35FCE7DF0739F178F4E0
:1005B000C130ECE7DE07F9F0C330FCE7DF07C9F034
:1005C000C115DC4771F0C8010E94E5010DC0CB35B3
:1005D000ECE7DE07B1F0CC35DC47A9F70E940F0C41
:1005E000F2CF0E94960280E0DF91CF911F910F9190
:1005F00008950E94200C0E949C02F5CF0E94180CC6
:10060000E2CF0E941C0CDFCF0E94F1010E94D318A0
:100610000E94280308950E942C030E94F2010E9468
:10062000D818089581E008950895CF93DF93D82FC7
:100630000E941203C82F811519F08D2F0E941403F8
:100640008C2FDF91CF91089508950E94150308958E
:1006500080E00E94250308950E94BB160E94250396
:100660000895CF930E94BB16C82F80918E018C17DE
:1006700079F0C0938E010E946C1960938F01709382
:10068000900180939101909392018C2F0E942503F9
:10069000CF910895ADE0B0E0E0E5F3E00C946F2079
:1006A000488759876A877B878C879D8791110E942D
:1006B0001B0B1F8286E0FE013896DE011196019029
:1006C0000D928A95E1F78D8181110DC029813A81C2
:1006D0004B815C816D817E818F810E94650A2D96A0
:1006E000E2E00C948B20CE0101960E942C02811135
:1006F000EDCFF5CFFC018481813021F4808191819F
:100700000E9412080895611529F00E94F6120E94B5
:10071000B71308950E943F13FACFCF93C82F8115C6
:1007200099F08CEF8C0F813A88F48C2F0E945F1720
:10073000811529F08C2F0E9408180E94B10B8C2F74
:100740000E94EE170E94B10BCF91089580E28C0FAA
:10075000883048F4C77081E001C0880FCA95EAF775
:100760000E94FC0AEFCF8BE58C0F833038F42C2FDE
:100770002452330BC9010E94F116E6CFE8E5EC0FD5
:10078000EB3150F4F0E0EE0FFF1FE65EFE4F80818C
:1007900091810E941717D8CF83E38C0F8331A0F685
:1007A00061E08C2F0E948303CFCF811581F19CEFF4
:1007B000980F913A28F40E9408180E94B10B0895EE
:1007C00090E2980F983050F4877091E001C0990F33
:1007D0008A95EAF7892F0E94020BEFCF9BE5980FCD
:1007E000933028F480E090E00E94F116089598E597
:1007F000980F9B3128F480E090E00E94171708952D
:1008000093E3980F933118F460E00E9483030895F6
:100810000F931F93CF93C82F8B010E948D03011557
:10082000110539F48C2F0E94D503CF911F910F91A0
:1008300008958FE99FE00197F1F700C00000015093
:100840001109EDCF60E570E0893311F060E070E0F0
:100850000E9408040895811521F00E94FC0A0E945C
:10086000B10B0895811521F00E94020B0E94B10B7B
:100870000895A0E0B0E0EFE3F4E00C9469206C018F
:10088000D62FC72FFC011581068102950F700E949B
:10089000F10AE82E8115F9F0E12E1115E1F08C2F07
:1008A000807F803461F080E28D0F8830F0F08C2FF3
:1008B000807E803221F4D230C0F00115B1F08091F9
:1008C000680282FF12C082E00E94E20B0E94F10ADD
:1008D00091E0E82EE926EC2FE295EF70C03CB0F5F0
:1008E000F0E0EC5EFE4D0C945920E12CF4CF0C2F7F
:1008F0000F70C03110F00295007F111599F00115AD
:1009000059F080E28D0F883010F0D11107C0802F90
:100910000E94FC0A0E94B10B8D2F4EC0802F0E94B6
:100920000D0BF8CF8D2F0E94D503011579F080E2D1
:100930008D0F883010F0D11104C0802F0E94020B5F
:1009400003C0802F0E94130B0E94B10BE11409F425
:10095000CBC00E94ED0A80FDC7C0F60115820E943F
:10096000E70A0E941507C6010E944A060E94E70A8C
:100970000E942507B9C0FC2FFF70FF2EC07FC03238
:1009800019F0F29480EFF822D11541F0D130C9F17D
:10099000111509F443C00115E9F0BECF809168023A
:1009A00082FD14C0111559F0F11429F08F2D0E9409
:1009B000FC0A0E94B10B80E00E948D03C7CF80E04B
:1009C0000E94D503F11411F28F2DB8CF111569F0E3
:1009D000011104C08F2D0E942B04B8CF013009F003
:1009E000B5CF8F2D0E94330BB1CF0111AFCF8F2D1B
:1009F0000E9432048F2D0E943F0B8F2D0E94220BEC
:100A0000A5CF111521F0063008F0A0CFE3CF0530B7
:100A100008F09CCF8F2D0E94320498CF0115D1F39E
:100A2000D93349F42FEF87EE93E021508040904076
:100A3000E1F700C000008D2F0E94D50387CF8C2FD7
:100A4000869586958370811569F0813009F07ECF97
:100A50008D2F9C2F9370111102C080E090E00E94B6
:100A6000171774CF8D2F9C2F9370111102C080E047
:100A700090E00E94F1166ACF612F8D2F0E948303B0
:100A800065CF8C2F837081113DC0111129C04D2F6E
:100A9000429546954770440F440F2D2F2F7030E03C
:100AA000042E02C0220F331F0A94E2F780E090E088
:100AB000D4FF09C08FE090E002C0880F991F4A95CB
:100AC000E2F780959095C695C695C370822B932BBF
:100AD000C23091F0C33099F0C13059F00E94E50660
:100AE0000E94BB160E942503CDB7DEB7E8E00C9448
:100AF00085200E94DC06F4CF0E94EE06F1CF0E9412
:100B0000D906EECF111561F1C0FFEACF4D2F429506
:100B100046954770440F440F2D2F2F7030E0042E60
:100B200002C0220F331F0A94E2F780E090E0D4FF66
:100B300009C08FE090E002C0880F991F4A95E2F744
:100B400080959095C695C695C370822B932BC23025
:100B500071F0C33079F0C13039F00E945007C0CF36
:100B6000823008F4BDCFD2CF0E944707B9CF0E9490
:100B70005907B6CF0E94FD06B3CFCF70111539F0DB
:100B80008C2F0E9415078D2F0E942B04A9CF8D2F2B
:100B90000E9432048C2F0E942507A2CFD23F41F140
:100BA00070F4D03FC9F0D13F91F0111509F446C05F
:100BB000011509F440C08D2F0E948D0391CFD33FC2
:100BC000F1F0D43F91F78091680282FD22C08C2F12
:100BD0008F71111501F310C0111541F0053008F0A7
:100BE0007FCF8C2F8F710E9437077ACF0630F7CFD7
:100BF0008C2F8F711111CFCF0E94150771CF111556
:100C000029F08C2F8F710E9409076ACF0E94040778
:100C100067CF111531F063E08C2F8F710E94C30BE9
:100C20005FCF81E00E94E20B023008F459CF82E0EE
:100C30000E94E20B55CF8C2F8F71DECF011579F01A
:100C4000D93349F4EFEFF7EE23E0E150F0402040D4
:100C5000E1F700C000008D2F0E94D50341CF8C2FFB
:100C60008F7199CF0F931F93CF93DF93EC0168811E
:100C700079818D810E941F088C010E9462070E9469
:100C8000D806B801CE010E943904DF91CF911F919F
:100C90000F910895CF93DF93EC018C81811599F02A
:100CA000CE010E94A202811111C00E94F10A811599
:100CB00051F08D81811539F08091680282FF03C067
:100CC00082E00E94E20BDF91CF910895CE010E9455
:100CD0003206CE010E944502F6CF80E090E00E94ED
:100CE000F11680E090E00E9417170E941B0B0E94F3
:100CF000B10B0E94D4130E94B71308950E942218CA
:100D00000E946D0608950E940A0B0E947E060895B7
:100D1000282F92959F70963099F060F4925F9F70A3
:100D2000923030F4203FB1F038F481E0283E38F0C2
:100D300080E008959A5FF3CF81E0243FC9F70895DA
:100D400091E0813F09F090E081E0283E08F080E0EA
:100D5000892B089581E00895FC018481811539F083
:100D6000808191810E9412080E948806089580E087
:100D70000895A6E0B0E0EFEBF6E00C946F20269625
:100D8000E2E00C948B20A7E0B0E0E9ECF6E00C94F4
:100D90006F202796E2E00C948B2008950E94CD06E8
:100DA00008950E94CE0690939F0180939E0108951E
:100DB00008950E94D106089520919E0130919F01CF
:100DC000822B932B0E94D106089520919E01309191
:100DD0009F01822393230E94D106089520919E01B2
:100DE00030919F01822793270E94D10608950E9487
:100DF000CD0608950E94F70608950E94FA06909382
:100E00009D0180939C01089580E090E00E94FD0682
:100E1000089521E030E0A90102C0440F551F8A95D2
:100E2000E2F7CA010E94FD06089521E030E002C009
:100E3000220F331F8A95E2F780919C0190919D01CA
:100E4000822B932B0E94FD06089521E030E002C022
:100E5000220F331F8A95E2F72095309580919C01EF
:100E600090919D01822393230E94FD06089521E025
:100E700030E002C0220F331F8A95E2F780919C0177
:100E800090919D01822793270E94FD06089520914D
:100E90009C0130919D01822B932B0E94FD060895A9
:100EA00020919C0130919D01822393230E94FD0695
:100EB000089520919C0130919D01822793270E94E3
:100EC000FD06089508959B01677091E001C0990F98
:100ED0006A95EAF763E0369527956A95E1F7220F60
:100EE000331F220F331FFA01E20FF31F40E050E0DF
:100EF000682F70E08191DF019B01042E02C03695BE
:100F000027950A94E2F7217021952827292328277D
:100F10002E934F5F5F4F4430510561F708959C0158
:100F2000982F977083E0369527958A95E1F7220FE1
:100F3000331F220F331FFB01E20FF31F40E050E08D
:100F400080E0219130E0092E02C0369527950A9461
:100F5000E2F721703327042E01C0220F0A94EAF72A
:100F6000822B4F5F5F4F4430510559F70895482F4A
:100F7000862F933078F4433068F4292F30E0B9019C
:100F8000660F771F620F731F640F711D44E951E0F4
:100F90000E9463070895482F933080F4833070F4E3
:100FA000292F30E0C901880F991F820F931F64E930
:100FB00071E0840F911D0E948F07089580E00895CD
:100FC000A0E0B0E0E6EEF7E00C9468208C01E09041
:100FD0009C01F0909D0180919E0190919F01E82AD3
:100FE000F92ACFE0D0E0CC24C394D12CC6010C2E3A
:100FF00002C0880F991F0A94E2F78E219F21892B46
:1010000049F4219798F7B12C8B2DCDB7DEB7E9E0E5
:101010000C948420BC2EB8018C2F0E94EA0E0197FC
:1010200081F3F2CFCF93DF93D82FC92F0E94E0072F
:101030006D2F7C2F0E94EA0EDF91CF9108951F93B0
:10104000CF93DF93162FD72F90919301911541F0F5
:10105000862F972F0E941208DF91CF911F9108953C
:10106000811581F0862F972F0E94E007C82F682FE7
:10107000812F9D2F0E94B707612F7D2F8C2F0E94FB
:10108000EA0EEACF862F972F0E94CB07C82FF4CF06
:101090000F931F93CF93E091A001C7E08091A1012E
:1010A0008E1304C0CF911F910F9108950E2F10E061
:1010B000CE9FF0011124EE55FE4F208131814281F7
:1010C00053816481758186810E94C306F80131963F
:1010D000E770E4CF2091DA013091DB014091DC012F
:1010E0005091DD016091DE017091DF018091E0019E
:1010F0000E94C30608958091E001803178F48091C8
:10110000DF01811559F0E091A0012091A1013091FA
:10111000DB014091DA0157E02E1301C008956E2FD4
:1011200070E05E9FF0011124DF01AE55BE4F1496B2
:101130008C911497811561F111968C9111978313FD
:1011400027C08C91841324C015968C91159781111A
:101150001FC012968D919C91A091DC01B091DD0190
:101160008A1B9B0B883C910598F48091E0018F705D
:1011700080618093E001E855FE4F80818F7080612F
:1011800080838AED91E00E944A060E9448080895F3
:10119000FB013196E770C0CFE091A0019091A101D1
:1011A00027E0E91302C080E00895AE2FB0E02E9F43
:1011B000F0011124EE55FE4F3181361306C0308107
:1011C000381303C03581341304C0FD013196E77034
:1011D000E8CF81E008958F929F92AF92BF92DF9205
:1011E000EF92FF920F931F93CF93DF93CDB7DEB7AC
:1011F0002D970FB6F894DEBF0FBECDBF8C0186E0F1
:10120000F801DE01189601900D928A95E1F7F80138
:10121000F58084819AED892E91E0992E9091DE01DE
:1012200091111BC0811509F4FFC0F11409F440C1EC
:10123000C8010E94AC06811509F43AC187E0F801A3
:10124000D40101900D928A95E1F7C4010E947A03BE
:101250000E947B080E946A08E7C0E080A280B380F9
:10126000D090DF012091DC013091DD01A501421B0E
:10127000530BD11409F4DBC0483C510508F0A6C05B
:10128000811509F4D1C09091DB0191808091E0013A
:10129000803108F06BC0991228C09091DA019E113C
:1012A00024C0F1105DC08F7080618093E0010E94C6
:1012B0006A088AED91E00E944A068091E001F801F7
:1012C0008683F12C8F2D2D960FB6F894DEBF0FBEBE
:1012D000CDBFDF91CF911F910F91FF90EF90DF90E5
:1012E000BF90AF909F908F900895F11039C040E06B
:1012F000692D8E2D0E94CC0840E0692D8E2D0E9414
:10130000CC08F82E8111DDCF888599850E941208BE
:10131000292F22952F70903450F49F70223080F046
:10132000911599F0F8019681903178F4CBCF2A5F2E
:101330002F70223078F0C8010E944A06FD2CC2CFDF
:10134000911519F0811509F4BDCF805E883008F43D
:10135000B9CFF1CF803F08F4B5CF815F8330F7CFAD
:101360008091E00181608093E001ABCF991207C0CA
:101370009091DA019E1103C0F11409F479C0C801FB
:101380000E94AC06811509F493C0F11409F490C0D1
:101390008091E001803288F02091DA013091DB0108
:1013A0003A832983BC82AB829091DE019D831E82A9
:1013B0008F83CE0101960E944A0687E0F801AAEDCC
:1013C000B1E001900D928A95E1F742CF9091E00152
:1013D0009031A0F4488559856A857B858C859D85EB
:1013E0000E94B9068AED91E00E944A0687E0F40166
:1013F00011928A95E9F70E946A0863CF8115A1F0DE
:101400002091DB0181812813BACF8091DA018E11FE
:10141000B6CFF110B4CF9683C8010E944A0687E088
:10142000F40111928A95E9F7FF24F3944BCF483CDD
:10143000510508F041C08115B9F3F114C9F190913B
:10144000DB01818198132AC08091DA018E1126C0B8
:101450008091E00180FD19C08031B8F08683807FE3
:10146000803F39F08681982F907F905F8F70892B15
:101470008683C8010E944A0687E0F801AAEDB1E020
:1014800001900D928A95E1F7E5CE87E0F801AAED8B
:10149000B1E001900D928A95E1F7C6CFC8010E9494
:1014A000AC0681118ACF8091E00181608093E001D8
:1014B000C8010E944A06B8CF488559856A857B8550
:1014C0008C859D850E94B90691CFAEE0B0E0EBE639
:1014D000FAE00C946E20288739874A875B876C87EF
:1014E0007D878E87CE0108960E94EB086C8581155A
:1014F000A9F0611541F0288539854A855B857D8590
:101500008E850E94C30617E08091A0019091A101F1
:1015100089133AC02E96E3E00C948A2087E0FE01FE
:101520003896DE01119601900D928A95E1F76115CA
:1015300051F3A091A1018A2F90E00196877099271D
:101540002091A0012817190689F097E09A9FD001F1
:101550001124AE55BE4FFE01319601900D929A9521
:10156000E1F78093A1010E944808CDCF0E94830635
:101570001092A1011092A00187E0EAEDF1E0DF01F5
:101580001D928A95E9F7BFCF189FC00111248E558F
:101590009E4F0E94EB08811509F4BCCFE091A00199
:1015A0001E9FF0011124EE55FE4F208131814281B2
:1015B00053816481758186810E94C3068091A00158
:1015C00090E00196877099278093A0019DCF80912C
:1015D00009028695869586950895809109028770FF
:1015E000089590910902977081E0911101C080E007
:1015F000089580913502089590913502982B90932B
:1016000035020895982F9095809135028923809313
:101610003502089510923502089590913402982B66
:10162000909334020895982F9095809134028923E5
:1016300080933402089510923402089508950E9410
:101640001E0B089590910A02292F2823211531F0AD
:101650008095892380930A020E941F0B08950895A4
:101660000E942F0B089590910B02292F28232817F1
:1016700029F0982B90930B020E94300B08959091C3
:101680000B02292F2823211531F08095892380937F
:101690000B020E94300B089580910B02811529F0F6
:1016A00010920B0280E00E94300B0895CF93C091FE
:1016B000350280913402C82B80910B02811531F0E4
:1016C000C82B0E943D1781110E944C0B8C2FCF918B
:1016D0000895CF93DF93C0910201D09103010E943E
:1016E000560B8883C0910201D091030148E050E07D
:1016F00061E072E0CE010E94AA20892B59F088E0B7
:10170000FE01A1E0B2E001900D928A95E1F7CE01D1
:101710000E94C816DF91CF910895CF93DF93C091B7
:101720000001D09101010E94560B8983C0910001F4
:10173000D091010140E250E061EE71E0CE010E94E3
:10174000AA20892B59F080E2FE01A1EEB1E00190C0
:101750000D928A95E1F7CE010E94D316DF91CF91C9
:1017600008950E94AE18813039F48091670287FF96
:1017700003C00E948D0B08950E94690B089508957F
:101780000E94BF0B0895962F2091680222FF11C07E
:10179000682F660F660F660F692B609309020E941F
:1017A0001507809109028695869586950E94C00B43
:1017B00008950E94150708951092090280E00E9482
:1017C000C00B0895909109028095892380930902A6
:1017D000282F277021110DC0891759F090916802A8
:1017E00092FF07C08695869586950E9425070E94E0
:1017F000DC0B08959091680292FB222720F92817AC
:1018000069F080FB92F99093680280916702909151
:1018100068020E94480C82E00E94E20B08958091C9
:101820006802002482FF0394802D0E94FA0B089521
:1018300081E00E94FA0B089580E00E94FA0B08955F
:101840006FEF7FEF80E090E00E94FC20089580E041
:1018500090E00E94C8209C0181E0253E3E4F09F0A7
:1018600080E0089582E090E00E94C020089583E027
:1018700090E00E94C02090E00895682F83E090E0FF
:101880000E94DE20089584E090E00E94C820089520
:10189000BC0184E090E00E94FC200895AB01BC01F3
:1018A0008FE090E00E94F0200895AB01BC0183E13D
:1018B00090E00E94F020089560E070E0CB010E946B
:1018C000550C089560E070E0CB010E944E0C0E9420
:1018D0005C0C0895A8E0B0E0E0E7FCE00C946F2019
:1018E00065EE7EEF80E090E00E94FC2060E082E008
:1018F00090E00E94DE2081E090E090939F01809331
:101900009E010E943D0C60E074E184E090E00E9442
:10191000FC2060E086E090E00E94DE2060E087E04E
:1019200090E00E94DE2040E050E0BA0188E090E0C4
:101930000E94F02060E083E290E00E94DE2060E000
:101940008CE090E00E94DE2060E08DE090E00E945C
:10195000DE2019821A821B821C821D821E821F8237
:10196000188648E050E067E170E0CE0101960E94E1
:10197000CE2040E050E0BA018FE190E00E94F020DC
:101980000E94620C2896E2E00C948B200E946A0C64
:101990000895682F8EE090E00E94DE200895A6E072
:1019A000B0E0E5EDFCE00C946D200E9460198C0124
:1019B00080913602909137028017910779F0198251
:1019C0001A820E946019BC0149815A8180E090E02E
:1019D0000E944A0310933702009336022696E4E0F1
:1019E0000C9489200E946C1960933F02709340020E
:1019F000809341029093420260933B0270933C02B9
:101A000080933D0290933E020895089508950E94A8
:101A1000050D089508950E940A0D0E94070D08956E
:101A200008950E94100D089508950E94140D0E94BB
:101A3000110D08958FED9FE00E943F110E94060D49
:101A40000E940B0D089581E0089581E008950E94A1
:101A5000230D08950895089508950E942A0D0E9467
:101A60002B0D0E942C0D08950E94270C811102C09D
:101A70000E94C60C0E94320C809343020E94430CC9
:101A800090936802809367020E9462110E94370C53
:101A90000E94D90680919C0190919D010E94FA06B6
:101AA00008950E9457190E9493100E94340D0E94BD
:101AB00024030E94150D0895A6E0B0E0E2E6FDE0E3
:101AC0000C9467200E94250D81110AC00E94CF0C42
:101AD0000E94F5130E9431032696EAE00C948320BD
:101AE0000E94A9101091380280E00E94FB0F181389
:101AF0000EC01091390281E00E94FB0F181307C03D
:101B000010913A0282E00E94FB0F1817F9F28091BF
:101B1000430281FD0E9401100E94270DC82E88E318
:101B2000A82E82E0B82E00E0802F0E94FB0F182F15
:101B3000F50191915F01891739F1D82ED926F12C41
:101B4000EE24E3948D2D8E218115B9F0C114A9F0F6
:101B5000F9820A830E9460199C838B8381E08D83C4
:101B600091E0812F8E21811101C090E049815A813D
:101B70006B817C818D810E944A03F394EE0CF3E02B
:101B8000FF12E0CFF50112930F5F033069F60E9458
:101B9000F20C9ECF1F93CF93DF930E94EF0EEC01C8
:101BA000811522E5920708F05DC0811540E5940794
:101BB00008F0DBC0803E910528F58D3C910508F0CA
:101BC000ACC0883A910578F4853A910508F0A2C036
:101BD0008130910509F441C00497813A9105E8F1FB
:101BE000C0E0D0E03AC0885A91094B97C8F7C85A6C
:101BF000D0E0CC0FDD1FC05BDE4F0990D881C02D37
:101C0000D4642BC0811550E49507F8F4C11580E227
:101C1000D80708F0C0C0C83ED105F8F0CE019A95AB
:101C200081159F41E8F68D2F0E94900F182FCE014D
:101C300099270E94EF0E212F30E0322F2227E90151
:101C4000CC27DF71C82BD92B08C099270E94EF0E33
:101C5000CC27DF70C82BD92BD06ACE01DF91CF9172
:101C60001F910895803842E59407C8F5803652E503
:101C7000950708F05BC0C03482E5D807D0F4C032C5
:101C800092E5D90708F04BC08C2F8695869520E207
:101C9000829FC0011124C37021E030E0A90102C07D
:101CA000440F551FCA95E2F7EA01C82BD92BDD680E
:101CB000D4CF8C2F86958695877050E2859FC00182
:101CC0001124C37021E030E0A90102C0440F551F68
:101CD000CA95E2F7EA01C82BD92BDC68BECF803C5D
:101CE00052E5950758F48F71C03AD245A0F590E0BF
:101CF000982F8827EC01C46FD06AAFCF805C9245E3
:101D0000809708F06DCFDC2FCC27CC27DF71C06F18
:101D1000D06AA3CFA497D064A0CFD0659ECFCF7157
:101D2000D0E0DC2FCC27C16FD06A97CF86958695FF
:101D3000877020E2829FC0011124C37021E030E04F
:101D4000A90102C0440F551FCA95E2F7EA01C82B4A
:101D5000D92BDA6882CF0E94900FC82FD0E0DC2FF9
:101D6000CC27CC27DF71D06278CF8F710E94900F83
:101D700053E0CC0FDD1F5A95E1F7CC27DF70282FF9
:101D800030E084FF04C050E1859F90011124C22BF4
:101D9000D32BD06962CF8D2F8F710E94900F182F97
:101DA000CE0199270E94EF0E212F30E0322F2227FB
:101DB00022273F71282B392BE901D5CF462F672FDA
:101DC000733028F4433018F40E94DB01089580E05A
:101DD00090E008950E94DE0E0E94CA0D08959C01B5
:101DE000803E910509F448C0D8F48133910509F487
:101DF0007DC048F48932910509F46DC08A9709F4D1
:101E00007CC0C90108958933910551F1823891054B
:101E100039F1C597B1F78091670285FFF2CF29C0EC
:101E2000843E910509F447C048F4823E910599F13A
:101E3000833E9105A9F121EE30E0E3CF863E910586
:101E400009F444C0873E9105E1F68091670283FD65
:101E500061C09091680291FF2BC024EE30E0D1CF99
:101E6000809167028370811152C08091680283FF64
:101E7000C8CF29E230E0C5CF8091670280FD33C032
:101E80009091680290FFBDCF23EE30E084FFB9CF80
:101E900020E030E0B6CF8091670282FDF5CFB1CF70
:101EA0008091670282FD30C09091680290FD2FC042
:101EB00084FFA7CFEDCF8091680281FFA2CF8091F0
:101EC000670227EE30E084FDE3CF9BCF809167026D
:101ED00083FDF7CF96CF8091670285FD1EC080916C
:101EE000680283FF8ECF29E330E08BCF80916702B9
:101EF00086FF87CF2AE230E084CF8091670286FF99
:101F000080CF21E330E07DCF22EE30E07ACF20EEAB
:101F100030E077CF26EE30E074CF25E330E071CFAC
:101F20009091670292FF10C041E0282F2471243065
:101F300009F040E031E0282F2871283009F030E026
:101F4000431711F02CE0822793FF10C041E0282FA7
:101F50002471243109F040E031E0282F2871283124
:101F600009F030E0431711F02CE08227309168022D
:101F700030FF10C051E0282F2171213009F050E0CE
:101F800041E0282F2871283009F040E0541711F063
:101F900029E0822731FF10C041E0282F2171213133
:101FA00009F040E031E0282F2871283109F030E0B5
:101FB000431711F029E0822794FD877E089580E081
:101FC0000895CF939C01FB01805E9245C1E080970C
:101FD00038F4C581C11104C0822F8F710E9469023B
:101FE0008C2FCF91089508950E94F30F08950895BE
:101FF0000E94F70F0895E82FF0E0E459FD4F80812B
:102000000895089580EA8A95F1F7089500C008952B
:102010000E9402100895F894E82FE295EF70F0E026
:1020200041A18F7021E030E0B90102C0660F771F37
:102030008A95E2F7CB01962F9095942391A392A1D4
:10204000892B82A37894089586E60E940B1087E975
:102050000E940B1086EC0E940B1081E90E940B106D
:1020600080E90E940B1084E90E940B100895A0E003
:10207000B0E0EDE3F0E10C946920EC01D62E062FE0
:1020800010E0C80187579E4F7C01FC0180818F3F83
:1020900009F444C0F894E82FE295EF70F0E091A1C4
:1020A0008F7021E030E001C0220F8A95EAF7892F76
:1020B000822B81A382A12095282322A378940E94B9
:1020C0000610A6E8B1E091E0C12C8D918F3F79F028
:1020D000E82FE295EF70E05EF0E0208130E08F7055
:1020E00002C0359527958A95E2F7892F20FD80E07B
:1020F000C82A990FF1E0A938BF0739F7F7018081A5
:102100008F3F11F00E940B1061E0C11001C060E030
:102110008D2D0E940810C00FD11FC882CDB7DEB729
:10212000E8E00C9485200E94241083E0ECE6F2E0C5
:10213000DF01982F1D929A95E9F7E9E6F2E0DF01B9
:102140001D928A95E9F783E00E94E7100E94F40F40
:102150000895A3E0B0E0EFEAF0E10C946D208E0169
:102160000F5F1F4F83E0F80111928A95E9F760E055
:10217000C8010E94371061E0C8010E94371062E078
:10218000C8010E94371043E050E0B80189E692E0B0
:102190000E94AA2021E0892B81F420E043E06CE634
:1021A00072E089E692E00E94E810182F0E94F80F72
:1021B000812F2396E4E00C94892089819A81AB8158
:1021C0008093690290936A02A0936B02E7CF08950F
:1021D000A0E0B0E0EEEEF0E10C946920D82EE92EFC
:1021E000F62ED72F042FC22F211579F081E080938E
:1021F00046020E946019909345028093440280E059
:10220000CDB7DEB7E8E00C948520C0904602C1143B
:10221000B1F380914402909145020E94EF18059716
:1022200070F310E0A8016D2D7E2D8F2D9D2F0E9443
:10223000AA20892B41F0A8016D2D7E2D8F2D9D2F79
:102240000E94B720CC2D109246028C2FD9CF0E942D
:102250005C0D08950E94F9180E94021B0E941A0D3D
:102260000E941C1B0E94510D0E94291B0E942E1BC4
:102270000E9427110E94481B0E942D0DF7CF9093BA
:102280008D0180938C0108950E94200C089580E0B8
:102290000E94FB0F817008950E94A9102FEF86E71E
:1022A00091E0215080409040E1F700C000000E9482
:1022B000A9100E944711811521F00E9444110E942B
:1022C0009C1908950E944C110895CF93DF93EB0160
:1022D00086319C4719F50E94F90A9D819115A1F05C
:1022E0008A7A91E0811101C090E0909347028115B4
:1022F00049F085E30E94EE170E94B10B80E0DF9168
:10230000CF91089589E2F6CF80914702811521F09F
:1023100085E30E940818F0CF89E2FBCF81E0EFCF80
:10232000CF93DF93EC01FB018581811509F4CFC0C8
:102330009E0130572332310508F0AFC00E94430C94
:102340009093680280936702FE01E150F047E23209
:10235000F10520F4E05EFE4D0C9459208091670257
:1023600081608093670290C080916802886080934A
:1023700068028AC0809167028260F3CF8091670211
:102380008460EFCF809167028860EBCF8091680214
:102390008160EDCF809168028260E9CF8091670211
:1023A0008061DFCF809167028062DBCF809167021E
:1023B0008064D7CF0E948306809167028068D1CF66
:1023C000809167028C60CDCF809168028360CFCF0F
:1023D000809167028E7FC5CF80916802877FC7CFCB
:1023E000809167028D7FBDCF809167028B7FB9CFCF
:1023F00080916702877FB5CF809168028E7FB7CFCB
:10240000809168028D7FB3CF809167028F7EA9CFC4
:10241000809167028F7DA5CF809167028F7BA1CFCE
:102420000E948306809167028F779BCF809167021D
:10243000837F97CF809168028C7F99CF80916702CC
:10244000992782FF939590FB82F990FB83F989CFBE
:1024500080916802982F909590FB80F990FB81F90C
:1024600086CF90916702892F8F7B96FF806479CF0A
:102470000E94830690916702892F97FB87F9805805
:1024800070CF81E00E94C90C809167029091680230
:102490000E94480C0E94830680E0DF91CF9108954E
:1024A00080E0F0CF90916702892F8F7E94FF80614A
:1024B00058CF90916702892F8E7F90FF816051CF16
:1024C00090916802892F877F93FF886050CF81E0C9
:1024D000E4CF282F35EB2303C001112497FF04C05C
:1024E00080589109892F089580589F4FFBCF809184
:1024F0004E0280FF0DC06091090170E0660F771FEA
:1025000060387105B0F561157105A9F1862F089540
:1025100081FF07C06091090184E0689FB001112428
:10252000EFCF82FF04C06091090188E0F6CF90915F
:102530004D029115D9F02091080180910901682F71
:1025400070E0921730F043E0660F771F4A95E1F78D
:10255000D7CF899FC001112433E0880F991F3A9586
:10256000E1F7622F70E00E944520CACF68E070E07A
:10257000CDCF8FE7089581E0089580914E0280FFCE
:102580000CC06091050170E075956795759567952C
:102590006115710549F1862F089581FF06C060918C
:1025A000050170E075956795F3CF6091050182FD97
:1025B0000BC090914C029115A1F0609104018091A3
:1025C0000501961738F0682F70E06038710500F348
:1025D0008FE70895899FC001112470E00E94452073
:1025E000F4CF61E070E0D7CF81E00895E3E3E80F36
:1025F000E331E0F5F0E0EE5BFE4D0C9459200E94D3
:10260000771281958093520208950E947712FACF33
:102610000E94771281958093510208950E9477124B
:10262000FACF0E94BD128093530208950E94BD12FA
:102630008195F9CF0E94BD1281958093540208952F
:102640000E94BD12FACF815D990B21E030E001C0FC
:10265000220F8A95EAF780915002822B80935002D4
:10266000089580914E02816080934E02089580917A
:102670004E028260F9CF80914E028460F5CF409186
:1026800051028D3C59F48091520287FF0DC0109287
:102690005202411559F410924D0208C08E3C81F44B
:1026A0008091520218169CF3411581F080915302DB
:1026B00090915402892B811159C010924C020895B7
:1026C0008F3C41F447FFF0CF1092510280915202AB
:1026D0008115E0CF803D19F41416B4F3E5CF909145
:1026E0005302893D29F41916FCF610925302DCCFEF
:1026F0008A3D19F497FFD8CFF8CF909154028B3DC3
:1027000029F497FFD1CF10925402CECF8C3D19F40B
:102710001916CCF3C9CF9FE2980F983090F4815DE1
:10272000990B21E030E0B90102C0660F771F8A954E
:10273000E2F7CB018095909150028923809350025B
:10274000B3CF8D3D31F480914E028E7F80934E0247
:10275000ABCF8E3D21F480914E028D7FF7CF8F3D20
:1027600009F0A2CF80914E028B7FF0CF08950E9496
:1027700060192091510230915202232B211521F032
:1027800080934A0290934B0220915302309154025D
:10279000232B211521F080934802909349028FE466
:1027A00092E00E94E216089586E0EFE4F2E0DF0195
:1027B0001D928A95E9F710924D0210924C021092E8
:1027C0004E020895FC01828181110DC08381811127
:1027D0000AC08481811107C081E09581911101C0F7
:1027E00080E08170089581E0FCCFA6E0B0E0EBEFDF
:1027F000F3E10C94692086E0EFE4F2E09E012F5FA4
:102800003F4FD90101900D928A95E1F71092510244
:102810001092520210925302109254028B819C81AA
:10282000892B7901811589F080914A0290914B02A0
:102830000E94EF186C0180914D028115B9F19091C1
:102840000A019C151D0408F43EC08D819E81892BD0
:10285000811591F080914802909149020E94EF18F1
:102860008C0180914C02811509F45FC090910601A2
:102870009017110608F467C0B7018FE492E00E9438
:102880003C18811105C08FE492E00E94E21381118F
:102890000E94B71386E0F701AFE4B2E001900D9219
:1028A0008A95E1F72696E8E00C94852020910B01AB
:1028B0009AE0299F900111242C153D0530F68F5F79
:1028C00080934D0202C08F3FD1F7DB80D11459F0C5
:1028D0000E94771291E01D140CF09FEF899F802DCC
:1028E000112480935102DC80D11459F00E94771298
:1028F00091E01D140CF09FEF899F802D112480938F
:10290000520280915102811509F49FCFD09052025A
:10291000D11409F49ACF0E946912809351028D2D2F
:102920000E9469128093520290CF209107019AE091
:10293000299F900111242017310708F09DCF8F5F48
:1029400080934C0202C08F3FD1F71D81111559F0C1
:102950000E94BD1291E011160CF09FEF899F802D0F
:102960001124809353021E81111559F00E94BD124B
:1029700091E011160CF09FEF899F802D1124809318
:10298000540280915302811509F476CF10915402BC
:10299000111509F471CF0E94691280935302812F9F
:1029A0000E9469128093540267CFDC01ED91FC9183
:1029B000119784913196ED93FC930895A0E0B0E0D7
:1029C000E4EEF4E10C946820E82FF0E0E252FF4FCF
:1029D000B490282F26952695269530E0F901E258E7
:1029E000FE4F0491877010E0082E02C015950795E0
:1029F0000A94E2F701701127F901E259FE4FE490C1
:102A0000F12C082E02C0F594E7940A94E2F7E0FA5C
:102A1000EE24FF24E0F8F901E25AFE4FC491D0E021
:102A200002C0D595C7958A95E2F7C170DD27C62EFD
:102A3000D12C0115110549F5E114F10431F086EEB0
:102A40000E948D03C601009771F5B6018B2D0E947F
:102A50000804C601009779F5E114F104A1F5011508
:102A6000110531F081EE0E94D503C6010097C9F52A
:102A7000CD2B31F08CE20E942204C114D104C9F59F
:102A8000CDB7DEB7E9E00C94842081EE0E948D037F
:102A9000C601009789F2EFE9FFE03197F1F700C036
:102AA00000000197F6CFEFE9FFE03197F1F700C0A2
:102AB00000000197C8CFEFE9FFE03197F1F700C0C0
:102AC00000000197C7CF86EE0E94D503C60100978C
:102AD00031F2EFE9FFE03197F1F700C00000019714
:102AE000F6CFEFE9FFE03197F1F700C00000019762
:102AF000BDCF8FE99FE00197F1F700C0000091E0A2
:102B0000C91AD108BACFA0E0B0E0E9E8F5E10C9429
:102B100068207C01D62F172F042F8D2F912FF701BE
:102B200009958115B9F0813009F060C08D2F912F82
:102B3000F7010995C82F813091F48D2F912FF7015E
:102B400009950E942204802F90E0009709F046C06A
:102B5000C111E3CFCDB7DEB7E9E00C948420823019
:102B600039F48D2F912FF70109950E948D03EBCF3A
:102B7000833039F48D2F912FF70109950E94D503E9
:102B8000E2CF843001F78D2F912FF7010995C82FDF
:102B9000C12CD12C8AE0B82E2C2F2053330BC90125
:102BA0002A30310568F0C114D10469F28FE99FE041
:102BB0000197F1F700C0000091E0C91AD108F3CFE6
:102BC000BC9C9001BD9C300D11246C01C20ED31E23
:102BD0008D2F912FF7010995C82FDECFEFE9FFE088
:102BE0003197F1F700C000000197AFCF602F0E942E
:102BF000DE1493CFA2E0B0E0E0E0F6E10C946F20A9
:102C0000462F9A838983BE016F5F7F4F85ED94E1E4
:102C10000E9483152296E2E00C948B200F931F9361
:102C2000CF93DF93C42FD22FFC0185818115C9F08A
:102C3000409357020E946019909356028093550268
:102C400080E28C0F883040F4C77081E001C0880FAB
:102C5000CA95EAF70E942B04DF91CF911F910F9143
:102C6000089510915702141333C08091550290912A
:102C700056020E94EF18883C910550F5C0E2CD0F36
:102C80001D17C1F080E2810F883040F4177081E099
:102C900001C0880F1A95EAF70E943204C83050F438
:102CA00091E08D2F877001C0990F8A95EAF7892FDF
:102CB0000E942B04802F0E942204C83068F6D7702F
:102CC00081E001C0880FDA95EAF70E943204C4CF90
:102CD00080E28C0F883008F0BFCFC77081E001C060
:102CE000880FCA95EAF7F1CF0F93DB01FC01E85199
:102CF000FC47E730F10598F5EB5AFE4D0C9459204E
:102D000006E221EE41EE6AE17CE7CD010E940E165B
:102D100080E00F91089507E225EE45EE6BE17CE738
:102D2000F4CF06E221EE40EE68E17CE7EECF07E269
:102D300025EE44EE69E17CE7E8CF06E221EE42EEC3
:102D40006CE17CE7E2CF07E225EE46EE6DE17CE741
:102D5000DCCF08E221E045EE6EE17CE7D6CF1596A8
:102D60008C9181111092570281E0D3CF90935D0234
:102D700080935C020895E0915C02F0915D023097CF
:102D800029F00190F081E02D0995089580E00895E3
:102D9000E0915C02F0915D02309721F00280F381B6
:102DA000E02D09950895DC01E0915C02F0915D024F
:102DB000309739F086E08C930480F581E02DCD01C9
:102DC00009950895DC01E0915C02F0915D02309775
:102DD00039F082E08C930680F781E02DCD010995D2
:102DE0000895A3E0B0E0E7EFF6E10C946F209C01BA
:102DF00080915A0290915B0282179307A1F0309361
:102E00005B0220935A02E0915C02F0915D023097E0
:102E100051F083E089833B832A830084F185E02D90
:102E2000CE01019609952396E2E00C948B20A3E055
:102E3000B0E0EDE1F7E10C946F209C018091580225
:102E40009091590282179307A1F030935902209371
:102E50005802E0915C02F0915D02309751F084E0FD
:102E600089833B832A830084F185E02DCE0101967E
:102E700009952396E2E00C948B20CF93DF93C091C9
:102E80000201D091030122960E94AE18813081F494
:102E90008091670287FF0CC0C0910001D0910101B1
:102EA00022969EE180E0915028F4DF91CF91089521
:102EB00096E0F8CF29912115B1F38F5FF4CFCF932E
:102EC000C82F811102C080E031C00E94AE1881304D
:102ED00021F48091670287FD0EC0809102019091DC
:102EE0000301FC013296089621912C1709F1E8178D
:102EF000F907D1F7E8CF8C2F869586958695C03F48
:102F000010F7E0910001F0910101E80FF11D22811D
:102F100030E0C77081E090E002C0880F991FCA9529
:102F2000E2F72823392381E0232B69F2CF9108951A
:102F300081E0FCCF9C01FC0132968FEF90E0419143
:102F4000461751F08F3F19F4411101C0892F9F5F3F
:102F50009630A9F78F3F09F40895280F311D87FD9A
:102F60003A95F901628308959C01FC013296285F2D
:102F70003F4F8191861302C0DF011E92E217F307D3
:102F8000C1F70895FC01862F869586958695603F4A
:102F900060F4E80FF11D677021E030E001C0220FFE
:102FA0006A95EAF78281822B82830895FC01862F3D
:102FB000869586958695603F80F4E80FF11D6770D1
:102FC00081E090E09C0102C0220F331F6A95E2F776
:102FD000B90160958281682362830895CF93C82FD9
:102FE0000E94AE186C2F813061F48091670287FFD8
:102FF00008C080910001909101010E94C217CF91F9
:10300000089580910201909103010E949A17F7CFD1
:10301000CF93C82F0E94AE186C2F813061F480913D
:10302000670287FF08C080910001909101010E9412
:10303000D617CF91089580910201909103010E94CB
:10304000B417F7CF0E94AE18813079F480916702EF
:1030500087FF0BC0E0910001F091010132968EE1F3
:10306000DF011D928A95E9F70895E0910201F09140
:103070000301329686E0F4CFDC01FB0111969C91AE
:1030800011978181981322C012968C911297811505
:1030900019F0928189131AC013968C911397811598
:1030A00019F09381891312C015968C91159781158B
:1030B00019F0958189130AC014969C91911521F0FD
:1030C00081E02481291303C080E001C081E0817088
:1030D000089508950E94691808958F5F80930F01E5
:1030E00060910C0170910D0180910E0190910F0182
:1030F0000E946A18089583E080930F0160910C018B
:1031000070910D0180910E0190910F010E946A183B
:1031100008950E946D18089581E080930F016091D9
:103120000C0170910D0180910E0190910F010E9490
:103130006A1808950E948C18089591E0811101C0C9
:1031400090E090930E0160910C0170910D018091BF
:103150000E0190910F010E946A18089580910E014E
:10316000089580930D0160910C0170910D01809183
:103170000E0190910F010E946A18089580910D012F
:10318000089580930C0160910C0170910D01809164
:103190000E0190910F010E946A18089580910C0110
:1031A0000895089508950E94D218089508950895E5
:1031B0000E94D1180895CF930E94D6180E94A9109A
:1031C0000E94D718C0E08C2F0E94FB0F811105C010
:1031D000CF5FC330C1F7CF91089581E0FCCFCF938B
:1031E000DF93EC010E9460198C1B9D0BDF91CF9146
:1031F000089585B7806885BF85B7806885BF0895C5
:103200001F921FB61F9211248F939F93AF93BF936A
:1032100080915E02811113C080916F0290917002C3
:10322000A0917102B09172024196A11DB11D8093CF
:103230006F0290937002A0937102B0937202BF91DB
:10324000AF919F918F911F901FBE1F9018958091F5
:103250007702843031F10E94040310925E0288E10B
:1032600090E020E40FB6F894A895809360000FBE1C
:103270002093600083B7817F846083BF83B78160C0
:1032800083BF7894889583B78E7F83BF0FB6F894F9
:10329000A895809160008861809360001092600022
:1032A0000FBE08950E9483060E940B03089582E0DA
:1032B00084BD93E095BD9AEF97BD80936E0008950D
:1032C0002FB7F89480916F0290917002A0917102D3
:1032D000B09172022FBF08952FB7F89460916F02DA
:1032E0007091700280917102909172022FBF0895C7
:1032F00078941F921FB61F9211248F939F93AF93C0
:10330000BF9380916F0290917002A0917102B09171
:1033100072020196A11DB11D80936F0290937002FD
:10332000A0937102B0937202BF91AF919F918F9160
:103330001F901FBE1F90189587E797E7909301088D
:103340008093000888E19AE00FB6F894A8958093DE
:1033500060000FBE90936000FFCF88E19AE00FB647
:10336000F894A895809360000FBE90936000FFCF03
:10337000282FCB01BA01309177023430D9F42F7065
:103380002093E9002FEF3091E80035FD06C035EDC0
:103390003A95F1F700002A95B1F72091E80025FF52
:1033A00009C040E050E00E94BF1B8091E8008E778A
:1033B0008093E8000895BC0143E050E082E00E9461
:1033C000B8190895BC0146E050E082E00E94B819A7
:1033D0000895BC0140E250E082E00E94B8190895CF
:1033E000CF93DF93D82FC92F0E94AE1848E050E04A
:1033F0006D2F7C2F81E00E94B81988E0ED2FFC2F03
:10340000AFE5B2E001900D928A95E1F7DF91CF919F
:10341000089580917602811109C00E94481D0E9482
:10342000A51D8091E20084608093E20008951092CF
:10343000760208950E948C1881E00E949D180895DC
:103440006091730281E0611101C080E00E947B18ED
:1034500008959091770281E0943009F080E06091C6
:1034600073020E948918089542E061EC81E00E9495
:10347000C41C42E261EC82E00E94C41C909177027D
:1034800081E0943009F080E0609173020E946D1831
:10349000089580917902893089F148F4823009F4E5
:1034A000A0C0833009F45AC0813041F008958A30B9
:1034B00009F487C08B3009F46CC0089580917802BC
:1034C000813A09F04AC08091E800877F8093E80044
:1034D00080917C0290917D02892B61F060E080E018
:1034E00090E070E00E940F1C8091E8008B77809341
:1034F000E800089568E08FE592E0F3CF80917802CC
:10350000813259F580917C0290917D02029728F5D5
:103510008091E800877F8093E8008091E80082FF37
:1035200018C09091F3008091F200029731F48091DD
:10353000F100813011F0863021F48091F1000E9479
:10354000B1188091E8008B778093E8000E94F81C06
:103550000895809177028111E0CF089580917802DB
:10356000813AD9F780917C0290917D02892BA9F74D
:103570008091E800877F8093E8008091E80080FFD9
:10358000FCCF0E94AE188093F1008091E8008E7706
:10359000DBCF80917802813201F780917C0290919B
:1035A0007D02892BD1F68091E800877F8093E80027
:1035B0000E94F81C80917A020E949D180E94830646
:1035C000089580917802813241F68091E800877FEA
:1035D0008093E8000E94F81C80917B020E94C11831
:1035E000089580917802813A09F0B7CF8091E80080
:1035F000877F8093E8008091E80080FFFCCF0E94E5
:10360000CE18C1CF84B7877F84BF0FB6F894A89532
:1036100080916000886180936000109260000FBE0E
:1036200080E890E00FB6F894809361009093610079
:103630000FBE0E949A1808950E94481D0E94A51D61
:10364000E2EEF0E080818460808378940E942B20F9
:10365000089580E191E00E94B61608958091770266
:10366000853031F480917702853019F00E9452192B
:1036700008950E9427190E94DB18811599F3809103
:103680007502811579F30E94A91B0E948306EACF77
:1036900008959A0140917E0250917F020E94511B31
:1036A0000895FC01D9018F2F992783309105C1F02E
:1036B00068F48130910509F447C0029761F48BE307
:1036C00090E022ED31E02D933C93089581329105F5
:1036D000E1F0829749F180E090E020E030E0F3CF24
:1036E000CF019927E13059F08230910559F0EEEC85
:1036F000F1E0892B81F7849190E09F01E4CFEEEA1D
:10370000F1E0F9CFEEE8F1E0F6CF89E090E024EEC9
:1037100031E061157105B9F289E090E02DEF31E0FB
:103720006130710581F2D7CF84E490E025ED32E07D
:103730006115710541F286EB90E02FE132E06130D6
:10374000710509F4C0CFC7CF82E190E02DE032E0EF
:10375000BACF80E189BD82E189BD09B400FEFDCF09
:103760008091D8008F7D8093D8008091E0008260A6
:103770008093E0008091E00081FDFCCF0895AF923E
:10378000BF92CF92DF92EF92FF920F931F93CF934E
:103790006C018B017A010E94171DC82F811123C073
:1037A000E114F10439F0F70180819181081B190BB4
:1037B000C80ED91EA12CB12C01151105A1F08091C4
:1037C000E80085FD21C08091E8008E778093E800B5
:1037D000E114F10499F0F701808191818A0D9B1D1C
:1037E00091838083C5E08C2FCF911F910F91FF9023
:1037F000EF90DF90CF90BF90AF9008950E94171D7B
:103800008115E9F2C82FEFCFF60181916F01809306
:10381000F10001501109FFEFAF1ABF0ACDCFFC0133
:103820009B0180917E0290917F028617970718F086
:10383000672B61F0C90140E0009771F441110CC0A1
:103840008091E80082FF35C080E008958091E80013
:103850008E778093E800EECF209177022115A9F1B1
:103860002530A9F12091E80023FD2DC02091E8002A
:1038700022FDE6CF2091E80020FFDECF3091F3005B
:103880002091F200009719F02830310558F041E0FE
:103890002830310509F040E02091E8002E77209390
:1038A000E800CACF41914093F10001972F5F3F4F4D
:1038B000E9CF80917702811541F0853041F0809108
:1038C000E80083FFBDCF81E0089582E0089583E0A2
:1038D0000895FC019B0180917E0290917F028617E2
:1038E000970718F0672B61F0C90140E0009771F469
:1038F00041110CC08091E80082FF36C080E008953D
:103900008091E8008E778093E800EECF20917702D7
:103910002115B1F12530B1F12091E80023FD2EC031
:103920002091E80022FDE6CF2091E80020FFDECFC5
:103930003091F3002091F200009719F02830310502
:1039400058F041E02830310509F040E02091E800CE
:103950002E772093E800CACF44914093F10031962E
:1039600001972F5F3F4FE8CF80917702811541F09B
:10397000853041F08091E80083FFBCCF81E008955D
:1039800082E0089583E00895982F973028F08F7093
:103990008093E90081E008959093E900242F762F29
:1039A00050E0981731F07091EC002091ED005091AB
:1039B000F00021FD02C09F5FE8CF3091EB003E7F19
:1039C0003093EB003091ED003D7F3093ED0030916E
:1039D000EB0031603093EB007093EC002093ED002E
:1039E0005093F0002091EE0027FDE5CF80E0089590
:1039F0008091780287FF13C08091E80082FF06C0A3
:103A00008091E8008B778093E80008958091770299
:103A10008111F2CF0895809177028115D9F38091B9
:103A2000E80080FFF8CF8091E8008E77ECCF2091FE
:103A3000E4003091E50095E6A9012091EC00822F89
:103A4000817020FF06C08091E80080FF06C080E002
:103A500008952091E80022FD1AC080917702811517
:103A600089F0853089F08091EB0085FD0FC02091B1
:103A7000E4003091E50042175307F9F29A95E1F618
:103A800084E0089582E0089583E0089581E0089538
:103A90000E94B71D0E94BF1DE0EEF0E080818160B2
:103AA0008083E8EDF0E080818F77808319BCA7EDFB
:103AB000B0E08C918E7F8C9380818F7E808310927A
:103AC000760208950F931F93CF93DF930E94B71D43
:103AD0000E94BF1DC8EDD0E088818F7788838881E0
:103AE0008068888388818F7D888319BC10927702D3
:103AF00010927302109275021092740200EE10E0A0
:103B0000F80180818B7F808388818160888342E097
:103B100060E080E00E94C41CE1EEF0E080818E7FD6
:103B20008083E2EEF0E08081816080838081886024
:103B30008083F80180818E7F808388818061888383
:103B4000DF91CF911F910F910895E8EDF0E0808112
:103B50008F7E8083E7EDF0E080818160808384E068
:103B600082BF81E0809376020E94621D0895E8ED95
:103B7000F0E080818E7F80831092E20008951092A1
:103B8000DA001092E10008951F920F920FB60F9283
:103B900011242F933F934F935F936F937F938F9352
:103BA0009F93AF93BF93EF93FF938091E10082FFC8
:103BB0000BC08091E20082FF07C08091E1008B7F03
:103BC0008093E1000E942A208091DA0080FF19C0D2
:103BD0008091D80080FF15C08091DA008E7F80939D
:103BE000DA008091D90080FF94C080E189BD82E134
:103BF00089BD09B400FEFDCF81E0809377020E9469
:103C0000091A8091E10080FF19C08091E20080FFD5
:103C100015C08091E2008E7F8093E2008091E200E7
:103C200080618093E2008091D80080628093D80008
:103C300019BC85E0809377020E94201A8091E100F0
:103C400084FF29C08091E20084FF25C080E189BD06
:103C500082E189BD09B400FEFDCF8091D8008F7D3F
:103C60008093D8008091E1008F7E8093E100809165
:103C7000E2008F7E8093E2008091E2008160809379
:103C8000E20080917302811509F449C084E08093B9
:103C900077020E94291A8091E10083FF29C0809158
:103CA000E20083FF25C08091E100877F8093E100DF
:103CB00082E080937702109273028091E1008E7F00
:103CC0008093E1008091E2008E7F8093E2008091FA
:103CD000E20080618093E20042E060E080E00E94C8
:103CE000C41C8091F00088608093F0000E941A1A32
:103CF000FF91EF91BF91AF919F918F917F916F91C4
:103D00005F914F913F912F910F900FBE0F901F9099
:103D1000189519BC109277020E94171A72CF8091E1
:103D2000E30087FF02C083E0B2CF81E0B0CF1F92F3
:103D30000F920FB60F921124EF92FF920F931F93E1
:103D40002F933F934F935F936F937F938F939F93A3
:103D5000AF93BF93CF93EF93FF9309EE10E0F80179
:103D60008081C091EC008F70C795CC27C795C82B78
:103D7000108280EFE82EF12CF7018081877F80830D
:103D800078940E94E21EF8011082F7018081886019
:103D90008083CF70F801C083FF91EF91CF91BF91E5
:103DA000AF919F918F917F916F915F914F913F91D3
:103DB0002F911F910F91FF90EF900F900FBE0F90DA
:103DC0001F901895AAE2B0E0E8EEFEE10C946D2099
:103DD00088E792E0FC0101962091F100208322E027
:103DE00080389207B9F70E94491A8091E80083FF52
:103DF00038C080917802909179029A3090F5E92F3D
:103E0000F0E0E45AFE4D0C945920803889F0823855
:103E100041F580917C028F70873018F58093E9001E
:103E20008091EB0085FB882780F91092E90006C09D
:103E300080917502880F90917402892B9091E8000F
:103E4000977F9093E8008093F1001092F1008091A9
:103E5000E8008E7723C0811116C080917A028130EC
:103E600011F18091E80083FF0AC08091E800877F0C
:103E70008093E8008091EB0080628093EB00AA962B
:103E8000E4E00C948920823061F780917A028115F8
:103E900089F01092E9008091E800877F8093E80024
:103EA0000E94F81CDECF81E0933009F080E080931F
:103EB0007502EFCF80917C028F702FEF280F263094
:103EC00080F68093E9002091EB0020FFE2CF933051
:103ED00031F48091EB0080628093EB00DACF909117
:103EE000EB0090619093EB0021E030E0A90102C06B
:103EF000440F551F8A95E2F74093EA001092EA00BA
:103F00008091EB008860E8CF8111ABCF10917A02ED
:103F10001F778091E3008078812B8093E30080916C
:103F2000E800877F8093E8000E94F81C8091E800F9
:103F300080FFFCCF8091E30080688093E30083E002
:103F4000111101C082E0809377028BCF80588230BC
:103F500008F087CF80917A0290917B028C3D53E0EC
:103F6000950799F583E08A838AE289834FB7F894AD
:103F7000DE01139620E03EE051E2E32FF0E05093A3
:103F80005700849120FF03C082958F703F5F8F7030
:103F90008A30C8F0895C90E08D939D932F5F243127
:103FA00061F74FBF8091E800877F8093E8006AE265
:103FB00070E0CE0101960E940F1C8091E8008B7783
:103FC0008093E8004ECF805DE6CF60917C027091D7
:103FD0007D02AE014F5F5F4F0E94491B8C01892B10
:103FE00009F43FCF8091E800877F8093E800B80113
:103FF00089819A810E94691CE0CF803809F031CF15
:104000008091E800877F8093E8008091730280931D
:10401000F1001DCF811125CF90917A02923008F0E6
:1040200020CF8091E800877F8093E800909373020F
:104030000E94F81C80917302811531F084E0809316
:1040400077020E94341A0DCF8091E30087FDF6CFEE
:1040500081E0F5CF0895CF9380917702811599F093
:104060008091E900C091EC008F70C795CC27C7956F
:10407000C82B1092E9008091E80083FD0E94E21EA7
:10408000CF70C093E900CF91089597FB072E16F4E7
:10409000009407D077FD09D00E94962007FC05D038
:1040A0003EF4909581959F4F0895709561957F4F4F
:1040B0000895EE0FFF1F0590F491E02D09942F92C3
:1040C0003F924F925F926F927F928F929F92AF92A8
:1040D000BF92CF92DF92EF92FF920F931F93CF93F5
:1040E000DF93CDB7DEB7CA1BDB0B0FB6F894DEBF8C
:1040F0000FBECDBF09942A88398848885F846E84B2
:104100007D848C849B84AA84B984C884DF80EE80FB
:10411000FD800C811B81AA81B981CE0FD11D0FB604
:10412000F894DEBF0FBECDBFED010895AA1BBB1BE7
:1041300051E107C0AA1FBB1FA617B70710F0A61BA7
:10414000B70B881F991F5A95A9F780959095BC01C8
:10415000CD010895FB01DC0104C08D91019080190F
:1041600021F441505040C8F7881B990B0895FB017A
:10417000DC0102C001900D9241505040D8F70895E3
:10418000F999FECF92BD81BDF89A992780B508951F
:10419000A8E1B0E042E050E00C940421DC01A40F5F
:1041A000B51F4150504048F0CB01840F951F2E9110
:1041B0000E94DF2041505040D0F70895262FF999F2
:1041C000FECF92BD81BDF89A019700B4021639F076
:1041D0001FBA20BD0FB6F894FA9AF99A0FBE089547
:1041E0000396272F0E94DF200E94DE20252F0E94A9
:1041F000DF20242F0C94DF200196272F0E94DF2040
:104200000C94DE20DC01CB01FC01F999FECF06C045
:10421000F2BDE1BDF89A319600B40D924150504084
:10422000B8F70895F894FFCF77047704BB04BB0474
:104230001F053C05A604A6044105BD05CE05CE0517
:10424000E8115912F011BA11BE11F411C211F8118E
:104250000412CE115212D2110812D6110C123112C0
:10426000DA1110123812E01116121E12C611FC11CA
:10427000CA110012E4111A12281241125012B4117C
:10428000EC116012FF12051308130E1323132313EE
:10429000231323132313231323132313111316138D
:1042A0001A132013311337133B13911697168016E8
:1042B0008B169D16A316A916051F2B1F311F2B1F2A
:0C42C000311F841FA61F311FFD1F0A20A4
:1042CC000C022C02280850011E0A140100000100E7
:1042DC00BE18F019E919E219DB19E200E900EA004D
:1042EC00B500B600B700CD008301CC008A01920165
:1042FC0094012102230224022502260227022A020B
:10430C00B300B4006F0070009F01CB019F02A002AC
:10431C00E200E900EA00B500B600B700CD00830169
:10432C00CC008A019201940121022302240225026D
:10433C00260227022A02B300B4006F0070009F010E
:0C434C00CB019F02A0029190946697C6DE
:00000001FF
