:100000000C9450020C946D020C946D020C946D02D1
:100010000C946D020C946D020C946D020C946D02A4
:100020000C946D020C946D020C94C71E0C949A1FD4
:100030000C94031A0C946D020C946D020C946D02D6
:100040000C946D020C946D020C946D020C946D0274
:100050000C946D020C947B1A0C946D020C946D023E
:100060000C946D020C946D020C946D020C946D0254
:100070000C946D020C946D020C946D020C946D0244
:100080000C946D020C946D020C946D020C946D0234
:100090000C946D020C946D020C946D020C946D0224
:1000A0000C946D020C946D020C946D020102E0013F
:1000B000043130307C01010601043130307C010311
:1000C000E0000102E001043130307C0102E1010472
:1000D0003130307C01011D01043130307C0103E1FD
:1000E0000103E0000102E001043130307C01011D18
:1000F00001043130307C0103E0000101E3010431EF
:1001000030307C737465616D01043130307C0101E5
:1001100028000101E301043130307C4369646572D9
:1001200001043130307C010128000101E301043178
:1001300030307C427261766501043130307C0101DF
:10014000280104313030307C636861746770742E2C
:10015000636F6D010128000101E301043130307C3F
:10016000427261766501043130307C01012801045E
:10017000313030307C596F75747562652E636F6DE8
:10018000010128000101E301043130307C53686132
:100190007072336401043130307C010128000101A8
:1001A000E301043130307C50686F746F73686F7096
:1001B00001043130307C010128000101E3010431E8
:1001C00030307C7072656D696572652070726F0188
:1001D000043130307C010128000101E30104313099
:1001E000307C536E697070696E6720546F6F6C015C
:1001F000043130307C01012800427E407E417E4344
:100200007E447E457E467E477E2152655262526321
:10021000526452080009000A000B00040014001A7E
:100220000006004C004A7E1900487E497E005200BC
:1002300000000000000000000000000000000000BE
:100240000029000F0010004C0012001600487E49E3
:100250007E00520D000E000F0009004A001000A998
:1002600000AA00005200000000000000002A2B2815
:10027000000000000000000000000000000000007E
:1002800029000000002C1E3420212224342627259A
:100290002E362D3738271E1F2021222324252633D2
:1002A00033362E37381F0405060708090A0B0C0DD4
:1002B0000E0F101112131415161718191A1B1C1DE6
:1002C0002F3130232D350405060708090A0B0C0DC4
:1002D0000E0F101112131415161718191A1B1C1DC6
:1002E0002F3130354C0000000000000000000000FD
:1002F00000000000000000000000000000000000FE
:100300000000000000000000007E0F00D4FFFFFF8F
:10031000C7000000781E03700072006F006A00655D
:1003200000630074005F006B00650079005F007679
:1003300000320000001E03530061006B0073006870
:100340000061006D005F005400680061006B007583
:1003500000720000000403090409023B00020100CE
:10036000A0FA0904000001030101000921110100A4
:10037000012244000705810308000109040100016E
:100380000300000009211101000122B600070582C7
:100390000320000112010002000000084B534B50E3
:1003A00000010102000105010902A1018502090104
:1003B000A1000509190129081500250195087501F5
:1003C00081020501093009311581257F95027508E3
:1003D000810609381581257F950175088106050C70
:1003E0000A38021581257F950175088106C0C00570
:1003F000010980A101850319012AB700150126B75B
:1004000000950175108100C0050C0901A10185044A
:1004100019012AA002150126A0029501751081007C
:10042000C005010906A1018506050719E029E715A0
:100430000025019508750181020507190029EF15AE
:1004400000250195F075018102050819012905951E
:100450000575019102950175039101C00501090619
:10046000A101050719E029E7150025019508750187
:1004700081029501750881010507190029FF150002
:1004800026FF009506750881000508190129051544
:10049000002501950575019102950175039101C033
:1004A00011241FBECFEFDAE0DEBFCDBF11E0A0E028
:1004B000B1E0E8EEF4E402C005900D92AC38B1076B
:1004C000D9F722E0ACE8B1E001C01D92A038B20734
:1004D000E1F70E942D120C9415220C940000DB0110
:1004E000FC01E054FE47EB30F10568F4E95EFD4D98
:1004F00015969C910C945C21911529F060E089ED92
:1005000091E00E94FD1681E008959115E1F360E00D
:100510008AEB91E0F6CF9115B1F360E08EE991E0BE
:10052000F0CF911581F360E084E891E0EACF911576
:1005300051F360E087E591E0E4CF911521F360E0AD
:100540008AE291E0DECF9115F1F260E082E191E084
:10055000D8CF9115C1F260E08AEF90E0D2CF91152B
:1005600091F260E084EE90E0CCCF911561F260E012
:1005700082EC90E0C6CF911531F260E08CEA90E019
:10058000C0CF8630C0F46330B0F44330A0F470E0E4
:10059000FB01EE0FFF1FE60FF71FE40FF11D99E0BF
:1005A000899FE00DF11D1124EE0FFF1FE750FE4F54
:1005B00085919491089581E090E008950E94C10290
:1005C000089581E0089581E008950E94E102089570
:1005D00081E0089581E008950E946F0208950895D2
:1005E00008950E94EF02089508950895A6E0B0E0EE
:1005F000ECEFF2E00C94712149835A839E83309191
:10060000930189819A8131111AC03E81311599F087
:10061000211589F00E94E308182F682F89819A819B
:100620000E94BA0869817A81812F0E94E10F269683
:10063000E3E00C948D210E94CE08182FF3CF0E9486
:10064000E30869817A81F1CFFC01262F4081518135
:1006500062817381848195810E94F6020895CF930F
:10066000DF93D82FC92F61E00E9424036D2F7C2FC8
:100670000E94E302811549F061E08D2F9C2F0E94BA
:1006800024036D2F7C2F0E94E502DF91CF91089506
:100690000F931F93CF93DF93D82FC92F60E00E9451
:1006A00024038C016D2F7C2F0E94F0026D2F7C2F74
:1006B000C8010E94F102DF91CF911F910F9108951F
:1006C00021E030E0A90102C0440F551F8A95E2F7EE
:1006D000CA010E94DC070895CF93C82F81E090E003
:1006E0000C2E02C0880F991F0A94E2F70E94400D59
:1006F0008C2F0E946003CF91089581E0089581E0DE
:1007000008950E947D030895CF93C82F0E94860705
:100710008C2F0E947F038C2F0E9481032FEF84E394
:100720009CE0215080409040E1F700C00000CF9154
:10073000089581E00E9484030E949F1A089580E03A
:100740000E9484030E94B01A08950F931F93CF93C1
:10075000DF938C0161E00E942403EC01B8010E9448
:10076000EA02811509F442C0B801CE010E94EC02F0
:100770008115E1F1B801CE010E9477178115B1F121
:10078000B801CE010E949312811581F1B801CE010A
:100790000E946812811551F1B801CE010E94E41047
:1007A000811521F1F8018581811581F0CA35FCE7B9
:1007B000DF0739F178F4C130ECE7DE07F9F0C33038
:1007C000FCE7DF07C9F0C115DC4771F0C8010E94E2
:1007D000E8020DC0CB35ECE7DE07B1F0CC35DC47E5
:1007E000A9F70E94120DF2CF0E94990380E0DF91D9
:1007F000CF911F910F9108950E94230D0E949F0396
:10080000F5CF0E941B0DE2CF0E941F0DDFCF0E948B
:10081000F4020E94D6190E942B0408950E942F040E
:100820000E94F5020E94DB19089581E00895089561
:10083000CF93DF93D82F0E941504C82F811519F08C
:100840008D2F0E9417048C2FDF91CF91089508956A
:100850000E941804089580E00E94280408950E94D0
:10086000BE170E9428040895CF930E94BE17C82F78
:1008700080918E018C1779F0C0938E010E946F1ABF
:1008800060938F01709390018093910190939201F6
:100890008C2F0E942804CF910895ADE0B0E0E3E5ED
:1008A000F4E00C947221488759876A877B878C878C
:1008B0009D8791110E941E0C1F8286E0FE013896D2
:1008C000DE01119601900D928A95E1F78D818111DB
:1008D0000DC029813A814B815C816D817E818F8140
:1008E0000E94680B2D96E2E00C948E21CE010196B9
:1008F0000E942F038111EDCFF5CFFC01848181305F
:1009000021F4808191810E9415090895611529F0D3
:100910000E94F9130E94BA1408950E944214FACF5B
:10092000CF93C82F811599F08CEF8C0F813A88F402
:100930008C2F0E946218811529F08C2F0E940B19B0
:100940000E94B40C8C2F0E94F1180E94B40CCF911D
:10095000089580E28C0F883048F4C77081E001C0B0
:10096000880FCA95EAF70E94FF0BEFCF8BE58C0F3B
:10097000833038F42C2F2452330BC9010E94F41712
:10098000E6CFE8E5EC0FEB3150F4F0E0EE0FFF1F9F
:10099000E65EFE4F808191810E941A18D8CF83E3D2
:1009A0008C0F8331A0F661E08C2F0E948604CFCF9C
:1009B000811581F19CEF980F913A28F40E940B1950
:1009C0000E94B40C089590E2980F983050F487700C
:1009D00091E001C0990F8A95EAF7892F0E94050CD2
:1009E000EFCF9BE5980F933028F480E090E00E94D1
:1009F000F417089598E5980F9B3128F480E090E073
:100A00000E941A18089593E3980F933118F460E048
:100A10000E94860408950F931F93CF93C82F8B01D4
:100A20000E9490040115110539F48C2F0E94D804FE
:100A3000CF911F910F9108958FE99FE00197F1F7F2
:100A400000C0000001501109EDCF60E570E089336E
:100A500011F060E070E00E940B050895811521F00F
:100A60000E94FF0B0E94B40C0895811521F00E9492
:100A7000050C0E94B40C0895A0E0B0E0E2E4F5E0BB
:100A80000C946C216C01D62FC72FFC0115810681B7
:100A900002950F700E94F40BE82E8115F9F0E12EFB
:100AA0001115E1F08C2F807F803461F080E28D0F92
:100AB0008830F0F08C2F807E803221F4D230C0F06C
:100AC0000115B1F08091680282FF12C082E00E949D
:100AD000E50C0E94F40B91E0E82EE926EC2FE2955C
:100AE000EF70C03CB0F5F0E0EE5DFD4D0C945C2184
:100AF000E12CF4CF0C2F0F70C03110F00295007F65
:100B0000111599F0011559F080E28D0F883010F021
:100B1000D11107C0802F0E94FF0B0E94B40C8D2FB3
:100B20004EC0802F0E94100CF8CF8D2F0E94D80449
:100B3000011579F080E28D0F883010F0D11104C0DA
:100B4000802F0E94050C03C0802F0E94160C0E946B
:100B5000B40CE11409F4CBC00E94F00B80FDC7C0B7
:100B6000F60115820E94EA0B0E941808C6010E9435
:100B70004D070E94EA0B0E942808B9C0FC2FFF70A5
:100B8000FF2EC07FC03219F0F29480EFF822D11509
:100B900041F0D130C9F1111509F443C00115E9F054
:100BA000BECF8091680282FD14C0111559F0F11476
:100BB00029F08F2D0E94FF0B0E94B40C80E00E9450
:100BC0009004C7CF80E00E94D804F11411F28F2D59
:100BD000B8CF111569F0011104C08F2D0E942E05A8
:100BE000B8CF013009F0B5CF8F2D0E94360CB1CFB0
:100BF0000111AFCF8F2D0E9435058F2D0E94420C21
:100C00008F2D0E94250CA5CF111521F0063008F07C
:100C1000A0CFE3CF053008F09CCF8F2D0E94350583
:100C200098CF0115D1F3D93349F42FEF87EE93E034
:100C3000215080409040E1F700C000008D2F0E94BD
:100C4000D80487CF8C2F869586958370811569F09F
:100C5000813009F07ECF8D2F9C2F9370111102C02F
:100C600080E090E00E941A1874CF8D2F9C2F937013
:100C7000111102C080E090E00E94F4176ACF612F4A
:100C80008D2F0E94860465CF8C2F837081113DC00B
:100C9000111129C04D2F429546954770440F440FBE
:100CA0002D2F2F7030E0042E02C0220F331F0A9424
:100CB000E2F780E090E0D4FF09C08FE090E002C04E
:100CC000880F991F4A95E2F780959095C695C6952D
:100CD000C370822B932BC23091F0C33099F0C13096
:100CE00059F00E94E8070E94BE170E942804CDB761
:100CF000DEB7E8E00C9488210E94DF07F4CF0E9461
:100D0000F107F1CF0E94DC07EECF111561F1C0FFB2
:100D1000EACF4D2F429546954770440F440F2D2F33
:100D20002F7030E0042E02C0220F331F0A94E2F726
:100D300080E090E0D4FF09C08FE090E002C0880F0F
:100D4000991F4A95E2F780959095C695C695C37010
:100D5000822B932BC23071F0C33079F0C13039F05F
:100D60000E945308C0CF823008F4BDCFD2CF0E947A
:100D70004A08B9CF0E945C08B6CF0E940008B3CFE2
:100D8000CF70111539F08C2F0E9418088D2F0E94FA
:100D90002E05A9CF8D2F0E9435058C2F0E94280883
:100DA000A2CFD23F41F170F4D03FC9F0D13F91F0D2
:100DB000111509F446C0011509F440C08D2F0E9499
:100DC000900491CFD33FF1F0D43F91F78091680226
:100DD00082FD22C08C2F8F71111501F310C01115E7
:100DE00041F0053008F07FCF8C2F8F710E943A08B8
:100DF0007ACF0630F7CF8C2F8F711111CFCF0E9491
:100E0000180871CF111529F08C2F8F710E940C08D2
:100E10006ACF0E94070867CF111531F063E08C2F6D
:100E20008F710E94C60C5FCF81E00E94E50C0230FA
:100E300008F459CF82E00E94E50C55CF8C2F8F71BA
:100E4000DECF011579F0D93349F4EFEFF7EE23E067
:100E5000E150F0402040E1F700C000008D2F0E94DB
:100E6000D80441CF8C2F8F7199CF0F931F93CF93BD
:100E7000DF93EC01688179818D810E9422098C01C8
:100E80000E9465080E94DB07B801CE010E943C0564
:100E9000DF91CF911F910F910895CF93DF93EC01D4
:100EA0008C81811599F0CE010E94A503811111C09A
:100EB0000E94F40B811551F08D81811539F08091DC
:100EC000680282FF03C082E00E94E50CDF91CF91AF
:100ED0000895CE010E943507CE010E944803F6CF47
:100EE00080E090E00E94F41780E090E00E941A18E1
:100EF0000E941E0C0E94B40C0E94D7140E94BA14C7
:100F000008950E9425190E94700708950E940D0CF3
:100F10000E9481070895282F92959F70963099F02E
:100F200060F4925F9F70923030F4203FB1F038F45B
:100F300081E0283E38F080E008959A5FF3CF81E0A9
:100F4000243FC9F7089591E0813F09F090E081E0E6
:100F5000283E08F080E0892B089581E00895FC0187
:100F60008481811539F0808191810E9415090E9448
:100F70008B07089580E00895A6E0B0E0E2ECF7E08A
:100F80000C9472212696E2E00C948E21A7E0B0E04A
:100F9000ECECF7E00C9472212796E2E00C948E21A1
:100FA00008950E94D00708950E94D10790939F0151
:100FB00080939E01089508950E94D407089520917A
:100FC0009E0130919F01822B932B0E94D40708959C
:100FD00020919E0130919F01822393230E94D40788
:100FE000089520919E0130919F01822793270E94AE
:100FF000D40708950E94D00708950E94FA07089523
:101000000E94FD0790939D0180939C01089580E0CC
:1010100090E00E940008089521E030E0A90102C09C
:10102000440F551F8A95E2F7CA010E9400080895EF
:1010300021E030E002C0220F331F8A95E2F7809151
:101040009C0190919D01822B932B0E940008089592
:1010500021E030E002C0220F331F8A95E2F720958D
:10106000309580919C0190919D01822393230E9451
:101070000008089521E030E002C0220F331F8A9556
:10108000E2F780919C0190919D01822793270E9415
:101090000008089520919C0130919D01822B932B93
:1010A0000E940008089520919C0130919D018223A7
:1010B00093230E940008089520919C0130919D0186
:1010C000822793270E940008089508959B01677066
:1010D00091E001C0990F6A95EAF763E0369527958C
:1010E0006A95E1F7220F331F220F331FFA01E20F37
:1010F000F31F40E050E0682F70E08191DF019B0119
:10110000042E02C0369527950A94E2F721702195A6
:101110002827292328272E934F5F5F4F44305105FE
:1011200061F708959C01982F977083E03695279575
:101130008A95E1F7220F331F220F331FFB01E20FC5
:10114000F31F40E050E080E0219130E0092E02C022
:10115000369527950A94E2F721703327042E01C0B3
:10116000220F0A94EAF7822B4F5F5F4F44305105FC
:1011700059F70895482F862F933078F4433068F458
:10118000292F30E0B901660F771F620F731F640FBC
:10119000711D44E951E00E9466080895482F93307C
:1011A00080F4833070F4292F30E0C901880F991F33
:1011B000820F931F64E971E0840F911D0E949208D1
:1011C000089580E00895A0E0B0E0E9EEF8E00C9426
:1011D0006B218C01E0909C01F0909D0180919E011B
:1011E00090919F01E82AF92ACFE0D0E0CC24C39463
:1011F000D12CC6010C2E02C0880F991F0A94E2F769
:101200008E219F21892B49F4219798F7B12C8B2DA2
:10121000CDB7DEB7E9E00C948721BC2EB8018C2F46
:101220000E94ED0F019781F3F2CFCF93DF93D82F78
:10123000C92F0E94E3086D2F7C2F0E94ED0FDF91D4
:10124000CF9108951F93CF93DF93162FD72F9091AF
:101250009301911541F0862F972F0E941509DF9178
:10126000CF911F910895811581F0862F972F0E94AD
:10127000E308C82F682F812F9D2F0E94BA08612F85
:101280007D2F8C2F0E94ED0FEACF862F972F0E9483
:10129000CE08C82FF4CF0F931F93CF93E091A001F6
:1012A000C7E08091A1018E1304C0CF911F910F91CF
:1012B00008950E2F10E0CE9FF0011124EE55FE4F41
:1012C00020813181428153816481758186810E94B0
:1012D000C607F8013196E770E4CF2091DA0130912A
:1012E000DB014091DC015091DD016091DE017091E4
:1012F000DF018091E0010E94C60708958091E0011E
:10130000803178F48091DF01811559F0E091A001DE
:101310002091A1013091DB014091DA0157E02E13B9
:1013200001C008956E2F70E05E9FF0011124DF016F
:10133000AE55BE4F14968C911497811561F111969C
:101340008C911197831327C08C91841324C0159618
:101350008C91159781111FC012968D919C91A0912F
:10136000DC01B091DD018A1B9B0B883C910598F450
:101370008091E0018F7080618093E001E855FE4F1D
:1013800080818F70806180838AED91E00E944D079B
:101390000E944B090895FB013196E770C0CFE091A0
:1013A000A0019091A10127E0E91302C080E0089517
:1013B000AE2FB0E02E9FF0011124EE55FE4F31818B
:1013C000361306C03081381303C03581341304C08E
:1013D000FD013196E770E8CF81E008958F929F92EA
:1013E000AF92BF92DF92EF92FF920F931F93CF9332
:1013F000DF93CDB7DEB72D970FB6F894DEBF0FBEE3
:10140000CDBF8C0186E0F801DE01189601900D92A7
:101410008A95E1F7F801F58084819AED892E91E0B3
:10142000992E9091DE0191111BC0811509F4FFC026
:10143000F11409F440C1C8010E94AF07811509F4F5
:101440003AC187E0F801D40101900D928A95E1F745
:10145000C4010E947D040E947E090E946D09E7C0BC
:10146000E080A280B380D090DF012091DC01309138
:10147000DD01A501421B530BD11409F4DBC0483C2C
:10148000510508F0A6C0811509F4D1C09091DB0187
:1014900091808091E001803108F06BC0991228C0E2
:1014A0009091DA019E1124C0F1105DC08F708061AF
:1014B0008093E0010E946D098AED91E00E944D0742
:1014C0008091E001F8018683F12C8F2D2D960FB6C7
:1014D000F894DEBF0FBECDBFDF91CF911F910F916A
:1014E000FF90EF90DF90BF90AF909F908F90089506
:1014F000F11039C040E0692D8E2D0E94CF0940E0E7
:10150000692D8E2D0E94CF09F82E8111DDCF88859F
:1015100099850E941509292F22952F70903450F437
:101520009F70223080F0911599F0F80196819031EA
:1015300078F4CBCF2A5F2F70223078F0C8010E9458
:101540004D07FD2CC2CF911519F0811509F4BDCFBF
:10155000805E883008F4B9CFF1CF803F08F4B5CF72
:10156000815F8330F7CF8091E00181608093E0015B
:10157000ABCF991207C09091DA019E1103C0F1140C
:1015800009F479C0C8010E94AF07811509F493C01E
:10159000F11409F490C08091E001803288F020912C
:1015A000DA013091DB013A832983BC82AB829091CE
:1015B000DE019D831E828F83CE0101960E944D071E
:1015C00087E0F801AAEDB1E001900D928A95E1F76C
:1015D00042CF9091E0019031A0F4488559856A8509
:1015E0007B858C859D850E94BC078AED91E00E94D9
:1015F0004D0787E0F40111928A95E9F70E946D0981
:1016000063CF8115A1F02091DB0181812813BACF2E
:101610008091DA018E11B6CFF110B4CF9683C80154
:101620000E944D0787E0F40111928A95E9F7FF24A3
:10163000F3944BCF483C510508F041C08115B9F3F4
:10164000F114C9F19091DB01818198132AC0809136
:10165000DA018E1126C08091E00180FD19C0803131
:10166000B8F08683807F803F39F08681982F907F05
:10167000905F8F70892B8683C8010E944D0787E099
:10168000F801AAEDB1E001900D928A95E1F7E5CE5F
:1016900087E0F801AAEDB1E001900D928A95E1F79B
:1016A000C6CFC8010E94AF0781118ACF8091E001A7
:1016B00081608093E001C8010E944D07B8CF488542
:1016C00059856A857B858C859D850E94BC0791CF55
:1016D000AEE0B0E0EEE6FBE00C947121288739879C
:1016E0004A875B876C877D878E87CE0108960E942C
:1016F000EE096C858115A9F0611541F028853985C1
:101700004A855B857D858E850E94C60717E080919E
:10171000A0019091A10189133AC02E96E3E00C94A8
:101720008D2187E0FE013896DE01119601900D9221
:101730008A95E1F7611551F3A091A1018A2F90E0FC
:101740000196877099272091A0012817190689F022
:1017500097E09A9FD0011124AE55BE4FFE013196FD
:1017600001900D929A95E1F78093A1010E944B0997
:10177000CDCF0E9486071092A1011092A00187E0B0
:10178000EAEDF1E0DF011D928A95E9F7BFCF189FDE
:10179000C00111248E559E4F0E94EE09811509F457
:1017A000BCCFE091A0011E9FF0011124EE55FE4F29
:1017B00020813181428153816481758186810E94BB
:1017C000C6078091A00190E00196877099278093C9
:1017D000A0019DCF809109028695869586950895F2
:1017E000809109028770089590910902977081E0B5
:1017F000911101C080E00895809135020895909183
:101800003502982B909335020895982F90958091EA
:101810003502892380933502089510923502089588
:1018200090913402982B909334020895982F9095BC
:1018300080913402892380933402089510923402F7
:10184000089508950E94210C089590910A02292F6D
:101850002823211531F08095892380930A020E9464
:10186000220C089508950E94320C089590910B0265
:10187000292F2823281729F0982B90930B020E94D8
:10188000330C089590910B02292F2823211531F054
:101890008095892380930B020E94330C08958091D8
:1018A0000B02811529F010920B0280E00E94330C8C
:1018B0000895CF93C091350280913402C82B809156
:1018C0000B02811531F0C82B0E94401881110E9433
:1018D0004F0C8C2FCF910895CF93DF93C0910201CD
:1018E000D09103010E94590C8883C0910201D091CC
:1018F000030148E050E061E072E0CE010E94AD21BA
:10190000892B59F088E0FE01A1E0B2E001900D9230
:101910008A95E1F7CE010E94CB17DF91CF91089510
:10192000CF93DF93C0910001D09101010E94590C27
:101930008983C0910001D091010140E250E061EE45
:1019400071E0CE010E94AD21892B59F080E2FE01A9
:10195000A1EEB1E001900D928A95E1F7CE010E94CF
:10196000D617DF91CF9108950E94B119813039F4D3
:101970008091670287FF03C00E94900C08950E9427
:101980006C0C089508950E94C20C0895962F209122
:10199000680222FF11C0682F660F660F660F692B61
:1019A000609309020E941808809109028695869525
:1019B00086950E94C30C08950E94180808951092FD
:1019C000090280E00E94C30C08959091090280955D
:1019D000892380930902282F277021110DC08917B0
:1019E00059F09091680292FF07C08695869586957A
:1019F0000E9428080E94DF0C08959091680292FBD3
:101A0000222720F9281769F080FB92F99093680249
:101A100080916702909168020E944B0D82E00E94C3
:101A2000E50C089580916802002482FF0394802DC4
:101A30000E94FD0C089581E00E94FD0C089580E055
:101A40000E94FD0C08956FEF7FEF80E090E00E9410
:101A5000FF21089580E090E00E94CB219C0181E06D
:101A6000253E3E4F09F080E0089582E090E00E941C
:101A7000C321089583E090E00E94C32190E008957F
:101A8000682F83E090E00E94E121089584E090E0D7
:101A90000E94CB210895BC0184E090E00E94FF21C8
:101AA0000895AB01BC018FE090E00E94F3210895FE
:101AB000AB01BC0183E190E00E94F321089560E056
:101AC00070E0CB010E94580D089560E070E0CB01FA
:101AD0000E94510D0E945F0D0895A8E0B0E0E3E779
:101AE000FDE00C94722165EE7EEF80E090E00E94B4
:101AF000FF2160E082E090E00E94E12181E090E03F
:101B000090939F0180939E010E94400D60E074E1DC
:101B100084E090E00E94FF2160E086E090E00E9477
:101B2000E12160E087E090E00E94E12140E050E0A8
:101B3000BA0188E090E00E94F32160E083E290E047
:101B40000E94E12160E08CE090E00E94E12160E0F1
:101B50008DE090E00E94E12119821A821B821C8292
:101B60001D821E821F82188648E050E067E170E007
:101B7000CE0101960E94D12140E050E0BA018FE1F0
:101B800090E00E94F3210E94650D2896E2E00C94FB
:101B90008E210E946D0D0895682F8EE090E00E94C6
:101BA000E1210895A6E0B0E0E8EDFDE00C9470219D
:101BB0000E94631A8C01809136029091370280173F
:101BC000910779F019821A820E94631ABC01498137
:101BD0005A8180E090E00E944D04109337020093F8
:101BE00036022696E4E00C948C210E946F1A6093D2
:101BF0003F027093400280934102909342026093AF
:101C00003B0270933C0280933D0290933E02089504
:101C1000089508950E94080E089508950E940D0EDB
:101C20000E940A0E089508950E94130E08950895C3
:101C30000E94170E0E94140E089582EE90E10E94F9
:101C400042120E94090E0E940E0E089581E008952E
:101C500081E008950E94260E08950895089508953C
:101C60000E942D0E0E942E0E0E942F0E08950E949B
:101C70002A0D811102C00E94C90D0E94350D80936A
:101C800043020E94460D90936802809367020E946F
:101C900065120E943A0D0E94DC0780919C01909190
:101CA0009D010E94FD0708950E945A1A0E949611F4
:101CB0000E94370E0E9427040E94180E0895A6E085
:101CC000B0E0E5E6FEE00C946A210E94280E811146
:101CD0000AC00E94D20D0E94F8140E943404269675
:101CE000EAE00C9486210E94AC111091380280E049
:101CF0000E94FE1018130EC01091390281E00E945C
:101D0000FE10181307C010913A0282E00E94FE10E4
:101D10001817F9F28091430281FD0E9404110E947C
:101D20002A0EC82E88E3A82E82E0B82E00E0802F6D
:101D30000E94FE10182FF50191915F01891739F16A
:101D4000D82ED926F12CEE24E3948D2D8E218115E9
:101D5000B9F0C114A9F0F9820A830E94631A9C8326
:101D60008B8381E08D8391E0812F8E21811101C0D1
:101D700090E049815A816B817C818D810E944D0464
:101D8000F394EE0CF3E0FF12E0CFF50112930F5F36
:101D9000033069F60E94F50D9ECF1F93CF93DF931A
:101DA0000E94F20FEC01811522E5920708F05DC058
:101DB000811540E5940708F0DBC0803E910528F5C9
:101DC0008D3C910508F0ACC0883A910578F4853ACD
:101DD000910508F0A2C08130910509F441C0049733
:101DE000813A9105E8F1C0E0D0E03AC0885A910903
:101DF0004B97C8F7C85AD0E0CC0FDD1FC05BDE4F51
:101E00000990D881C02DD4642BC0811550E495076A
:101E1000F8F4C11580E2D80708F0C0C0C83ED1056B
:101E2000F8F0CE019A9581159F41E8F68D2F0E941A
:101E30009310182FCE0199270E94F20F212F30E026
:101E4000322F2227E901CC27DF71C82BD92B08C0FC
:101E500099270E94F20FCC27DF70C82BD92BD06AAC
:101E6000CE01DF91CF911F910895803842E594070C
:101E7000C8F5803652E5950708F05BC0C03482E5AE
:101E8000D807D0F4C03292E5D90708F04BC08C2FA8
:101E90008695869520E2829FC0011124C37021E0BF
:101EA00030E0A90102C0440F551FCA95E2F7EA01CC
:101EB000C82BD92BDD68D4CF8C2F8695869587705B
:101EC00050E2859FC0011124C37021E030E0A901D8
:101ED00002C0440F551FCA95E2F7EA01C82BD92B5F
:101EE000DC68BECF803C52E5950758F48F71C03A4C
:101EF000D245A0F590E0982F8827EC01C46FD06AF6
:101F0000AFCF805C9245809708F06DCFDC2FCC2757
:101F1000CC27DF71C06FD06AA3CFA497D064A0CFC5
:101F2000D0659ECFCF71D0E0DC2FCC27C16FD06AB7
:101F300097CF86958695877020E2829FC0011124F5
:101F4000C37021E030E0A90102C0440F551FCA95BB
:101F5000E2F7EA01C82BD92BDA6882CF0E949310EE
:101F6000C82FD0E0DC2FCC27CC27DF71D06278CF10
:101F70008F710E94931053E0CC0FDD1F5A95E1F74B
:101F8000CC27DF70282F30E084FF04C050E1859F0C
:101F900090011124C22BD32BD06962CF8D2F8F716A
:101FA0000E949310182FCE0199270E94F20F212F23
:101FB00030E0322F222722273F71282B392BE901CD
:101FC000D5CF462F672F733028F4433018F40E9482
:101FD000DE02089580E090E008950E94E10F0E94E3
:101FE000CD0E08959C01803E910509F448C0D8F4B7
:101FF0008133910509F47DC048F48932910509F4D3
:102000006DC08A9709F47CC0C90108958933910590
:1020100051F18238910539F1C597B1F78091670286
:1020200085FFF2CF29C0843E910509F447C048F4EA
:10203000823E910599F1833E9105A9F121EE30E0B0
:10204000E3CF863E910509F444C0873E9105E1F651
:102050008091670283FD61C09091680291FF2BC05F
:1020600024EE30E0D1CF809167028370811152C09D
:102070008091680283FFC8CF29E230E0C5CF80910C
:10208000670280FD33C09091680290FFBDCF23EEC0
:1020900030E084FFB9CF20E030E0B6CF8091670216
:1020A00082FDF5CFB1CF8091670282FD30C0909163
:1020B000680290FD2FC084FFA7CFEDCF809168020A
:1020C00081FFA2CF8091670227EE30E084FDE3CF4D
:1020D0009BCF8091670283FDF7CF96CF80916702F7
:1020E00085FD1EC08091680283FF8ECF29E330E01A
:1020F0008BCF8091670286FF87CF2AE230E084CFC2
:102100008091670286FF80CF21E330E07DCF22EE11
:1021100030E07ACF20EE30E077CF26EE30E074CF9B
:1021200025E330E071CF9091670292FF10C041E04B
:10213000282F2471243009F040E031E0282F287145
:10214000283009F030E0431711F02CE0822793FF8C
:1021500010C041E0282F2471243109F040E031E023
:10216000282F2871283109F030E0431711F02CE0B6
:1021700082273091680230FF10C051E0282F217172
:10218000213009F050E041E0282F2871283009F073
:1021900040E0541711F029E0822731FF10C041E0E0
:1021A000282F2171213109F040E031E0282F2871DA
:1021B000283109F030E0431711F029E0822794FD1F
:1021C000877E089580E00895CF939C01FB01805E97
:1021D0009245C1E0809738F4C581C11104C0822FB7
:1021E0008F710E946C038C2FCF91089508950E94E7
:1021F000F610089508950E94FA100895E82FF0E06F
:10220000E459FD4F80810895089580EA8A95F1F799
:10221000089500C008950E9405110895F894E82FCC
:10222000E295EF70F0E041A18F7021E030E0B9015C
:1022300002C0660F771F8A95E2F7CB01962F909523
:10224000942391A392A1892B82A37894089586E682
:102250000E940E1187E90E940E1186EC0E940E1159
:1022600081E90E940E1180E90E940E1184E90E940A
:102270000E110895A0E0B0E0E0E4F1E10C946C21CF
:10228000EC01D62E062F10E0C80187579E4F7C0127
:10229000FC0180818F3F09F444C0F894E82FE29557
:1022A000EF70F0E091A18F7021E030E001C0220FCB
:1022B0008A95EAF7892F822B81A382A12095282372
:1022C00022A378940E940911A6E8B1E091E0C12C04
:1022D0008D918F3F79F0E82FE295EF70E05EF0E0AE
:1022E000208130E08F7002C0359527958A95E2F7FE
:1022F000892F20FD80E0C82A990FF1E0A938BF0797
:1023000039F7F70180818F3F11F00E940E1161E0D3
:10231000C11001C060E08D2D0E940B11C00FD11FB4
:10232000C882CDB7DEB7E8E00C9488210E9427115F
:1023300083E0ECE6F2E0DF01982F1D929A95E9F731
:10234000E9E6F2E0DF011D928A95E9F783E00E9459
:10235000EA110E94F7100895A3E0B0E0E2EBF1E18A
:102360000C9470218E010F5F1F4F83E0F8011192D2
:102370008A95E9F760E0C8010E943A1161E0C8015E
:102380000E943A1162E0C8010E943A1143E050E015
:10239000B80189E692E00E94AD2121E0892B81F409
:1023A00020E043E06CE672E089E692E00E94EB11E7
:1023B000182F0E94FB10812F2396E4E00C948C21AF
:1023C00089819A81AB818093690290936A02A0937C
:1023D0006B02E7CF0895A0E0B0E0E1EFF1E10C94EB
:1023E0006C21D82EE92EF62ED72F042FC22F2115BF
:1023F00079F081E0809346020E94631A909345022F
:102400008093440280E0CDB7DEB7E8E00C948821E9
:10241000C0904602C114B1F38091440290914502EC
:102420000E94F219059770F310E0A8016D2D7E2D22
:102430008F2D9D2F0E94AD21892B41F0A8016D2D7C
:102440007E2D8F2D9D2F0E94BA21CC2D10924602F9
:102450008C2FD9CF0E945F0E08950E94FC190E9414
:10246000051C0E941D0E0E941F1C0E94540E0E94FB
:102470002C1C0E94311C0E942A120E944B1C0E949C
:10248000300EF7CF90938D0180938C0108950E94B8
:10249000230D089580E00E94FE10817008950E942F
:1024A000AC112FEF86E791E0215080409040E1F79A
:1024B00000C000000E94AC110E944A12811521F058
:1024C0000E9447120E949F1A08950E944F12089579
:1024D000CF93DF93EB0186319C4719F50E94FC0BEB
:1024E0009D819115A1F08A7A91E0811101C090E05F
:1024F00090934702811549F085E30E94F1180E94EC
:10250000B40C80E0DF91CF91089589E2F6CF8091FD
:102510004702811521F085E30E940B19F0CF89E273
:10252000FBCF81E0EFCFCF93DF93EC01FB018581FF
:10253000811509F4CFC09E0130572332310508F0D0
:10254000AFC00E94460D9093680280936702FE011F
:10255000E150F047E232F10520F4E25DFD4D0C94CC
:102560005C218091670281608093670290C08091B6
:1025700068028860809368028AC0809167028260E6
:10258000F3CF809167028460EFCF8091670288600B
:10259000EBCF809168028160EDCF8091680282600C
:1025A000E9CF809167028061DFCF8091670280620E
:1025B000DBCF809167028064D7CF0E94860780912D
:1025C00067028068D1CF809167028C60CDCF809107
:1025D00068028360CFCF809167028E7FC5CF8091E4
:1025E0006802877FC7CF809167028D7FBDCF8091C2
:1025F00067028B7FB9CF80916702877FB5CF8091CB
:1026000068028E7FB7CF809168028D7FB3CF8091B3
:1026100067028F7EA9CF809167028F7DA5CF8091C1
:1026200067028F7BA1CF0E948607809167028F7718
:102630009BCF80916702837F97CF809168028C7FC8
:1026400099CF80916702992782FF939590FB82F939
:1026500090FB83F989CF80916802982F909590FB29
:1026600080F990FB81F986CF90916702892F8F7B4B
:1026700096FF806479CF0E94860790916702892F28
:1026800097FB87F9805870CF81E00E94CC0D809134
:102690006702909168020E944B0D0E94860780E0BD
:1026A000DF91CF91089580E0F0CF90916702892F5C
:1026B0008F7E94FF806158CF90916702892F8E7F23
:1026C00090FF816051CF90916802892F877F93FF9F
:1026D000886050CF81E0E4CF282F35EB2303C00181
:1026E000112497FF04C080589109892F08958058BC
:1026F0009F4FFBCF80914E0280FF0DC0609109017A
:1027000070E0660F771F60387105B0F561157105CF
:10271000A9F1862F089581FF07C06091090184E027
:10272000689FB0011124EFCF82FF04C060910901BE
:1027300088E0F6CF90914D029115D9F020910801D3
:1027400080910901682F70E0921730F043E0660F26
:10275000771F4A95E1F7D7CF899FC001112433E055
:10276000880F991F3A95E1F7622F70E00E94482187
:10277000CACF68E070E0CDCF8FE7089581E008957B
:1027800080914E0280FF0CC06091050170E075954C
:102790006795759567956115710549F1862F0895BF
:1027A00081FF06C06091050170E075956795F3CFD4
:1027B0006091050182FD0BC090914C029115A1F032
:1027C0006091040180910501961738F0682F70E040
:1027D0006038710500F38FE70895899FC0011124C7
:1027E00070E00E944821F4CF61E070E0D7CF81E033
:1027F0000895E3E3E80FE331E0F5F0E0E05BFD4D41
:102800000C945C210E947A13819580935202089562
:102810000E947A13FACF0E947A1381958093510215
:1028200008950E947A13FACF0E94C0138093530236
:1028300008950E94C0138195F9CF0E94C01381951D
:102840008093540208950E94C013FACF815D990BC2
:1028500021E030E001C0220F8A95EAF78091500212
:10286000822B80935002089580914E028160809364
:102870004E02089580914E028260F9CF80914E02FF
:102880008460F5CF409151028D3C59F48091520201
:1028900087FF0DC010925202411559F410924D025B
:1028A00008C08E3C81F48091520218169CF34115A9
:1028B00081F08091530290915402892B811159C06B
:1028C00010924C0208958F3C41F447FFF0CF1092D4
:1028D0005102809152028115E0CF803D19F4141607
:1028E000B4F3E5CF90915302893D29F41916FCF613
:1028F00010925302DCCF8A3D19F497FFD8CFF8CF5E
:10290000909154028B3D29F497FFD1CF109254023D
:10291000CECF8C3D19F41916CCF3C9CF9FE2980F96
:10292000983090F4815D990B21E030E0B90102C04C
:10293000660F771F8A95E2F7CB0180959091500240
:10294000892380935002B3CF8D3D31F480914E02A4
:102950008E7F80934E02ABCF8E3D21F480914E024C
:102960008D7FF7CF8F3D09F0A2CF80914E028B7FF4
:10297000F0CF08950E94631A2091510230915202C3
:10298000232B211521F080934A0290934B02209132
:10299000530230915402232B211521F080934802D9
:1029A000909349028FE492E00E94E517089586E033
:1029B000EFE4F2E0DF011D928A95E9F710924D02F3
:1029C00010924C0210924E020895FC0182818111F6
:1029D0000DC0838181110AC08481811107C081E00B
:1029E0009581911101C080E08170089581E0FCCF54
:1029F000A6E0B0E0EEEFF4E10C946C2186E0EFE4A9
:102A0000F2E09E012F5F3F4FD90101900D928A9510
:102A1000E1F710925102109252021092530210925A
:102A200054028B819C81892B7901811589F08091D9
:102A30004A0290914B020E94F2196C0180914D0262
:102A40008115B9F190910A019C151D0408F43EC04E
:102A50008D819E81892B811591F080914802909102
:102A600049020E94F2198C0180914C02811509F4EF
:102A70005FC0909106019017110608F467C0B70176
:102A80008FE492E00E943F19811105C08FE492E02B
:102A90000E94E51481110E94BA1486E0F701AFE4A8
:102AA000B2E001900D928A95E1F72696E8E00C9449
:102AB000882120910B019AE0299F900111242C1567
:102AC0003D0530F68F5F80934D0202C08F3FD1F7F6
:102AD000DB80D11459F00E947A1391E01D140CF0A0
:102AE0009FEF899F802D112480935102DC80D114A7
:102AF00059F00E947A1391E01D140CF09FEF899F0A
:102B0000802D11248093520280915102811509F485
:102B10009FCFD0905202D11409F49ACF0E946C1327
:102B2000809351028D2D0E946C138093520290CF9E
:102B3000209107019AE0299F900111242017310765
:102B400008F09DCF8F5F80934C0202C08F3FD1F77A
:102B50001D81111559F00E94C01391E011160CF05F
:102B60009FEF899F802D1124809353021E811115A0
:102B700059F00E94C01391E011160CF09FEF899F4D
:102B8000802D11248093540280915302811509F401
:102B900076CF10915402111509F471CF0E946C1375
:102BA00080935302812F0E946C138093540267CF4D
:102BB000DC01ED91FC91119784913196ED93FC939A
:102BC0000895A0E0B0E0E7EEF5E10C946B21E82F6A
:102BD000F0E0EB59FD4FB490282F269526952695C9
:102BE00030E0F901EB5FFC4F0491877010E0082E94
:102BF00002C0159507950A94E2F701701127F901B3
:102C0000EB50FD4FE490F12C082E02C0F594E794B0
:102C10000A94E2F7E0FAEE24FF24E0F8F901EB5120
:102C2000FD4FC491D0E002C0D595C7958A95E2F7D3
:102C3000C170DD27C62ED12C0115110549F5E1140F
:102C4000F10431F086EE0E949004C601009771F500
:102C5000B6018B2D0E940B05C601009779F5E11492
:102C6000F104A1F50115110531F081EE0E94D8049F
:102C7000C6010097C9F5CD2B31F08CE20E942505E5
:102C8000C114D104C9F5CDB7DEB7E9E00C948721B2
:102C900081EE0E949004C601009789F2EFE9FFE0FF
:102CA0003197F1F700C000000197F6CFEFE9FFE0A0
:102CB0003197F1F700C000000197C8CFEFE9FFE0BE
:102CC0003197F1F700C000000197C7CF86EE0E9450
:102CD000D804C601009731F2EFE9FFE03197F1F730
:102CE00000C000000197F6CFEFE9FFE03197F1F760
:102CF00000C000000197BDCF8FE99FE00197F1F779
:102D000000C0000091E0C91AD108BACFA0E0B0E03D
:102D1000ECE8F6E10C946B217C01D62F172F042FE1
:102D20008D2F912FF70109958115B9F0813009F0A8
:102D300060C08D2F912FF7010995C82F813091F434
:102D40008D2F912FF70109950E942505802F90E086
:102D5000009709F046C0C111E3CFCDB7DEB7E9E077
:102D60000C948721823039F48D2F912FF70109952A
:102D70000E949004EBCF833039F48D2F912FF7010F
:102D800009950E94D804E2CF843001F78D2F912F4E
:102D9000F7010995C82FC12CD12C8AE0B82E2C2F11
:102DA0002053330BC9012A30310568F0C114D10416
:102DB00069F28FE99FE00197F1F700C0000091E010
:102DC000C91AD108F3CFBC9C9001BD9C300D1124D1
:102DD0006C01C20ED31E8D2F912FF7010995C82FBC
:102DE000DECFEFE9FFE03197F1F700C00000019777
:102DF000AFCF602F0E94E11593CFA2E0B0E0E3E0F7
:102E0000F7E10C947221462F9A838983BE016F5F8C
:102E10007F4F88ED95E10E9486162296E2E00C94A1
:102E20008E210F931F93CF93DF93C42FD22FFC01DA
:102E300085818115C9F0409357020E94631A9093CF
:102E400056028093550280E28C0F883040F4C770A0
:102E500081E001C0880FCA95EAF70E942E05DF9134
:102E6000CF911F910F91089510915702141333C001
:102E700080915502909156020E94F219883C91056A
:102E800050F5C0E2CD0F1D17C1F080E2810F8830F0
:102E900040F4177081E001C0880F1A95EAF70E948C
:102EA0003505C83050F491E08D2F877001C0990F1F
:102EB0008A95EAF7892F0E942E05802F0E9425050A
:102EC000C83068F6D77081E001C0880FDA95EAF75C
:102ED0000E943505C4CF80E28C0F883008F0BFCF48
:102EE000C77081E001C0880FCA95EAF7F1CF0F9350
:102EF000DB01FC01E851FC47E730F10598F5ED599D
:102F0000FD4D0C945C2106E221EE41EE6AE17CE786
:102F1000CD010E94111780E00F91089507E225EE80
:102F200045EE6BE17CE7F4CF06E221EE40EE68E18E
:102F30007CE7EECF07E225EE44EE69E17CE7E8CFDF
:102F400006E221EE42EE6CE17CE7E2CF07E225EEFD
:102F500046EE6DE17CE7DCCF08E221E045EE6EE174
:102F60007CE7D6CF15968C9181111092570281E0A3
:102F7000D3CF90935D0280935C020895E0915C0250
:102F8000F0915D02309729F00190F081E02D0995D4
:102F9000089580E00895E0915C02F0915D02309721
:102FA00021F00280F381E02D09950895DC01E09184
:102FB0005C02F0915D02309739F086E08C930480DA
:102FC000F581E02DCD0109950895DC01E0915C02C9
:102FD000F0915D02309739F082E08C930680F781A2
:102FE000E02DCD0109950895A3E0B0E0EAEFF7E107
:102FF0000C9472219C0180915A0290915B0282177D
:103000009307A1F030935B0220935A02E0915C0297
:10301000F0915D02309751F083E089833B832A83EE
:103020000084F185E02DCE01019609952396E2E01A
:103030000C948E21A3E0B0E0E0E2F8E10C94722160
:103040009C01809158029091590282179307A1F038
:103050003093590220935802E0915C02F0915D0296
:10306000309751F084E089833B832A830084F18583
:10307000E02DCE01019609952396E2E00C948E2175
:10308000CF93DF93C0910201D091030122960E9459
:10309000B119813081F48091670287FF0CC0C09123
:1030A0000001D091010122969EE180E0915028F428
:1030B000DF91CF91089596E0F8CF29912115B1F3D2
:1030C0008F5FF4CFCF93C82F811102C080E031C051
:1030D0000E94B119813021F48091670287FD0EC0F2
:1030E0008091020190910301FC0132960896219192
:1030F0002C1709F1E817F907D1F7E8CF8C2F86953F
:1031000086958695C03F10F7E0910001F09101018E
:10311000E80FF11D228130E0C77081E090E002C02D
:10312000880F991FCA95E2F72823392381E0232BC2
:1031300069F2CF91089581E0FCCF9C01FC013296A9
:103140008FEF90E04191461751F08F3F19F44111F4
:1031500001C0892F9F5F9630A9F78F3F09F408952A
:10316000280F311D87FD3A95F901628308959C016E
:10317000FC013296285F3F4F8191861302C0DF0128
:103180001E92E217F307C1F70895FC01862F86957A
:1031900086958695603F60F4E80FF11D677021E029
:1031A00030E001C0220F6A95EAF78281822B828388
:1031B0000895FC01862F869586958695603F80F45C
:1031C000E80FF11D677081E090E09C0102C0220FC2
:1031D000331F6A95E2F7B9016095828168236283A3
:1031E0000895CF93C82F0E94B1196C2F813061F4DC
:1031F0008091670287FF08C08091000190910101D2
:103200000E94C518CF910895809102019091030109
:103210000E949D18F7CFCF93C82F0E94B1196C2F31
:10322000813061F48091670287FF08C080910001BE
:10323000909101010E94D918CF91089580910201C7
:10324000909103010E94B718F7CF0E94B119813005
:1032500079F48091670287FF0BC0E0910001F09143
:10326000010132968EE1DF011D928A95E9F70895FA
:10327000E0910201F0910301329686E0F4CFDC0187
:10328000FB0111969C9111978181981322C012968F
:103290008C911297811519F0928189131AC0139697
:1032A0008C911397811519F09381891312C015968B
:1032B0008C911597811519F0958189130AC0149680
:1032C0009C91911521F081E02481291303C080E0B5
:1032D00001C081E08170089508950E946C190895DD
:1032E0008F5F80930F0160910C0170910D018091AF
:1032F0000E0190910F010E946D19089583E0809353
:103300000F0160910C0170910D0180910E0190915F
:103310000F010E946D1908950E947019089581E0AF
:1033200080930F0160910C0170910D0180910E014D
:1033300090910F010E946D1908950E948F190895B0
:1033400091E0811101C090E090930E0160910C0119
:1033500070910D0180910E0190910F010E946D19E5
:10336000089580910E01089580930D0160910C01E4
:1033700070910D0180910E0190910F010E946D19C5
:10338000089580910D01089580930C0160910C01C6
:1033900070910D0180910E0190910F010E946D19A5
:1033A000089580910C010895089508950E94D519FB
:1033B0000895089508950E94D4190895CF930E9406
:1033C000D9190E94AC110E94DA19C0E08C2F0E941A
:1033D000FE10811105C0CF5FC330C1F7CF910895B2
:1033E00081E0FCCFCF93DF93EC010E94631A8C1B2A
:1033F0009D0BDF91CF91089585B7806885BF85B714
:10340000806885BF08951F921FB61F9211248F9365
:103410009F93AF93BF9380915E02811113C08091FF
:103420006F0290917002A0917102B0917202419668
:10343000A11DB11D80936F0290937002A093710241
:10344000B0937202BF91AF919F918F911F901FBE59
:103450001F90189580917702843031F10E94070403
:1034600010925E0288E190E020E40FB6F894A895EF
:10347000809360000FBE2093600083B7817F8460DB
:1034800083BF83B7816083BF7894889583B78E7F2D
:1034900083BF0FB6F894A8958091600088618093EF
:1034A0006000109260000FBE08950E9486070E947F
:1034B0000E04089582E084BD93E095BD9AEF97BD18
:1034C00080936E0008952FB7F89480916F029091C9
:1034D0007002A0917102B09172022FBF08952FB7B0
:1034E000F89460916F0270917002809171029091D6
:1034F00072022FBF089578941F921FB61F92112455
:103500008F939F93AF93BF9380916F0290917002BE
:10351000A0917102B09172020196A11DB11D80931C
:103520006F0290937002A0937102B0937202BF91E8
:10353000AF919F918F911F901FBE1F90189587E7A5
:1035400097E7909301088093000888E19AE00FB60E
:10355000F894A895809360000FBE90936000FFCF11
:1035600088E19AE00FB6F894A895809360000FBEAA
:1035700090936000FFCF282FCB01BA0130917702E2
:103580003430D9F42F702093E9002FEF3091E80008
:1035900035FD06C035ED3A95F1F700002A95B1F7F3
:1035A0002091E80025FF09C040E050E00E94C21CC5
:1035B0008091E8008E778093E8000895BC0143E095
:1035C00050E082E00E94BB1A0895BC0146E050E042
:1035D00082E00E94BB1A0895BC0140E250E082E004
:1035E0000E94BB1A0895CF93DF93D82FC92F0E9452
:1035F000B11948E050E06D2F7C2F81E00E94BB1A8A
:1036000088E0ED2FFC2FAFE5B2E001900D928A9596
:10361000E1F7DF91CF91089580917602811109C081
:103620000E944B1E0E94A81E8091E200846080933D
:10363000E20008951092760208950E948F1981E0A9
:103640000E94A01908956091730281E0611101C088
:1036500080E00E947E1908959091770281E0943075
:1036600009F080E0609173020E948C19089542E095
:1036700061EC81E00E94C71D42E261EC82E00E94A1
:10368000C71D9091770281E0943009F080E060914D
:1036900073020E947019089580917902893089F12E
:1036A00048F4823009F4A0C0833009F45AC0813054
:1036B00041F008958A3009F487C08B3009F46CC05A
:1036C000089580917802813A09F04AC08091E8001B
:1036D000877F8093E80080917C0290917D02892B06
:1036E00061F060E080E090E070E00E94121D809147
:1036F000E8008B778093E800089568E08FE592E01A
:10370000F3CF80917802813259F580917C029091BB
:103710007D02029728F58091E800877F8093E8007A
:103720008091E80082FF18C09091F3008091F20030
:10373000029731F48091F100813011F0863021F44C
:103740008091F1000E94B4198091E8008B778093FA
:10375000E8000E94FB1D0895809177028111E0CF5F
:10376000089580917802813AD9F780917C029091F6
:103770007D02892BA9F78091E800877F8093E8007C
:103780008091E80080FFFCCF0E94B1198093F10086
:103790008091E8008E77DBCF80917802813201F74B
:1037A00080917C0290917D02892BD1F68091E80076
:1037B000877F8093E8000E94FB1D80917A020E941F
:1037C000A0190E948607089580917802813241F6FF
:1037D0008091E800877F8093E8000E94FB1D809124
:1037E0007B020E94C419089580917802813A09F001
:1037F000B7CF8091E800877F8093E8008091E80050
:1038000080FFFCCF0E94D119C1CF84B7877F84BFCE
:103810000FB6F894A895809160008861809360004D
:10382000109260000FBE80E890E00FB6F89480938D
:103830006100909361000FBE0E949D1908950E943F
:103840004B1E0E94A81EE2EEF0E08081846080831F
:1038500078940E942E21089580E191E00E94B9178A
:10386000089580917702853031F480917702853018
:1038700019F00E94551A08950E942A1A0E94DE1912
:10388000811599F380917502811579F30E94AC1C22
:103890000E948607EACF08959A0140917E025091D6
:1038A0007F020E94541C0895FC01D9018F2F992793
:1038B00083309105C1F068F48130910509F447C067
:1038C000029761F48BE390E029E533E02D933C937C
:1038D000089581329105E1F0829749F180E090E00E
:1038E00020E030E0F3CFCF019927E13059F082306A
:1038F000910559F0E5E5F3E0892B81F7849190E09B
:103900009F01E4CFE5E3F3E0F9CFE5E1F3E0F6CFA3
:1039100089E090E02BE633E061157105B9F289E0AA
:1039200090E024E833E06130710581F2D7CF84E480
:1039300090E02CE534E06115710541F286EB90E0F2
:1039400026EA33E06130710509F4C0CFC7CF82E1C8
:1039500090E024E933E0BACF80E189BD82E189BDFE
:1039600009B400FEFDCF8091D8008F7D8093D800F0
:103970008091E00082608093E0008091E00081FD12
:10398000FCCF0895AF92BF92CF92DF92EF92FF9259
:103990000F931F93CF936C018B017A010E941A1E23
:1039A000C82F811123C0E114F10439F0F70180819F
:1039B0009181081B190BC80ED91EA12CB12C011521
:1039C0001105A1F08091E80085FD21C08091E800FB
:1039D0008E778093E800E114F10499F0F70180817B
:1039E00091818A0D9B1D91838083C5E08C2FCF919F
:1039F0001F910F91FF90EF90DF90CF90BF90AF900D
:103A000008950E941A1E8115E9F2C82FEFCFF60122
:103A100081916F018093F10001501109FFEFAF1AFE
:103A2000BF0ACDCFFC019B0180917E0290917F0265
:103A30008617970718F0672B61F0C90140E00097DF
:103A400071F441110CC08091E80082FF35C080E024
:103A500008958091E8008E778093E800EECF209162
:103A600077022115A9F12530A9F12091E80023FD65
:103A70002DC02091E80022FDE6CF2091E80020FF34
:103A8000DECF3091F3002091F200009719F028303A
:103A9000310558F041E02830310509F040E020912F
:103AA000E8002E772093E800CACF41914093F100BF
:103AB00001972F5F3F4FE9CF80917702811541F049
:103AC000853041F08091E80083FFBDCF81E008950B
:103AD00082E0089583E00895FC019B0180917E02BD
:103AE00090917F028617970718F0672B61F0C90144
:103AF00040E0009771F441110CC08091E80082FF12
:103B000036C080E008958091E8008E778093E800C9
:103B1000EECF209177022115B1F12530B1F120913E
:103B2000E80023FD2EC02091E80022FDE6CF209181
:103B3000E80020FFDECF3091F3002091F2000097E3
:103B400019F02830310558F041E02830310509F0EE
:103B500040E02091E8002E772093E800CACF4491FE
:103B60004093F100319601972F5F3F4FE8CF80914E
:103B70007702811541F0853041F08091E80083FFA4
:103B8000BCCF81E0089582E0089583E00895982FE6
:103B9000973028F08F708093E90081E0089590932A
:103BA000E900242F762F50E0981731F07091EC0047
:103BB0002091ED005091F00021FD02C09F5FE8CF01
:103BC0003091EB003E7F3093EB003091ED003D7F74
:103BD0003093ED003091EB0031603093EB00709347
:103BE000EC002093ED005093F0002091EE0027FDB3
:103BF000E5CF80E008958091780287FF13C080911F
:103C0000E80082FF06C08091E8008B778093E8008F
:103C10000895809177028111F2CF08958091770203
:103C20008115D9F38091E80080FFF8CF8091E800FA
:103C30008E77ECCF2091E4003091E50095E6A90164
:103C40002091EC00822F817020FF06C08091E80057
:103C500080FF06C080E008952091E80022FD1AC090
:103C600080917702811589F0853089F08091EB0091
:103C700085FD0FC02091E4003091E5004217530705
:103C8000F9F29A95E1F684E0089582E0089583E0E0
:103C9000089581E008950E94BA1E0E94C21EE0EEBF
:103CA000F0E0808181608083E8EDF0E080818F77B3
:103CB000808319BCA7EDB0E08C918E7F8C938081BE
:103CC0008F7E80831092760208950F931F93CF9377
:103CD000DF930E94BA1E0E94C21EC8EDD0E0888108
:103CE0008F77888388818068888388818F7D8883A7
:103CF00019BC109277021092730210927502109202
:103D0000740200EE10E0F80180818B7F808388814F
:103D10008160888342E060E080E00E94C71DE1EEA0
:103D2000F0E080818E7F8083E2EEF0E08081816030
:103D30008083808188608083F80180818E7F80838A
:103D4000888180618883DF91CF911F910F910895C1
:103D5000E8EDF0E080818F7E8083E7EDF0E0808108
:103D60008160808384E082BF81E0809376020E943C
:103D7000651E0895E8EDF0E080818E7F80831092CB
:103D8000E20008951092DA001092E10008951F9267
:103D90000F920FB60F9211242F933F934F935F937F
:103DA0006F937F938F939F93AF93BF93EF93FF9303
:103DB0008091E10082FF0BC08091E20082FF07C08A
:103DC0008091E1008B7F8093E1000E942D21809102
:103DD000DA0080FF19C08091D80080FF15C0809163
:103DE000DA008E7F8093DA008091D90080FF94C042
:103DF00080E189BD82E189BD09B400FEFDCF81E08B
:103E0000809377020E940C1B8091E10080FF19C013
:103E10008091E20080FF15C08091E2008E7F809348
:103E2000E2008091E20080618093E2008091D800FE
:103E300080628093D80019BC85E0809377020E944D
:103E4000231B8091E10084FF29C08091E20084FF60
:103E500025C080E189BD82E189BD09B400FEFDCFA6
:103E60008091D8008F7D8093D8008091E1008F7E73
:103E70008093E1008091E2008F7E8093E200809148
:103E8000E20081608093E20080917302811509F461
:103E900049C084E0809377020E942C1B8091E1004E
:103EA00083FF29C08091E20083FF25C08091E1005B
:103EB000877F8093E10082E0809377021092730203
:103EC0008091E1008E7F8093E1008091E2008E7FFF
:103ED0008093E2008091E20080618093E20042E002
:103EE00060E080E00E94C71D8091F00088608093B0
:103EF000F0000E941D1BFF91EF91BF91AF919F9128
:103F00008F917F916F915F914F913F912F910F9082
:103F10000FBE0F901F90189519BC109277020E9447
:103F20001A1B72CF8091E30087FF02C083E0B2CFFB
:103F300081E0B0CF1F920F920FB60F921124EF9233
:103F4000FF920F931F932F933F934F935F936F9322
:103F50007F938F939F93AF93BF93CF93EF93FF93F1
:103F600009EE10E0F8018081C091EC008F70C795D8
:103F7000CC27C795C82B108280EFE82EF12CF701D3
:103F80008081877F808378940E94E51FF8011082EA
:103F9000F701808188608083CF70F801C083FF9132
:103FA000EF91CF91BF91AF919F918F917F916F9141
:103FB0005F914F913F912F911F910F91FF90EF9043
:103FC0000F900FBE0F901F901895AAE2B0E0EBEE95
:103FD000FFE10C94702188E792E0FC0101962091AA
:103FE000F100208322E080389207B9F70E944C1B31
:103FF0008091E80083FF38C0809178029091790227
:104000009A3090F5E92FF0E0E659FD4D0C945C21D3
:10401000803889F0823841F580917C028F7087303A
:1040200018F58093E9008091EB0085FB882780F9E3
:104030001092E90006C080917502880F9091740279
:10404000892B9091E800977F9093E8008093F1008E
:104050001092F1008091E8008E7723C0811116C084
:1040600080917A02813011F18091E80083FF0AC0CB
:104070008091E800877F8093E8008091EB00806268
:104080008093EB00AA96E4E00C948C21823061F7D7
:1040900080917A02811589F01092E9008091E80000
:1040A000877F8093E8000E94FB1DDECF81E0933084
:1040B00009F080E080937502EFCF80917C028F70D1
:1040C0002FEF280F263080F68093E9002091EB0037
:1040D00020FFE2CF933031F48091EB008062809337
:1040E000EB00DACF9091EB0090619093EB0021E030
:1040F00030E0A90102C0440F551F8A95E2F74093B2
:10410000EA001092EA008091EB008860E8CF81110C
:10411000ABCF10917A021F778091E3008078812BDA
:104120008093E3008091E800877F8093E8000E94FD
:10413000FB1D8091E80080FFFCCF8091E300806848
:104140008093E30083E0111101C082E08093770245
:104150008BCF8058823008F087CF80917A0290917F
:104160007B028C3D53E0950799F583E08A838AE2D0
:1041700089834FB7F894DE01139620E03EE051E2C8
:10418000E32FF0E050935700849120FF03C0829505
:104190008F703F5F8F708A30C8F0895C90E08D939C
:1041A0009D932F5F243161F74FBF8091E800877F97
:1041B0008093E8006AE270E0CE0101960E94121D31
:1041C0008091E8008B778093E8004ECF805DE6CF4A
:1041D00060917C0270917D02AE014F5F5F4F0E9443
:1041E0004C1C8C01892B09F43FCF8091E800877F1C
:1041F0008093E800B80189819A810E946C1DE0CF0C
:10420000803809F031CF8091E800877F8093E80003
:10421000809173028093F1001DCF811125CF909181
:104220007A02923008F020CF8091E800877F809357
:10423000E800909373020E94FB1D80917302811528
:1042400031F084E0809377020E94371B0DCF80917C
:10425000E30087FDF6CF81E0F5CF0895CF938091FD
:104260007702811599F08091E900C091EC008F7080
:10427000C795CC27C795C82B1092E9008091E8001C
:1042800083FD0E94E51FCF70C093E900CF91089590
:1042900097FB072E16F4009407D077FD09D00E94F3
:1042A000992107FC05D03EF4909581959F4F089584
:1042B000709561957F4F0895EE0FFF1F0590F49163
:1042C000E02D09942F923F924F925F926F927F92CE
:1042D0008F929F92AF92BF92CF92DF92EF92FF9216
:1042E0000F931F93CF93DF93CDB7DEB7CA1BDB0BC2
:1042F0000FB6F894DEBF0FBECDBF09942A88398867
:1043000048885F846E847D848C849B84AA84B9846D
:10431000C884DF80EE80FD800C811B81AA81B98179
:10432000CE0FD11D0FB6F894DEBF0FBECDBFED018D
:104330000895AA1BBB1B51E107C0AA1FBB1FA617EC
:10434000B70710F0A61BB70B881F991F5A95A9F73E
:1043500080959095BC01CD010895FB01DC0104C05E
:104360008D910190801921F441505040C8F7881B6D
:10437000990B0895FB01DC0102C001900D924150A0
:104380005040D8F70895F999FECF92BD81BDF89AB3
:10439000992780B50895A8E1B0E042E050E00C9480
:1043A0000722DC01A40FB51F4150504048F0CB015B
:1043B000840F951F2E910E94E22141505040D0F76A
:1043C0000895262FF999FECF92BD81BDF89A0197E5
:1043D00000B4021639F01FBA20BD0FB6F894FA9A4D
:1043E000F99A0FBE08950396272F0E94E2210E949A
:1043F000E121252F0E94E221242F0C94E221019635
:10440000272F0E94E2210C94E121DC01CB01FC0169
:10441000F999FECF06C0F2BDE1BDF89A319600B41D
:104420000D9241505040B8F70895F894FFCF85029F
:104430008B02970291027C029D02A302A902AF02A5
:10444000B502BB027A057A05BE05BE0522063F0607
:10445000A905A9054406C006D106D106EB125C13D6
:10446000F312BD12C112F712C512FB120713D112BB
:104470005513D5120B13D9120F133413DD12131366
:104480003B13E31219132113C912FF12CD120313A8
:10449000E7121D132B1344135313B712EF126313B8
:1044A000021408140B1411142614261426142614AE
:1044B0002614261426142614141419141D14231457
:1044C00034143A143E1494179A1783178E17A017B2
:1044D000A617AC1708202E2034202E203420872049
:0844E000A920342000210D2168
:1044E8000C022C02280850011E0A140100000100C9
:1044F800C119F31AEC1AE51ADE1AE200E900EA001B
:10450800B500B600B700CD008301CC008A01920146
:1045180094012102230224022502260227022A02EC
:10452800B300B4006F0070009F01CB019F02A0028E
:10453800E200E900EA00B500B600B700CD0083014B
:10454800CC008A019201940121022302240225024F
:10455800260227022A02B300B4006F0070009F01F0
:0C456800CB019F02A0029190946697C6C0
:00000001FF
